:100000000C94E3020C942A030C942A030C942A0304
:100010000C942A030C942A030C942A030C942A03AC
:100020000C942A030C942A030C94DA1F0C94AE202F
:100030000C94331A0C942A030C942A030C942A036C
:100040000C942A030C942A030C942A030C942A037C
:100050000C942A030C948A1A0C942A030C942A03F5
:100060000C942A030C942A030C942A030C942A035C
:100070000C942A030C942A030C942A030C942A034C
:100080000C942A030C942A030C942A030C942A033C
:100090000C942A030C942A030C942A030C942A032C
:1000A0000C942A030C942A030C942A033A003C0073
:1000B0003E000000400042004400680029003B0070
:1000C0003D003F004100430045004C001E00200061
:1000D00022000000240026002D00350035001F00FE
:1000E00021002300250027002E004A0014000800EC
:1000F00017000000180012002F0031002B001A001A
:1001000015001C000C0013002A004B00040007001F
:100110000A0000000D000F0034002800390016000E
:1001200009000B000E00330030004E001D000600D9
:10013000050000001100360038005200E1001B00ED
:100140001900050010003700E5000000E200000083
:10015000015100002C00E60000005100E00000000A
:100160002C0000000000000050004F0001000100C2
:100170000100000001000100010001000100010078
:100180000100010001000100010001000100010067
:100190000100000001000100010001000100010058
:1001A0000100010001000100010001000100010047
:1001B0000100000001000100010001000100010038
:1001C0000100010001000100010001000100010027
:1001D0000100000001000100010001000100010018
:1001E0000100010001000100010001000100010007
:1001F00001000000010001000100010001000100F8
:1002000001000100010001000100000001000000E8
:1002100001000000010001000000010001000000D9
:1002200001000000000000000100010001000100C9
:1002300001000000010001000100010001000100B7
:1002400001000100010001000100010001000100A6
:100250000100000001000100010001000100010097
:100260000100010001000100010001000100010086
:100270000100000001000100010001000100010077
:100280000100010001000100010001000100010066
:100290000100000001000100010001000100010057
:1002A0000100010001000100010001000100010046
:1002B0000100000001000100010001000100010037
:1002C0000100010001000100010000000100000028
:1002D0000100000001000100000001000100000019
:1002E0000100000000000000010001000100010009
:1002F00001000000010001000100010001000100F7
:1003000001000100010001000100010001000100E5
:1003100001000000010001000100010001000100D6
:1003200001000100010001000100010001000100C5
:1003300001000000010001000100010001000100B6
:1003400001000100010001000100010001000100A5
:100350000100000001000100010001000100010096
:100360000100010001000100010001000100010085
:100370000100000001000100010001000100010076
:100380000100010001000100010000000100000067
:100390000100000001000100000001000100000058
:1003A000010000000000000001000100000000004A
:1003B000000000002A2B28000000000000000000C0
:1003C0000000000000000029000000002C1E342066
:1003D000212224342627252E362D3738271E1F208C
:1003E0002122232425263333362E37381F040506D1
:1003F0000708090A0B0C0D0E0F1011121314151615
:100400001718191A1B1C1D2F3130232D3504050612
:100410000708090A0B0C0D0E0F10111213141516F4
:100420001718191A1B1C1D2F3130354C0000000005
:1004300000000000000000000000000000000000BC
:1004400000000000000000000000000000000000AC
:100450007E0F00D4FFFFFFC7000000780E0363008B
:1004600061006C0069006300650000001803710002
:1004700077006500720074006C0065006B00650019
:100480007900730000000403090409025B00030102
:1004900000A0FA0904000001030101000921110173
:1004A00000012240000705810308000A0904010039
:1004B00002030000000921110100012222000705AA
:1004C0008203200001070503032000010904020044
:1004D0000103000000092111010001226D00070540
:1004E000840320000A12011001000000086B710152
:1004F000000100010200010660FF0961A10109621B
:10050000150026FF00952075088102096315002655
:10051000FF00952075089102C005010980A10185A1
:100520000319012AB700150126B70095017510813E
:1005300000C0050C0901A101850419012AA00215BA
:100540000126A002950175108100C005010906A1D0
:10055000018505050719E029E715002501950875AE
:100560000181020507190029EF1500250195F07595
:10057000018102050819012905950575019102956A
:100580000175039101C005010906A101050719E0E4
:1005900029E7150025019508750181029501750867
:1005A00081010507190029FF150026FF0095067532
:1005B0000881000508190129059505750191029525
:1005C0000175039101C011241FBECFEFDAE0DEBF39
:1005D000CDBF04B603FE27C08091BE029091BF023A
:1005E000A091C002B091C1028730904BA740B04BA0
:1005F000D1F41092BE021092BF021092C00210926B
:10060000C10214BE84B7877F84BF0FB6F894A89543
:1006100080916000886180936000109260000FBE3E
:10062000E0E0F8E3099511E0A0E0B1E0E8E2F6E4EB
:1006300002C005900D92A23AB107D9F722E0A2EAD2
:10064000B1E001C01D92AE3BB207E1F70E94981CD9
:100650000C94D7220C940000569A0C94E40DCF937E
:10066000C82F0E942405882319F0C1FF03C05E9A99
:10067000CF9108955E98FCCF81E0089581E00895C0
:100680000C943E0308950C9442031F93CF93DF9381
:1006900000D000D00F92CDB7DEB749835A836B8369
:1006A0003091CD0189819A8131111DC06623B9F045
:1006B0002223A9F00E942E17182F682F89819A8172
:1006C0000E94D91669817A81812F0F900F900F9027
:1006D0000F900F90DF91CF911F910C948C0A0E9484
:1006E0000617182FEFCF0E942E1769817A81EDCF60
:1006F000FC01262F408151816281738184810C9499
:100700004503CF93DF93EC0160E00E947803BE01C4
:10071000DF91CF910C9443038F929F92AF92BF923F
:10072000CF92DF92EF92FF920F931F936B017C01A8
:1007300081E090E0A0E0B0E04C015D0104C0880CD5
:10074000991CAA1CBB1C4A95D2F7B501A4014C0107
:100750005D0104C0880C991CAA1CBB1C2A95D2F709
:10076000482959296A297B2904C0880F991FAA1F83
:10077000BB1F0A95D2F78A019B010C211D212E2156
:100780003F21041715072607370789F48C299D296F
:10079000AE29BF29BC01CD011F910F91FF90EF90B1
:1007A000DF90CF90BF90AF909F908F9008958095ED
:1007B0009095A095B0958C219D21AE21BF21EACFC7
:1007C0000F93382F262F609142027091430280913F
:1007D000440290914502042F432F0E948C030F91F5
:1007E0000C9417160E94D91A0E947A18811102C01F
:1007F0000E941E190C9421070C94240708950E944E
:1008000043120E94FE032FEF84E39CE021508040BE
:100810009040E1F700C000000C94AE1A0F931F93B4
:10082000CF93DF93EC0161E00E9478038C01BE015D
:100830000E94D308882359F1BE01C8010E944003D9
:10084000882329F1BE01C8010E94C10B8823F9F059
:10085000BE01C8010E94130C8823C9F0BE01C80163
:100860000E94360D882399F08A81882339F001157A
:100870008CE5180751F00E3D1C4579F0CE01DF9153
:10088000CF911F910F910C943C030E94FF0380E0D5
:10089000DF91CF911F910F9108950E941E19F7CFFC
:1008A000DF92EF92FF920F931F93CF93DF93E82F86
:1008B000F0E0E455FC4FD490282F269526952695F8
:1008C00030E0F901E45BFB4F0491877010E0082EE3
:1008D00002C0159507950A94E2F701701127F901F6
:1008E000E45CFB4FE490F12C082E02C0F594E794F1
:1008F0000A94E2F791E0E922FF24F901E45DFB4F5D
:10090000C491D0E002C0D595C7958A95E2F7C17031
:10091000DD270115110519F081EE0E94E10EE114A9
:10092000F10419F086EE0E94E10E8D2D0E94D10F88
:10093000EF2819F086EE0E946B0F012B19F081EE63
:100940000E946B0FCD2B51F08CE2DF91CF911F9164
:100950000F91FF90EF90DF900C94D10FDF91CF912A
:100960001F910F91FF90EF90DF900895EF92FF920B
:100970000F931F93CF93DF93EC01162F0AE088812A
:10098000882309F454C0813009F04EC08981813038
:1009900099F47E0122E0E20EF11C8A810E94D10FBF
:1009A000E7012196812F815050F3EFE9FFE0319765
:1009B000F1F700C00000F7CF823041F47E0182E001
:1009C000E80EF11C8A810E94E10EEACF833041F4E7
:1009D0007E01E2E0EE0EF11C8A810E946B0FE0CFF7
:1009E000843011F02196DDCF2A81229690E080E0BC
:1009F000AE014F5F5F4F2053330B2A30310548F073
:100A0000019778F2EFE9FFE03197F1F700C00000BD
:100A1000F7CF089FB001099F700D1124C901860FFF
:100A2000971F2981EA01E4CF0E945004BACFDF91D9
:100A3000CF911F910F91FF90EF90089560E00C947B
:100A4000B60408950C94210581E00895CF93C82F32
:100A50000E9422058C2FCF910C942F0390E080E010
:100A600008950895FC01EE0FFF1FE45AFB4F859196
:100A700094910895CF93DF930E948C0A0E944606BA
:100A8000EC01811520E5920708F041C0811530E4A2
:100A9000930708F0B4C0803E910518F5803C91059D
:100AA00008F09DC0883A910570F4853A910508F0E8
:100AB0008EC081309105F9F00097E9F00497D8F4E1
:100AC000D0E0C0E018C08F3B9105D0F7C85AD0E005
:100AD000CC0FDD1FC35FDE4F0990D881C02DD464D9
:100AE0000AC08115904258F4C11581E0D80718F466
:100AF000C83ED10528F7CE01DF91CF910895C115E9
:100B000090E3D90708F071C0CE019F706AC08115CB
:100B100025E5920758F5811534E5930708F09EC046
:100B2000811542E5940750F4C11581E5D80708F412
:100B300069C0DC2FCC27C16FD06ADDCF982F969586
:100B400096959E0123703327C115D34508F077C0D1
:100B5000C1E0D0E002C0CC0FDD1F2A95E2F720E211
:100B6000929FC0011124C82BD92B67C0C11589E5FC
:100B7000D807A8F4C11598E5D90708F074C0C115C5
:100B800026E5D20708F09CCF8C2F0E94DD06C82FE7
:100B9000D0E0DC2FCC27CC27DF71D062ACCFC115E1
:100BA0003AE5D30708F464C0CE019056811590420F
:100BB00008F086CF8D2F8F710E94DD0690E0982F70
:100BC000882788279F719C012C2BE901E6CFC55A05
:100BD000D0E0C55CDE4FC881D0E0D0648CCF805CB3
:100BE00091090E943205EC0186CFCE019927D3FFEF
:100BF00003C0EC01D86C7FCFEC01D06C7CCFDF70F0
:100C0000D06A79CFCE01E4E096958795EA95E1F731
:100C100083702C2F26952695237090E2299F9001B2
:100C20001124382B8C2F8370C1E0D0E002C0CC0F90
:100C3000DD1F8A95E2F7C22BD32BDC685CCFC1E0C5
:100C4000D0E002C0CC0FDD1F2A95E2F730E2939F7F
:100C5000C0011124C82BD92BDA684DCFD82FCC274F
:100C6000C46FD06A48CFDC2FCC27C06FD06A43CF87
:100C70008C2F8F700E94DD0634E0D695C7953A958B
:100C8000E1F7CF709C2FEC01D06935CF8238910508
:100C9000B1F1B0F48133910509F475C048F489329B
:100CA000910509F469C08A32910509F473C0089569
:100CB0008533910509F459C08933910501F10895EF
:100CC000833E9105A9F138F4803E9105F9F0823E0A
:100CD000910549F10895863E9105A9F1873E910558
:100CE000C9F1843E910519F52091B00221FF1FC082
:100CF0008091AF0284FD14C087EE90E008952091AA
:100D0000AF022370A1F080EE90E008952091AF0231
:100D100020FD47C03091B00230FF09C024FF44C01D
:100D200090E080E004C02091AF0222FDF7CF08954B
:100D30002091AF0222FD3BC03091B00230FDE3CFE5
:100D400024FFF5CFEDCF2091AF0223FFF0CF24FD9C
:100D5000E7CFD2CF2091AF0223FD2CC03091B0025B
:100D600031FFEECF84EE90E008952091AF0225FF91
:100D7000DECF89E290E008952091AF0225FFD7CF22
:100D800085E390E008952091AF0226FFD0CF8AE25C
:100D900090E008952091AF0226FFC9CF81E390E053
:100DA000089589E390E0089583EE90E0089582EE3F
:100DB00090E0089586EE90E008959091AF0292FF42
:100DC00006C0282F28712830F9F4877F846093FFAC
:100DD00006C0282F28712831F1F4877E8461209184
:100DE000B00220FF06C0382F38713830D9F4877F21
:100DF000816021FF06C0282F28712831D1F4877E19
:100E0000816194FD877E0895282F24712430F9F69E
:100E10008B7F8860DCCF282F2471243101F78B7EF3
:100E20008861DDCF382F3171313019F78E7F8860BE
:100E3000E0CF282F2171213121F78E7E8861E1CF0B
:100E400008950C94200708950C942307E82FF0E0F0
:100E5000E156FD4F80810895089580EA8A95F1F763
:100E6000089500C008950C942D07F894E82FE2959A
:100E7000EF70F0E031A1282F2F7081E090E001C0E9
:100E8000880F2A95EAF7982F9095932391A392A122
:100E9000892B82A378940895CF93DF93C6E4D1E0A1
:100EA00089910E94350781E0C235D807C9F7CEE3A2
:100EB000D1E089910E94350781E0C634D807C9F78F
:100EC000E3E9F2E0AFE9B2E011921D9282E0EF397E
:100ED000F807D1F78CE00E94EC07DF91CF910C94DA
:100EE000F203BF92CF92DF92EF92FF920F931F9384
:100EF000CF93DF9306E411E0C3E9D2E0C12CD12CFB
:100F0000EE24E394F12CF80181918F01F894E82FFD
:100F1000E295EF70F0E021A18F70A70102C0440FAD
:100F2000551F8A95E2F7CA01922F982B91A392A19F
:100F30008095892382A378940E943107EEE3F1E043
:100F400030E020E0B12C4191A42FA295AF70B0E029
:100F500090968C9190E04F7002C0959587954A9538
:100F6000E2F780FD35C08E2D022E01C0880F0A9455
:100F7000EAF7B82A2F5F3F4F2830310521F7F801F3
:100F8000319780810E9435075BE0C5120E943307CC
:100F90008881B816F9F0B88281E0D82AC3942196E6
:100FA0008CE0C812B0CF2D2D4CE06FE972E083E9E0
:100FB00092E00E94ED070E94FC038D2DDF91CF91FE
:100FC0001F910F91FF90EF90DF90CF90BF90089509
:100FD00080E0CFCF80E0E1CF0895FF920F931F9381
:100FE000CF93DF93F82E092F162FD72FC42F22234C
:100FF00049F081E08093A6010E94631A9093A501B5
:101000008093A4018091A6018823A1F08091A4017E
:101010009091A5010E947B1A069760F0EF2DF02FAA
:10102000A12FBD2FCE0FDF2FD11DEC17FD0741F4EF
:101030001092A601DF91CF911F910F91FF9008951B
:1010400081918D93F2CF08950C9423082098289ACB
:101050002198299A83B18170199905C090E0892B54
:101060008093A901089592E0FACFE091A901EE0FD3
:10107000EE0FE093A90143B1842F817043B141FB8E
:10108000222720F941FF02C022E030E0822BE82B2A
:10109000E093A901EF70F0E0EE5AFE4F808190914D
:1010A000A801890F8093A80120E0843054F080913A
:1010B000A7018F5F8093A70160E080E00E94240871
:1010C00021E08091A8018D3F54F48091A7018150C7
:1010D0008093A70161E080E00E94240821E08091D4
:1010E000A801082E000C990B64E070E00E946022B9
:1010F0008093A801822F089582E290E00E949522B9
:10110000813289F483E290E00E949522893059F47B
:1011100084E290E00E94952291E0853109F090E010
:10112000892F8170089580E0FCCFCF93C82F6FEF97
:10113000811161E282E290E00E94A3226FEFC1116F
:1011400069E083E290E00E94A3226FEFC11165E1A4
:1011500084E290E0CF910C94A32280E00E94950855
:101160000C947418089585E290E00E949522682FEF
:1011700070E090E080E0089585E290E00C94A32276
:101180000E94B2080E947C0881110CC060E070E0EF
:10119000CB010E94BC080E94040A0E94EE0A81E072
:1011A0000C9495080895CF93FB01C281CC2309F1DB
:1011B0009C0122513F452031310520F582510E948A
:1011C000FE0AC0E08C2FCF91089581E00E943D1669
:1011D00043E062E081E00E94E003F3CF81E00E94FF
:1011E0005E1643E062E081E00E94E003EBCF82E024
:1011F000F6CF8031FFE59F0789F381319F45B9F331
:10120000C1E0E0CF8031EFE59E07F9F281319F45E3
:10121000C9F682E0DBCF2FEFFC0120830895EF9227
:10122000FF920F931F93CF93DF93EC01062FE8817A
:10123000E150E33108F05EC0F0E0E752FD4D0C9460
:101240007422198289E08A83602FCE01DF91CF91C9
:101250001F910F91FF90EF900C948D1B898182302C
:1012600069F0833071F08130D9F40E946F1A0E94C6
:101270007A226A837B838C839D83E6CF0E94B308A6
:10128000F6CF7E0182E0E80EF11C10E0812F0E9473
:101290002607F70181937F011F5F1C30B9F7D4CF78
:1012A000602FCE010E940B09CFCF89818230C1F718
:1012B0006A817B818C819D810E947A220E94BC0878
:1012C000C3CF4B816A8189810E94D60998278927DB
:1012D00098279D838C83B8CF2C813D81322723278B
:1012E00032274B816A8189810E94EF09ADCF0E942C
:1012F000040AAACF8FEF8883A7CF0E94990A898317
:10130000A3CF0E949B0A9827892798279A838983CD
:101310009BCF6B8170E089819A81AE014C5F5F4FFA
:101320009827892798270E949E0A8ECF6B8170E0AC
:1013300089819A81AE014C5F5F4F98278927982752
:101340000E94C40A81CF0E94EE0A7ECF0E94C30988
:10135000D6CF6B8170E089819A81AE014C5F5F4F7F
:101360009827892798270E943C0A6ECF6B8170E0EE
:1013700089819A81AE014C5F5F4F98278927982712
:101380000E94620A61CF84E0089590E1699FB001F4
:10139000112450E0440F551F640F751F90EC899F76
:1013A000600D711D1124CB01869608950F931F9334
:1013B000CF93DF930E94C5098C010E949522C82F0C
:1013C000D0E0DC2FCC27C80101960E9495229E0117
:1013D000282BC901DF91CF911F910F9108950F9391
:1013E0001F93CF93DF93122F032F0E94C509EC01A7
:1013F000602F0E94A322612FCE010196DF91CF9131
:101400001F910F910C94A322AF92BF92CF92DF92C3
:10141000EF92FF921F93CF93DF938CEAC82E80E068
:10142000D82ED0E07601C0E014C0F50125913491AA
:10143000412F6C2F8D2F0E94EF0982E0A80EB11C66
:101440001F5F183091F780E1E80EF11CCF5FCC30C0
:1014500019F0570110E0E9CFDF5F80ECC80ED11C16
:10146000D43001F7DF91CF911F91FF90EF90DF9083
:10147000CF90BF90AF900895EF92FF920F931F937C
:10148000CF93DF93EC018A017C01E60EF71ECE01BB
:101490008696CE15DF0539F4DF91CF911F910F911C
:1014A000FF90EF900895C11523E0D20740F40E9409
:1014B0009522F80180830F5F1F4F2196E8CFF80136
:1014C0001082F9CFCF92DF92EF92FF920F931F938A
:1014D000CF93DF937C016A018C01060F171FEC018B
:1014E000CE018696C017D10749F4DF91CF911F91A5
:1014F0000F91FF90EF90DF90CF900895C11523E0FA
:10150000D20740F4FE01EE19FF09EC0DFD1D6081CC
:101510000E94A3222196E4CF462F843038F47C30F9
:1015200028F4683018F4672F0C94D60990E080E016
:10153000089580E108958AED90E00895EF92FF927A
:101540000F931F93CF93DF93EC018A017C01E60E8A
:10155000F71ECE018A5D9C4FCE15DF0539F4DF9171
:10156000CF911F910F91FF90EF900895CA3DD10543
:1015700040F40E949522F80180830F5F1F4F21964F
:10158000E8CFF8011082F9CFCF92DF92EF92FF926D
:101590000F931F93CF93DF937C016A018C01060F99
:1015A000171FEC01CE018A5D9C4FC017D10749F48B
:1015B000DF91CF911F910F91FF90EF90DF90CF902F
:1015C0000895CA3DD10540F4FE01EE19FF09EC0D66
:1015D000FD1D60810E94A3222196E4CFCF93DF936B
:1015E000C6E2D3E060E0CE010E94A3222196C1159D
:1015F00084E0D807B9F7DF91CF910895DF92EF9299
:10160000FF920F931F93CF93DF9300D000D0CDB7FD
:10161000DEB7F82E8FE08F1540F08FEF93E00E9439
:10162000952206E213E08823C1F00F900F900F90EF
:101630000F90DF91CF911F910F91FF90EF90DF906E
:101640000895011584E0180781F3C8010E949522CE
:10165000811101C0FA940F5F1F4FF110F2CF198270
:101660001A821B821C82DD24D39478018FEFE81A42
:10167000F80AC8010E94952289831A828823A9F258
:101680009FEF980F933078F48A83D9820E5F1F4FB3
:10169000C7010E9495228B83882339F2CE010196DF
:1016A0000E941E05E2CF8701F9CF0F931F93CF93BE
:1016B000DF93C42FD22FFC0182818823C9F040938D
:1016C000AC010E94631A9093AB018093AA0180E25F
:1016D0008C0F883008F050C0C77081E001C0880FBF
:1016E000CA95EAF7DF91CF911F910F910C94D90F12
:1016F0001091AC01141335C08091AA019091AB01F7
:101700000E947B1A883C910560F5C0E2CD0F1D1741
:10171000B9F080E2810F883040F4177081E001C099
:10172000880F1A95EAF70E94E00FC83048F481E06C
:101730009D2F977001C0880F9A95EAF70E94D90FE4
:10174000802F0E94D10FC830B8F4D77081E001C05B
:10175000880FDA95EAF7DF91CF911F910F910C94E2
:10176000E00F80E28C0F883038F4C77081E001C050
:10177000880FCA95EAF7EFCFDF91CF911F910F91B4
:1017800008950F939C01CB01233F4CE5340759F199
:10179000A8F4283DFCE53F0701F1293D4CE534075D
:1017A000D1F1273D3C4591F406E221EE41EE67ED93
:1017B0007CE50E94550B80E00F910895253FFCE5E4
:1017C0003F07E9F0B0F0263F3C45F9F0FC0182818B
:1017D000882339F11092AC01EFCF07E225EE45EEF8
:1017E00068ED7CE5E6CF06E221EE40EE63EF7CE5B6
:1017F000E0CF07E225EE44EE64EF7CE5DACF06E2C7
:1018000021EE42EE65EF7CE5D4CF07E225EE46EE11
:1018100066EF7CE5CECF08E221E045EE69ED7CE5A0
:10182000C8CF81E0C9CFCF93DF93EC01FB01828168
:10183000882309F419C1C230FCE5DF07C0F1C631C5
:101840009CE5D90730F09E012A5F3C4529303105DF
:1018500070F50E948D189093B0028093AF02C03152
:10186000ECE5DE0709F4CFC008F05BC0C8308CE5BA
:10187000D80709F4B6C088F5C430ECE5DE0709F4F2
:10188000A8C0C0F4C2308CE5D80709F49CC0809190
:10189000AF028260C330DC4509F498C08091AF028A
:1018A0009091B0020E949B180E94431280E0DF9149
:1018B000CF9108958091AF028061C630ECE5DE07DC
:1018C00009F484C08091AF028860C730DC4508F419
:1018D0007DC08091AF02806279C0CC308CE5D807A2
:1018E00009F489C070F48091AF028C60CA30ECE5D5
:1018F000DE0709F46BC008F478C08091AF028E7FD8
:1019000065C0CE308CE5D80709F479C08091AF026C
:101910008B7FCF30DC4508F459C08091AF028F7EB9
:1019200055C0CB3FECE5DE0709F457C030F5C331B5
:101930008CE5D80709F46FC078F4C131ECE5DE0717
:1019400009F465C0C231DC4509F0A8CF0E944312FA
:101950008091AF028F773AC0C5318CE5D80709F482
:1019600062C008F476C08091B0028160CA3FDC4555
:1019700009F094CF8093B00291CFCF3FFCE5DF0711
:1019800009F44DC088F48091B0028D7FCD3F9CE575
:10199000D90781F38091B0028E7FCE3FDC4550F3B2
:1019A0008091B0028360E6CFC130FDE5DF0709F426
:1019B00059C008F444C080E0C230DD4509F06ECF64
:1019C0000E9420196BCF8091AF0281608093AF029B
:1019D00065CF8091AF028460F9CF8091B0028260C0
:1019E000C9CF8091AF028064F1CF0E9443128091F1
:1019F000AF028068EBCF8091AF028D7FE7CF8091FF
:101A0000AF02877FE3CF8091AF028F7DDFCF8091E0
:101A1000AF028F7BDBCF8091AF02837FD7CF8091E6
:101A2000B0028C7FA7CF8091AF0282FB992790F9FB
:101A300021E0922790FB82F990FB83F9C7CF809138
:101A4000B002982F909591708E7F892B90FB81F931
:101A500091CF0E9443129091AF02892F97FB87F993
:101A60008058B4CF81E0ACCF81E021CFCF93DF931A
:101A7000EB0186319C4511F50E94C3179A81992389
:101A800099F08A7A91E009F490E09093AD01811188
:101A900009C089E20E949E170E940F1880E0DF9122
:101AA000CF91089585E3F6CF8091AD01811104C0F7
:101AB00089E20E94A517F0CF85E3FBCF81E0EFCF4D
:101AC0009093B3018093B2010895E091B201F09137
:101AD000B301309721F00190F081E02D099480E06E
:101AE0000895E091B201F091B301309799F02091FF
:101AF0000C01222359F02091AF0227FF07C0DC011F
:101B00002C9111962C93119725E02C930280F38150
:101B1000E02D099408952091B0013091B10128176A
:101B2000390771F09093B1018093B001E091B20157
:101B3000F091B301309721F00680F781E02D0994F0
:101B400008952091AE013091AF012817390771F047
:101B50009093AF018093AE01E091B201F091B30197
:101B6000309721F00084F185E02D099408950E94BA
:101B70006F1A6093C9017093CA018093CB0190934F
:101B8000CC016093C5017093C6018093C701909307
:101B9000C80108950E946F1A6093C9017093CA0129
:101BA0008093CB019093CC016093C1017093C201EB
:101BB0008093C3019093C401089585B7806885BF61
:101BC00085B7806885BF08950895089508950C9499
:101BD000E60D0E94DD0D82E798E10E94D21A0E9474
:101BE000E50D0C942C0381E008950C94F30D0895F9
:101BF00008950E945A1A0E944C070E94C0080E9431
:101C0000ED1A0E9426080C94E70DAF92BF92CF9276
:101C1000DF92EF92FF920F931F93CF93DF93CDB795
:101C2000DEB72A970FB6F894DEBF0FBECDBF0E9475
:101C3000F70D0E94F80D0E94710781110E94B70DE7
:101C400085EBA82E81E0B82E10E000E0C02E802F9A
:101C50000E942607E82EF501F1905F01F81609F4BD
:101C600051C080916F0281FD0E942C078F2D8E251F
:101C7000D12CFF24F394982F9F2109F43EC00E9499
:101C8000F50D882399F0DE82CF82EF2081E009F400
:101C900080E088870E94631A8160782F9A878987FD
:101CA0004E815F8168858A850E94AA0EF801EB54F7
:101CB000FE4F8081F826F0820E94350881110E9433
:101CC000CA0D0E94650D9091B401891791F10E948F
:101CD000650D8093B4012A960FB6F894DEBF0FBE4F
:101CE000CDBFDF91CF911F910F91FF90EF90DF90CB
:101CF000CF90BF90AF900C942605D394FF0CF8E0E2
:101D0000DF12B9CF0F5F1F4F0C30110509F09ECFC6
:101D10008FEF89838A831B820E94631A8160782FE8
:101D20009D838C8349815A816B818D810E94AA0E8B
:101D3000C3CF2A960FB6F894DEBF0FBECDBFDF919A
:101D4000CF911F910F91FF90EF90DF90CF90BF90B8
:101D5000AF900895DF92EF92FF920F931F93CF936E
:101D6000DF93CDB7DEB72B970FB6F894DEBF0FBE6B
:101D7000CDBF7A878B87F42E052F162FE72ED82E0E
:101D800061110E94E3171E821D827E2DEC82DD828E
:101D90004F2D502F612F8D2D9E812B960FB6F894CD
:101DA000DEBF0FBECDBFDF91CF911F910F91FF908E
:101DB000EF90DF900C94B914FC01808191810C9418
:101DC0007017CF93C82F882309F483C08238C1F4D9
:101DD0000E94650D81FD7DC089E30E949E170E94CF
:101DE0000F182FEF81EE94E0215080409040E1F7F2
:101DF00000C0000089E30E94A517CF910C940F1832
:101E00008338A1F40E94650D80FD63C083E50E94C4
:101E10009E170E940F182FEF81EE94E02150804012
:101E20009040E1F700C0000083E5E5CF8438A1F4DD
:101E30000E94650D82FD4DC087E40E949E170E949E
:101E40000F182FEF81EE94E0215080409040E1F791
:101E500000C0000087E4CFCF8CEF8C0F813A90F464
:101E60006C2F80910001909101010E943919882303
:101E700029F08C2F0E94A5170E940F188C2F0E940A
:101E80009E17BBCF80E28C0F883048F4C77081E08A
:101E900001C0880FCA95EAF70E94C617AECFEBE5DE
:101EA000EC0FE33040F4F0E0E057FE4F808190E02B
:101EB000CF910C948B0DC85AC73158F4EC2FF0E039
:101EC000EE0FFF1FEE59FE4F80819181CF910C9450
:101ED000A10DCF910895882309F44BC0823871F485
:101EE0000E94650D81FF45C089E30E949E170E94F4
:101EF0000F1889E30E94A5170C940F18833859F422
:101F00000E94650D80FF35C083E50E949E170E94E8
:101F10000F1883E5EFCF843859F40E94650D82FFD6
:101F200028C087E40E949E170E940F1887E4E2CF22
:101F30009CEF980F913AF0F290E2980F983050F49D
:101F4000877091E001C0990F8A95EAF7892F0E9466
:101F5000CC17D2CF9BE5980F933020F490E080E02F
:101F60000C948B0D885A873120F490E080E00C941B
:101F7000A10D08951F93CF93DF93182FEB010E94BB
:101F8000E10E209731F4812FDF91CF911F910C94B6
:101F90006B0F8FE99FE00197F1F700C000002197D8
:101FA000F0CF70E060E0893311F460E570E00C94EC
:101FB000BA0F882321F00E94C6170C940F180895B9
:101FC000882321F00E94CC170C940F180895BF921B
:101FD000CF92DF92EF92FF920F931F93CF93DF93F5
:101FE0006C01D62FC72FFC011281058102950F705D
:101FF0000E94BC17E82E8823A1F0E12E112389F05E
:102000008C2F807F803429F080E28D0FE12C883086
:1020100040F082E00E945A180E94BC1791E0E82E1E
:10202000E926BC2EB2949FE0B922EB2DF0E0E451FA
:10203000FD4D0C9474220C2F0F70C07F11F002958F
:10204000007F1123A9F0002359F080E28D0F883022
:1020500010F0D11109C0802F0E94C6170E940F18DE
:102060008D2F0E94E10E14C0802F0E94D617F6CF4C
:102070008D2F0E946B0F002359F080E28D0F883066
:1020800010F0D1112CC0802F0E94CC170E940F1885
:102090002B2D2850330B2430310520F40E94650D80
:1020A0000E942605EE2009F493C10E94B81780FD16
:1020B0008FC1F60112820E94B2170E943D16C6011E
:1020C0000E9409120E94B217DF91CF911F910F91C8
:1020D000FF90EF90DF90CF90BF900C945E16802F12
:1020E0000E94DC17D3CFFC2FFF70FF2EC07FC032C1
:1020F00019F0F29480EFF822DD2369F0D13049F134
:10210000112391F1002351F1F601858180FFA8CFC1
:102110008F70858323C0112381F0011106C00E94B6
:10212000F6178F290E94D90FB3CF0130C1F70E9453
:10213000F6178F290E94FC17ABCF011106C00E9431
:1021400005188F2D0E94E00FA3CF013009F4A0CF16
:10215000F6CF112329F0063008F09ACF8F2DE2CF69
:10216000053008F095CFEDCF002359F3D93349F46A
:10217000FFEF27EE33E0F15020403040E1F700C0A0
:1021800000008D2F0E946B0F83CF8C2F8695869534
:10219000837069F0813009F07BCF8D2F9C2F937075
:1021A000111102C090E080E00E94A10D71CF8D2F2F
:1021B0009C2F9370111102C090E080E00E948B0D63
:1021C00067CF8C2F837009F041C0111161CF4D2F63
:1021D000429546954770440F440F0D2F0F7010E045
:1021E00030E020E0042E04C0000F111F221F331F17
:1021F0000A94D2F760E070E0CB01D4FF0FC06FE02B
:1022000070E080E090E004C0660F771F881F991F80
:102210004A95D2F76095709580959095C695C6952C
:10222000C370602B712B822B932BC23049F058F472
:10223000C13019F00E94EF152BCF0E94DD1528CF79
:102240000E94011625CF0E94DB1522CF869511230F
:1022500011F08C2F8170882309F41ACF4D2F4295ED
:1022600046954770440F440F0D2F0F7010E030E07B
:1022700020E0042E04C0000F111F221F331F0A94F8
:10228000D2F760E070E0CB01D4FF0FC06FE070E0E8
:1022900080E090E004C0660F771F881F991F4A9561
:1022A000D2F76095709580959095C695C695C37048
:1022B000602B712B822B932BC23049F058F4C13024
:1022C00019F00E94B416E4CE0E94A216E1CE0E943C
:1022D000C616DECE0E941716DBCECF70112329F072
:1022E0008C2F0E943D168D2F1DCF8D2F0E94E00F49
:1022F0008C2F0E945E16CCCED23F89F160F4D03F85
:10230000C9F0D13F29F1112309F442C00111A8CE2F
:102310008C2F8F7121C0D33F39F1D43FA1F7112306
:1023200069F1CF718C2F0E943D1663E08C2F0E94C3
:102330004518AECE112341F0053008F0A9CE8C2F00
:102340008F710E948116A4CE063008F0A1CEF7CF7F
:102350008C2F8F71112369F20E943D1699CE8C2F1C
:102360008F711123C9F3C5CF112329F08C2F8F71E1
:102370000E9428168DCE0E9423168ACE81E00E94EC
:102380005A18023008F484CE82E00E945A1880CE97
:10239000002359F0D93309F0F4CE8FEF97EEE3E044
:1023A00081509040E040E1F7EACE8C2F8F71A1CFB1
:1023B0004C2F4F706D2FC6010E942E050E945315A1
:1023C00067CE4C2F4F706D2FC6010E94310560CE35
:1023D000DF91CF911F910F91FF90EF90DF90CF9001
:1023E000BF9008950F931F93CF93DF93EC01688103
:1023F00079818A810E947A178C010E94D8160E94E6
:10240000DA15B801CE01DF91CF911F910F910C9495
:10241000E70FCF93DF93EC018B819C81892B29F00F
:102420008881998189238F3F59F4DF91CF91089555
:10243000CE010E94F211CE01DF91CF910C94810365
:10244000CE010E940E048111F3CF0E94BC17882395
:1024500061F38A81882349F382E0DF91CF910C9464
:102460005A1890E080E00E948B0D90E080E00E947E
:10247000A10D0E94E3170E94F3170C940F180E94FD
:10248000AC170C9431120E94D3170C943F12E92F11
:10249000E295EF70E250EE3070F4F0E0E450FD4D64
:1024A0000C947422803F19F020F4883E20F481E0DF
:1024B0000895843FE1F380E00895883EC0F3813FB2
:1024C000D1F7F5CF93FB882780F908950E94701704
:1024D0000C944712CF93DF9300D000D00F92CDB76A
:1024E000DEB70F900F900F900F900F90DF91CF916C
:1024F0000895CF93DF9300D000D000D0CDB7DEB7E2
:1025000026960FB6F894DEBF0FBECDBFDF91CF91F8
:1025100008951F93CF93DF93C091CE0116E0809171
:10252000CF018C1304C0DF91CF911F910895D0E0AB
:102530001C9FF0011D9FF00D1124E053FE4F4081C0
:10254000518162817381848195810E9479122196E3
:10255000C770E5CF409100025091010260910202E4
:102560007091030280910402909105020C947912FB
:102570001F93CF93DF9380910502807FA9F4809110
:102580000202882389F08091CE01C091CF01609131
:10259000000270910102A0910302B0910402D62FB3
:1025A000D72316E0C81304C0DF91CF911F9108957F
:1025B00090E0109711F0DF3F19F401968770F2CF89
:1025C000189F9001199F300D1124F901E053FE4F1F
:1025D00041814713F2CF40814613EFCF4281411131
:1025E000ECCF438154814A1B5B0B483C510528F7D3
:1025F000809105028F70806180930502F901EB5292
:10260000FE4F80818F708061808380E092E00E9425
:102610000912DF91CF911F910C948912AF92BF9252
:10262000CF92DF92EF92FF920F931F93CF93DF939E
:10263000CDB7DEB761970FB6F894DEBF0FBECDBF42
:102640008C0185E0F801DE011D9601900D928A95BE
:10265000E1F7F80140815181E28080E0C82E82E0FC
:10266000D82E60910302709104026115710509F47E
:1026700061C19091000220910102892F82238F3F36
:1026800009F458C1A380B480F0900202F501E61B62
:10269000F70BFF2009F4FCC080910502382F307F32
:1026A000E83CF10508F0B2C0311179C0FE2C2513C9
:1026B00023C0941321C0E1101FC08F7080618093EC
:1026C00005020E94AA12C6010E9409128091050209
:1026D000F80185838F2D61960FB6F894DEBF0FBE8B
:1026E000CDBFDF91CF911F910F91FF90EF90DF90C1
:1026F000CF90BF90AF900895AB2829F0842F852309
:102700008F3F09F033C180E0F82FF170DF2E80FF9A
:102710003CC08091CE012091CF0136E0821315C0DC
:102720004D875E878D859E850E947017292F229583
:102730002F702230F0F0243018F59F70F1F0F8017E
:102740009581907FD1F4D12C1EC090E0389FF0018C
:10275000399FF00D1124E053FE4F6181651306C0CF
:102760006081641303C062816E110FC0019687708F
:10277000D5CF9F7011F0882331F3805E883018F335
:10278000C8010E940912FD2CA5CFEE2009F4A2CFAA
:1027900080910502816080930502F12C9BCF251367
:1027A00006C0941304C0F801EE2009F48DC04D87D3
:1027B0005E878D859E850E946612882319F1EE2022
:1027C00009F180910502803270F020910002309171
:1027D000010238872F831986BB86AA868C87CE0193
:1027E00007960E94091286E0F801A0E0B2E001908D
:1027F0000D928A95E1F70E94B8120E94AA12FF2456
:10280000F39468CFC8010E940912F9CF311113C0A7
:102810007A2DB98AA88A6E2D89890E946A1280E071
:1028200092E00E94091286E0F60111928A95E9F77A
:102830000E94AA12B2CF25130FC094130DC0E1104D
:102840000BC0F8018583C8010E94091286E0F601D9
:1028500011928A95E9F73ECF4D875E878D859E85DB
:102860000E946612882371F2EE2061F280910502C7
:10287000803208F4B8CF20910002309101023A83EF
:1028800029831B82BD82AC828E83CE010196A9CFA3
:10289000E83CF10508F041C0FE2CEE2009F4B2CF6F
:1028A00025132AC0941328C08091050280FD1BC007
:1028B000982F907FC1F0F8018583903F31F0982FD9
:1028C000907F905F8F70892B8583C8010E940912C9
:1028D00086E0F801A0E0B2E001900D928A95E1F760
:1028E0000E94AA12F7CE86E0F801A0E0B2E00190C3
:1028F0000D928A95E1F7EECE4D875E878D859E8598
:102900000E94661281116FCF8091050281608093D1
:102910000502C8010E940912DDCE7A2DB98AA88A63
:102920006E2D89890E946A1286E0F60111928A95BD
:10293000E9F7D6CFEE2009F465CF4D875E878D8508
:102940009E850E946612F82E882309F45BCF86E0EC
:10295000F801A0E0B2E001900D928A95E1F780E0E5
:1029600092E00E94DC0E0E94B812BACF81E08E2560
:10297000CBCE1F93CF93DF93CDB7DEB72C970FB697
:10298000F894DEBF0FBECDBF4F83588769877A8723
:102990008B879C87CE0107960E940E13882369F0CF
:1029A0008A859B85892B39F04F815885842F852313
:1029B0008F3F09F071C016E05FC086E0FE013796D8
:1029C000DE01119601900D928A95E1F78A859B852B
:1029D000892B89F38F81988589238F3F61F320911B
:1029E000CF0130E0C9010196877099274091CE014F
:1029F0004817190671F40E9443121092CF011092E9
:102A0000CE0186E0E0E0F2E0DF011D928A95E9F771
:102A1000D2CF96E0929FD001939FB00D1124A05386
:102A2000BE4FFE01319601900D929A95E1F7809389
:102A3000CF010E948912BFCF819FC0011124805312
:102A40009E4F0E940E138823E9F0E091CE011E9F55
:102A5000F0011124E053FE4F408151816281738166
:102A6000848195810E9479128091CE0190E0019637
:102A7000877099278093CE018091CE019091CF01EC
:102A80008913DACF2C960FB6F894DEBF0FBECDBFF8
:102A9000DF91CF911F91089569857A858B859C85FB
:102AA0000E94791288CFEF92FF920F931F93CF93DA
:102AB000DF938C01892B81F0F12CEE24E394E80163
:102AC0002196F8018491843770F4843008F05FC057
:102AD0008130B1F08230A1F1DF91CF911F910F9140
:102AE000FF90EF900895853709F44CC008F43DC07D
:102AF0009CE7980F903780F78F770E946B0F49C043
:102B00000E5F1F4FFE01849190E2980F983060F4A1
:102B10008770FE2D01C0FF0F8A95EAF78F2F0E9464
:102B2000E6170E940F1802C00E94E10E8F2D8150FF
:102B300030F2EFE9FFE03197F1F700C00000F7CF86
:102B40000E5F1F4FFE01849190E2980F983050F471
:102B50008770FE2D01C0FF0F8A95EAF78F2F0E9424
:102B6000EC17DFCF0E946B0FE1CF0E5F1F4FFE010E
:102B7000C491C150D8F28FE99FE00197F1F700C0EE
:102B80000000F7CF0E5F1F4FFE01F490CFCF0E94E1
:102B9000E10E8E01CBCF08950C94CB150E94CC157D
:102BA00060934602709347028093480290934902D3
:102BB0000C94311208950C94CE150F931F9300912D
:102BC0004602109147022091480230914902602B41
:102BD000712B822B932B1F910F910C94CE150F9379
:102BE0001F930091460210914702209148023091B4
:102BF000490260237123822393231F910F910C9428
:102C0000CE150F931F930091460210914702209119
:102C100048023091490260277127822793271F912C
:102C20000F910C94CE150C94CB150C9413160E9496
:102C3000151660934202709343028093440290936E
:102C400045020C94311260E070E0CB010C94171631
:102C50000F931F9341E050E060E070E08A019B0118
:102C600004C0000F111F221F331F8A95D2F7C9011C
:102C7000B8011F910F910C9417160F931F9341E009
:102C800050E060E070E004C0440F551F661F771FDE
:102C90008A95D2F78091420290914302A09144021A
:102CA000B09145028A019B01082B192B2A2B3B2B43
:102CB000C901B8011F910F910C9417160F931F9320
:102CC00041E050E060E070E004C0440F551F661F13
:102CD000771F8A95D2F7CB01BA01609570958095E0
:102CE000909500914202109143022091440230914C
:102CF000450260237123822393231F910F910C942B
:102D000017160F931F9341E050E060E070E004C09D
:102D1000440F551F661F771F8A95D2F78091420294
:102D200090914302A0914402B09145028A019B0117
:102D3000082719272A273B27C901B8011F910F919E
:102D40000C9417160F931F930091420210914302A7
:102D50002091440230914502602B712B822B932BE2
:102D60001F910F910C9417160F931F93009142021D
:102D70001091430220914402309145026023712357
:102D8000822393231F910F910C9417160F931F9377
:102D90000091420210914302209144023091450279
:102DA00060277127822793271F910F910C94171684
:102DB0000895990F990F990F890F982F977041E0F7
:102DC00001C0440F9A95EAF786958695869595E019
:102DD000899FF0011124EA5FFD4F30E020E070E0B0
:102DE0005191DF011197CB01022E02C09695879574
:102DF0000A94E2F7817081958527842385278C9337
:102E00002F5F3F4F2530310559F70895990F990FDE
:102E1000990F890F982F977086958695869525E04E
:102E2000829FF0011124EA5FFD4F50E040E080E016
:102E3000219130E0092E02C0369527950A94E2F7D9
:102E400021703327042E01C0220F0A94EAF7822B47
:102E50004F5F5F4F4530510559F70895BF92CF92AC
:102E6000DF92EF92FF920F931F93CF93DF938C012A
:102E7000C0904202D0904302E0904402F09045029C
:102E80008091460290914702A0914802B091490278
:102E9000C82AD92AEA2AFB2ACFE1D0E0BC2ED701E2
:102EA000C6010C2E04C0B695A795979587950A94F0
:102EB000D2F780FD0EC0219788F7B12C8B2DDF91C2
:102EC000CF911F910F91FF90EF90DF90CF90BF9027
:102ED0000895B8018C2F0E943A05019761F3EECF57
:102EE000CF93DF93EC010E942E17BE01DF91CF91AB
:102EF0000C943A051F93CF93DF93EB019091CD0192
:102F0000992331F0CB01DF91CF911F910C94701771
:102F1000882379F0CB010E942E17182F682FCE013D
:102F20000E94D916BE01812FDF91CF911F910C9481
:102F30003A05CB010E940617182FF4CF682F809115
:102F40000001909101010C94B919682F8091000142
:102F5000909101010C94C41980910001909101019C
:102F60000C94CF1980914A02859585958595089591
:102F700080914A028770089590914A02977081E08B
:102F800009F480E0089580916E02089590916E0298
:102F9000892B80936E020895809590916E029823FC
:102FA00090936E02089510926E02089590916D02B2
:102FB000892B80936D020895809590916D029823DE
:102FC00090936D02089510926D02089590916C0295
:102FD000892B80936C020895809590916C029823C0
:102FE00090936C02089510926C02089580914B02A8
:102FF000089508950C94F91790914B02981721F0B9
:1030000080934B020C94FA17089580914B02882309
:1030100029F010924B0280E00C94FA170895E09189
:103020000001F091010180916E028083E091000126
:10303000F0910101808190916D02892B8083E09154
:103040000001F0910101808190916C02892B8083B5
:1030500090914B02992381F0E0910001F0910101E0
:103060008081892B808380910001909101010E94D1
:10307000251981110E94051880910001909101018C
:103080000C94710D08950C94421898E0899F90015A
:103090001124622B60934A020E943D1680914A02DD
:1030A0008595859585950C94431810924A0280E089
:1030B0000C94431890914A028095892380934A0288
:1030C000282F277071F4282F082E000C330B92172D
:1030D000130639F08595859585950E945E160C94AA
:1030E0005518089580E008956FEF7FEF90E080E03D
:1030F0000C94C12290E080E00E949D2221E08B3E52
:103100009E4F09F020E0822F089582E090E00C9419
:10311000952283E090E00C949522CF9384E090E098
:103120000E949522C82F81E290E00E949522982F5C
:103130008C2FCF910895CF93C92F682F84E090E012
:103140000E94A3226C2F81E290E0CF910C94A322E5
:10315000AB01BC018FE090E00C94B522AB01BC0147
:1031600083E190E00C94B52260E070E0CB010C9418
:10317000AE1860E070E0CB010E94A8180C94B4185F
:103180006BEE7EEF90E080E00E94C12260E082E082
:1031900090E00E94A32260E083E090E00E94A322DE
:1031A0001092460210924702109248021092490271
:1031B00060E084E090E00E94A32260E081E290E081
:1031C0000E94A32260E085E090E00E94A32260E0DC
:1031D00086E090E00E94A3226FEF87E090E00E94DB
:1031E000A32240E050E0BA0188E090E00E94B522BE
:1031F00060E08DE090E00E94A32240E050E0BA0140
:1032000088E190E00E94B52260E087E190E00E94B2
:10321000A32240E050E0BA018CE190E00E94B52288
:1032200060E080E290E00E94A32240E050E0BA011A
:1032300088E190E00E94B5220C94B9180C94C01853
:10324000682F8EE090E00C94A322FC0132968091CE
:103250000C01882321F08091AF029EE187FF96E068
:1032600080E0915008F4089521912223D1F38F5FDB
:10327000F8CF662301F120910C012223F1F0209177
:10328000AF0227FF1AC0462F4695469546954E3108
:1032900090F4677021E030E002C0220F331F6A957E
:1032A000E2F7840F911DFC01828190E028233923ED
:1032B00081E0232B69F480E00895FC0132960896A2
:1032C0002191261721F0E817F907D1F7F4CF81E013
:1032D00008959C01FC0132969FEF80E041914617D2
:1032E00051F09F3F19F4411101C0982F8F5F863034
:1032F000A9F79F3F09F40895290F311D97FD3A95CD
:10330000F90162830895FC013296089621912613F3
:1033100003C0DF0111971C92E817F907B9F7089568
:10332000E62FE695E695E695EE3168F4E80FF92F7D
:10333000F11D677021E030E001C0220F6A95EAF7C5
:103340008281822B82830895E62FE695E695E695A5
:10335000EE3170F4E80FF92FF11D677021E030E0D5
:1033600001C0220F6A95EAF72095828128232283E3
:10337000089520910C01222329F02091AF0227FD0E
:103380000C9490190C94691920910C01222329F0B6
:103390002091AF0227FD0C94A4190C948319FC0111
:1033A000329680910C01882351F08091AF0287FF03
:1033B00006C08EE1DF011D928A95E9F7089586E047
:1033C000F9CF089508950C94E2198091B5028430E4
:1033D00049F10E94E31980E00E94260510927002D4
:1033E00088E190E020E40FB6F894A89580936000FF
:1033F0000FBE2093600083B7817F846083BF83B753
:10340000816083BF7894889583B78E7F83BF0FB622
:10341000F894A89580916000886180936000109274
:1034200060000FBE08950895CF930E94E1190E9495
:1034300071070E94131AC0E08C2F0E942607811189
:1034400005C0CF5FCC30C1F7CF91089581E0FCCFAC
:1034500008950C94281A0E9443120E94650D0E9440
:1034600026050C94291A1F921FB61F9211248F93C0
:103470009F93AF93BF9380917002811113C080918D
:10348000AB029091AC02A091AD02B091AE02419618
:10349000A11DB11D8093AB029093AC02A093AD022D
:1034A000B093AE02BF91AF919F918F911F901FBEBD
:1034B0001F90189582E084BD93E095BD9AEF97BD6B
:1034C00080936E0008952FB7F8948091AB0290918D
:1034D000AC02A091AD02B091AE022FBF08952FB7FC
:1034E000F8946091AB027091AC028091AD02909122
:1034F000AE022FBF08959C014FB7F8948091AB02A4
:103500009091AC02A091AD02B091AE024FBF821B70
:10351000930B089578941F921FB61F9211248F93D6
:103520009F93AF93BF938091AB029091AC02A09117
:10353000AD02B091AE020196A11DB11D8093AB0208
:103540009093AC02A093AD02B093AE02BF91AF9145
:103550009F918F911F901FBE1F90189581E08093BF
:10356000E00080E28093D8001092C9008FE19EE4D1
:103570000197F1F700C0000087E090EBDC01809339
:10358000BE029093BF02A093C002B093C10288E133
:103590009CE00FB6F894A895809360000FBE9093BE
:1035A0006000FFCF9093A3018093A20108950C9433
:1035B000AD080E9471078FE39CE90197F1F700C005
:1035C00000000E94710781E00E94260780FF04C06E
:1035D0000E94D71A0C94AE1A08950E947A1881118D
:1035E00002C00E941E190E94851880936F020E94DB
:1035F0008D189093B0028093AF020E948918682FB3
:1036000070E090E080E00E94DB15609142027091D2
:10361000430280914402909145020C9415168091CA
:10362000910208950895CF93DF9300D00F92CDB704
:10363000DEB79091B502943011F589837B836A835C
:103640009093E9008FEF9091E800815095FD06C0BE
:1036500095ED9A95F1F700008111F5CF8091E80082
:1036600085FF0DC050E040E063E070E0CE010196C0
:103670000E94801D8091E8008E778093E8000F9073
:103680000F900F90DF91CF910895BC0184E00C94CE
:10369000131BBC0183E00C94131BCF93DF93EC014D
:1036A00080910C018823B1F18091AF0287FF32C075
:1036B00060E284E08093E9008FEF9091E800815010
:1036C00095FD06C095ED9A95F1F700008111F5CFB3
:1036D0008091E80085FF1BC080910C0170E050E0F4
:1036E00040E0811104C050E040E068E070E0CE01AD
:1036F0000E94801D8091E8008E778093E80080E230
:10370000FE01A1E7B2E001900D928A95E1F7DF9109
:10371000CF91089568E081E0CDCFCF93FC01603276
:1037200021F58091B502843001F5C091E900CF7098
:103730002091EC00922F917020FD90E8C92B82E03F
:103740008093E9008091E80080FF0CC050E040E0E9
:1037500060E270E0CF010E94801D8091E8008E77CA
:103760008093E800CF70C093E900CF9108958091D5
:10377000B402811109C00E945F1F0E94BC1F80918A
:10378000E20084608093E20008951092B4020895EC
:1037900008950895089542E061EC81E00E94DB1EE7
:1037A00042E261EC84E00E94DB1E42E261EC82E0D6
:1037B0000E94DB1E42E260EC83E00C94DB1E8091F1
:1037C000B702833009F461C030F48130D1F1823026
:1037D00009F49DC008958A3009F489C08B3009F43A
:1037E0006FC0893009F050C08091B602813209F073
:1037F0004BC08091BA029091BB02009719F00297DA
:1038000009F042C08091E800877F8093E8008091B2
:10381000E80082FF35C09091F3008091F20002979A
:1038200029F48091F1008B7F813021F48091F100A7
:10383000809391028091E8008B778093E8000C944C
:103840000F1F8091B602813AF9F48091E800877FDA
:103850008093E8008091BA029091BB02892B61F4B9
:1038600060E281E792E070E00E941E1E8091E80015
:103870008B778093E800089560E090E080E0F3CFDC
:103880008091B5028111C3CF08958091B602813A2B
:10389000D9F78091BA029091BB02892BA9F7809148
:1038A000E800877F8093E8008091E80080FFFCCFEC
:1038B00080910C018093F1008091E8008E77BDCF5C
:1038C0008091B602813201F78091BA029091BB02D9
:1038D000892BD1F68091E800877F8093E8000E94D1
:1038E0000F1F8091B80280930C010C9443128091B9
:1038F000B602813249F68091E800877F8093E80024
:103900000E940F1F8091B9028093920208958091C6
:10391000B602813A09F0B8CF8091E800877F8093A2
:10392000E8008091E80080FFFCCF80919202C2CF36
:10393000CDB7DEB7A0970FB6F894DEBF0FBECDBFF0
:1039400084B7877F84BF0FB6F894A89580916000F4
:10395000886180936000109260000FBE80E890E064
:103960000FB6F89480936100909361000FBE0E949F
:10397000E90D0E945F1F0E94BC1F8091E2008460DD
:103980008093E20078940E9445220E94F90D82E023
:1039900091E00E94600D13E08091B5028530C9F07E
:1039A0000E94050E8091B5028430D1F00E94F70D7F
:1039B0000E94F80DF1CF0E94E5198091B30288238F
:1039C00041F00E94141A882321F00E946A1D0E946F
:1039D00043128091B502853071F30E942B1AE0CF1B
:1039E0001093E9008091E80082FFE0CF8091E80029
:1039F00090E085FF09C050E040E060E270E0CE0159
:103A000001960E94CF1D91E08091E8008B77809312
:103A1000E800992359F260E2CE0101960E940F0955
:103A2000C5CF0C94131D292F33272330310521F1E5
:103A300068F42130310509F443C02230310509F41E
:103A400044C090E080E030E020E026C02132310523
:103A500051F122323105A9F76330710590F7FB016E
:103A6000EE0FFF1FEA56FE4F208131816D567E4FCB
:103A7000FB01808190E010C099278130910581F091
:103A8000009729F00297E9F6ECE5F4E002C0E6E8D9
:103A9000F4E0849190E09F01FA013183208308953E
:103AA000ECE6F4E0F6CF6330710558F6660F771F49
:103AB000FB01E456FE4F2081318189E090E0ECCF9C
:103AC00082E190E025EE34E0E7CF8BE590E02AE854
:103AD00034E0E2CF80E189BD82E189BD09B400FE16
:103AE000FDCF8091D8008F7D8093D8008091E00039
:103AF00082608093E0008091E00081FDFCCF08951A
:103B0000AF92BF92CF92DF92FF920F931F93CF930A
:103B1000DF936C01EB018A010E942E1FF82E8111A8
:103B200023C00115110539F0F80180819181C81B6E
:103B3000D90BC80ED91EB12CA12C2097A9F08091C9
:103B4000E80085FD22C08091E8008E778093E80030
:103B500001151105A1F0F80180819181A80EB91E0F
:103B6000B182A08285E0F82E8F2DDF91CF911F9139
:103B70000F91FF90DF90CF90BF90AF9008950E947B
:103B80002E1F8823D1F2F82EEFCFF60181916F011D
:103B90008093F1002197FFEFAF1ABF0ACECFAF920B
:103BA000BF92CF92DF92FF920F931F93CF93DF9339
:103BB0006C01EB018A010E942E1FF82E811123C097
:103BC0000115110539F0F80180819181C81BD90BCD
:103BD000C80ED91EB12CA12C2097A9F08091E80025
:103BE00085FD22C08091E8008B778093E800011565
:103BF0001105A1F0F80180819181A80EB91EB18252
:103C0000A08285E0F82E8F2DDF91CF911F910F912B
:103C1000FF90DF90CF90BF90AF9008950E942E1F2D
:103C20008823D1F2F82EEFCF8091F100F601819335
:103C30006F012197FFEFAF1ABF0ACECFFC01809131
:103C4000BC029091BD0286179707A0F0611571051F
:103C500029F49091E8009E779093E80090E0611538
:103C6000710551F4911108C08091E80082FF34C0C1
:103C700080E00895BC01F2CF8091B5028823C1F1A4
:103C80008530C1F18091E80083FD30C08091E8006B
:103C900082FDEACF8091E80080FFE1CF8091F300C0
:103CA0002091F200382F6115710519F02830310587
:103CB00058F091E02830310509F090E02091E800BB
:103CC0002E772093E800CBCF81918093F100615053
:103CD00071092F5F3F4FE7CF8091B502882341F0F4
:103CE000853041F08091E80083FFBECF81E00895E8
:103CF00082E0089583E00895FC018091BC029091D8
:103D0000BD0286179707A0F06115710529F480910F
:103D1000E8008E778093E80090E06115710551F41A
:103D2000911108C08091E80082FF35C080E00895BD
:103D3000BC01F2CF8091B5028823C9F18530C9F169
:103D40008091E80083FD31C08091E80082FDEACFD8
:103D50008091E80080FFE1CF8091F3002091F20094
:103D6000382F6115710519F02830310558F091E0B0
:103D70002830310509F090E08091E8008E7780933B
:103D8000E800CBCF84918093F100319661507109A6
:103D90002F5F3F4FE6CF8091B502882341F08530F9
:103DA00041F08091E80083FFBDCF81E0089582E07B
:103DB000089583E00895982F973028F08F708093AE
:103DC000E90081E008959093E900242F762F50E0D8
:103DD000981731F07091EC002091ED005091F000B7
:103DE00021FD02C09F5FE8CF3091EB003E7F309312
:103DF000EB003091ED003D7F3093ED003091EB0012
:103E000031603093EB007093EC002093ED00509301
:103E1000F0002091EE0027FDE5CF80E0089580912D
:103E2000B60287FF13C08091E80082FF06C0809130
:103E3000E8008B778093E80004C08091B50281117F
:103E4000F2CF08958091B5028823D9F38091E800DC
:103E500080FFF8CF8091E8008E77ECCF2091E400CE
:103E60003091E50095E6A9012091EC00822F817048
:103E700020FF06C08091E80080FF06C080E0089522
:103E80002091E80022FD1AC08091B502882389F0B4
:103E9000853089F08091EB0085FD0FC02091E40012
:103EA0003091E50042175307F9F29150E1F684E0B2
:103EB000089582E0089583E0089581E008950E94C6
:103EC000CD1F0E94D51FE0EEF0E0808181608083ED
:103ED000E8EDF0E080818F77808319BCA7EDB0E03A
:103EE0008C918E7F8C9380818F7E80831092B40220
:103EF00008950F931F93CF93DF930E94CD1F0E94CD
:103F0000D51FC8EDD0E088818F778883888180684D
:103F1000888388818F7D888319BC1092B5021092A6
:103F2000B1021092B3021092B20200EE10E0F8015A
:103F300080818B7F808388818160888342E060E01C
:103F400080E00E94DB1EE1EEF0E080818E7F8083C6
:103F5000E2EEF0E0808181608083808188608083F0
:103F6000F80180818E7F8083888180618883DF91E2
:103F7000CF911F910F910895E8EDF0E080818F7E41
:103F80008083E7EDF0E080818160808384E082BF00
:103F900081E08093B4020C94791FE8EDF0E0808119
:103FA0008E7F80831092E20008951092DA001092C2
:103FB000E10008951F920F920FB60F9211242F93D4
:103FC0003F934F935F936F937F938F939F93AF93A1
:103FD000BF93EF93FF938091E10082FF0BC080912C
:103FE000E20082FF07C08091E1008B7F8093E100B7
:103FF0000E9444228091DA0080FF19C08091D8008D
:1040000080FF15C08091DA008E7F8093DA00809166
:10401000D90080FF96C080E189BD82E189BD09B4E5
:1040200000FEFDCF81E08093B5020E94B71B809116
:10403000E10080FF19C08091E20080FF15C08091EF
:10404000E2008E7F8093E2008091E20080618093A5
:10405000E2008091D80080628093D80019BC85E08E
:104060008093B5020E94C91B8091E10084FF2BC0A0
:104070008091E20084FF27C080E189BD82E189BD93
:1040800089B5982F917080FFFBCF8091D8008F7DEC
:104090008093D8008091E1008F7E8093E100809131
:1040A000E2008F7E8093E2008091E2008160809345
:1040B000E2008091B102882309F449C084E0809332
:1040C000B5020E94CA1B8091E10083FF29C0809144
:1040D000E20083FF25C08091E100877F8093E100AB
:1040E00082E08093B5021092B1028091E1008E7F50
:1040F0008093E1008091E2008E7F8093E2008091C6
:10410000E20080618093E20042E060E080E00E9493
:10411000DB1E8091F00088608093F0000E94C81B35
:10412000FF91EF91BF91AF919F918F917F916F918F
:104130005F914F913F912F910F900FBE0F901F9065
:10414000189519BC1092B5020E94C51B70CF8091C2
:10415000E30087FD93E09093B502B3CF1F920F92D7
:104160000FB60F9211242F933F934F935F936F934A
:104170007F938F939F93AF93BF93CF93DF93EF93EF
:10418000FF93D091E900DF708091EC00C82FC170DF
:1041900080FDC0E81092E9008091F000877F809355
:1041A000F00078940E94F2201092E9008091F000D3
:1041B00088608093F000CD2BCF70C093E900FF9111
:1041C000EF91DF91CF91BF91AF919F918F917F91AF
:1041D0006F915F914F913F912F910F900FBE0F9074
:1041E0001F9018951F93CF93DF93CDB7DEB7AA9793
:1041F0000FB6F894DEBF0FBECDBF86EB92E02091E4
:10420000F100FC012193CF01F2E08E3B9F07B9F74B
:104210000E94DF1B8091E80083FF1EC18091B602DF
:104220009091B7029A3008F017C1E92FF0E0E65FED
:10423000FC4D0C947422803899F0823809F00CC13E
:104240008091BA028F70873008F006C18093E90030
:104250008091EB0085FB882780F91092E90006C069
:104260008091B2029091B302911182609091E80026
:10427000977F9093E8008093F1001092F100809175
:10428000E8008E77E5C0882309F4D3C0823009F0B6
:10429000E3C08091B8028111D6C08091BA028F70BC
:1042A0002FEF280F263008F0D7C08093E900209127
:1042B000EB0020FFC8C0933031F48091EB008062A6
:1042C0008093EB00C0C09091EB0090619093EB0065
:1042D00021E030E001C0220F8A95EAF72093EA003E
:1042E0001092EA008091EB008860EACF8111B4C09F
:1042F0001091B8021F778091E3008078812B809322
:10430000E3008091E800877F8093E8000E940F1F00
:104310008091E80080FFFCCF8091E300806880936B
:10432000E30082E0111183E08093B50295C08058CC
:10433000823008F091C08091B8029091B9028C3D12
:1043400023E09207A1F583E08A838AE289834FB74D
:10435000F894DE01139620E03EE051E2E32FF0E016
:1043600050935700E49120FF03C0E295EF703F5F48
:10437000EF708E2F90E0EA30C0F0C7968D939D933A
:104380002F5F243159F74FBF8091E800877F8093DA
:10439000E8006AE270E0CE0101960E941E1E809144
:1043A000E8008B778093E80057C0C096E7CF609114
:1043B000BA027091BB02AE014F5F5F4F0E94111DA8
:1043C000BC01892B09F448C09091E800977F909335
:1043D000E80089819A810E947C1EE1CF8038E1F556
:1043E0008091E800877F8093E8008091B1028093FC
:1043F000F10045CF811130C09091B802923060F544
:104400008091E800877F8093E8009093B1020E943A
:104410000F1F8091B102882311F084E005C08091C4
:10442000E30087FDFACF81E08093B5020E94CB1BA9
:1044300013C08091B802813079F481E0933009F0A3
:1044400080E08093B3021092E9008091E800877FBA
:104450008093E8000E940F1F8091E80083FF0AC04C
:104460008091E800877F8093E8008091EB00806274
:104470008093EB00AA960FB6F894DEBF0FBECDBFB7
:10448000DF91CF911F9108950895CF938091B50248
:104490008823A1F0C091E900CF709091EC00892FA2
:1044A000817090FD80E8C82B1092E9008091E800AF
:1044B00083FD0E94F220CF70C093E900CF91089550
:1044C00097FB072E16F4009407D077FD09D00E94C1
:1044D000812207FC05D03EF4909581959F4F089569
:1044E000709561957F4F0895EE0FFF1F0590F49131
:1044F000E02D099469279627692778278727782749
:104500000895AA1BBB1B51E107C0AA1FBB1FA6171A
:10451000B70710F0A61BB70B881F991F5A95A9F76C
:1045200080959095BC01CD010895F999FECF92BD7B
:1045300081BDF89A992780B50895A8E1B0E042E0DE
:1045400050E00C94C922262FF999FECF92BD81BD6F
:10455000F89A019700B4021639F01FBA20BD0FB6C1
:10456000F894FA9AF99A0FBE08950396272F0E949D
:10457000A4220E94A322252F0E94A422242F0C945F
:10458000A4220196272F0E94A4220C94A322DC01CE
:10459000CB01FC01F999FECF06C0F2BDE1BDF89A4E
:1045A000319600B40D9241505040B8F70895F894F8
:1045B000FFCF21092E09550961096C0977097A098C
:1045C0007A097A097A097A097D098109890996099E
:1045D000A309A609A909B6091B101B1073107310B3
:1045E000C510481048104810E1106D117C117C1165
:1045F000D81148104810E111521252125B125B128E
:104600005D125B125B125B125212521262125B124B
:104610005B1262121B2143212C2243212C22762182
:0846200097212C22EE21FA2162
:104628004C020F1B4D1B121B491B451B01E200E9E5
:1046380000EA00B500B600B700CD008301CC008ABF
:104648000192019401210223022402250226022755
:10465800022A02B300B4006F00700081828397348D
:10466800F7F691373332F0F1F5F466673536949200
:10467800959300FF0100010000FFFF000001000109
:10468800FF00E200E900EA00B500B600B700CD007F
:104698008301CC008A0192019401210223022402A1
:1046A8002502260227022A02B300B4006F00700018
:1046B80081828340226D8605F70419059C04B504A0
:0246C800D50417
:00000001FF
