:100000000C943E040C9485040C9485040C94850493
:100010000C9485040C9485040C9485040C9485043C
:100020000C9485040C9485040C94582C0C942C2D61
:100030000C9491260C9485040C9485040C948504EE
:100040000C9485040C9485040C9485040C9485040C
:100050000C9485040C94E8260C9485040C94850477
:100060000C9485040C9485040C9485040C948504EC
:100070000C9485040C9485040C9485040C948504DC
:100080000C9485040C9485040C9485040C948504CC
:100090000C9485040C9485040C9485040C948504BC
:1000A0000C9485040C9485040C94850400003B009A
:1000B0003C003F0040004300440046004700290048
:1000C0003A003D003E004100420045006800480003
:1000D00035001E0021002200250026002E002A00E7
:1000E0004B0000001F0020002300240027002D00EB
:1000F0004C004D0000001A0008001C0018001300FE
:100100002F0049004A002B001400150017000C00B6
:100110001200300035004E003900040009000A00CA
:100120000E000F002800310000000000160007003C
:100130000B000D00330034000000000000001D0023
:100140001B00050011003700380052004F00E1008D
:1001500031000600190010003600E50001510000D2
:10016000E000E300000000000000E600E6005000B0
:1001700051000000E20000002C0000000000E70039
:10018000E400000000000100010001000100010086
:100190000100010001000100010001000100010057
:1001A0000100010001000100010001000100010047
:1001B0000100010001000100010000000100010038
:1001C0000100010001000100010001000000010028
:1001D0000100010001000100010001000100010017
:1001E0000100010001000100010001000100010007
:1001F00001000100010001000100010001000100F7
:1002000000000000010001000100010001000100E8
:1002100000000000000001000100010001000100D9
:1002200001000100010001000100010001000100C6
:1002300001000100010000000100010000000000B9
:1002400000000100010001000100000001000000A9
:10025000010000000000010001000000000001009A
:100260000100010001000100010001000100010086
:100270000100010001000100010001000100010076
:100280000100010001000100010001000100010066
:100290000100000001000100010001000100010057
:1002A0000100010000000100010001000100010047
:1002B0000100010001000100010001000100010036
:1002C0000100010001000100010001000100010026
:1002D0000100010001000100000000000100010018
:1002E0000100010001000100000000000000010009
:1002F00001000100010001000100010001000100F6
:1003000001000100010001000100010001000000E6
:1003100001000100000000000000010001000100D8
:1003200001000000010000000100000000000100C9
:1003300001000000000001000100010001000100B7
:1003400001000100010001000100010001000100A5
:100350000100010001000100010001000100010095
:100360000100010001000100010000000100010086
:100370000100010001000100010001000000010076
:100380000100010001000100010001000100010065
:100390000100010001000100010001000100010055
:1003A0000100010001000100010001000100010045
:1003B0000000000001000100010001000100010037
:1003C0000000000000000100010001000100010028
:1003D0000100010001000100010001000100010015
:1003E0000100010001000000010001000000000008
:1003F00000000100010001000100000001000000F8
:1004000001000000000001000100000000000000E9
:10041000000000002A2B280000000000000000005F
:100420000000000000000029000000002C1E342005
:10043000212224342627252E362D3738271E1F202B
:100440002122232425263333362E37381F04050670
:100450000708090A0B0C0D0E0F10111213141516B4
:100460001718191A1B1C1D2F3130232D35040506B2
:100470000708090A0B0C0D0E0F1011121314151694
:100480001718191A1B1C1D2F3130354C00000000A5
:10049000000000000000000000000000000000005C
:1004A000000000000000000000000000000000004C
:1004B0007E0F00D4FFFFFFC7000000781E0F05006D
:1004C000047F3F1F643214643214783C1E1E140AE9
:1004D000052223252628292A2C2D2F303233353684
:1004E000383A3B3D3E4042434547494A4C4E5051C5
:1004F000535557595A5C5E6062646668696B6D6FEC
:1005000071737577797B7D7F81838587898A8C8EEE
:1005100090929496989A9C9E9FA1A3A5A7A8AAACF6
:10052000AEAFB1B3B4B6B8B9BBBCBEBFC1C2C3C530
:10053000C6C7C9CACBCCCDCED0D1D2D2D3D4D5D6D2
:10054000D7D7D8D9D9DADADBDBDBDCDCDCDCDCDD05
:10055000DDDDDDDCDCDCDCDCDBDBDBDADAD9D9D8E9
:10056000D7D7D6D5D4D3D2D2D1D0CECDCCCBCAC981
:10057000C7C6C5C3C2C1BFBEBCBBB9B8B6B4B3B1B0
:10058000AFAEACAAA8A7A5A3A19F9E9C9A9896944B
:1005900092908E8C8A89878583817F7D7B79777520
:1005A00073716F6D6B6968666462605E5C5A5957FF
:1005B000555351504E4C4A4947454342403E3D3BBE
:1005C0003A3836353332302F2D2C2A292826252348
:1005D00022FFAA7F55400001010101010101010133
:1005E00002020202020202020203030303030303E4
:1005F00003040404040404040505050505060606B1
:100600000606070707070708080808090909090A6D
:100610000A0A0B0B0B0C0C0C0D0D0D0E0E0E0F0F12
:100620000F101011111112121313141415151616A0
:100630001717181819191A1A1B1B1C1D1D1E1E1F0F
:100640002020212222232424252626272829292A5E
:100650002B2C2D2D2E2F3031323233343536373886
:10066000393A3B3C3D3E3F40414243444546474882
:10067000494A4C4D4E4F50515354555658595A5B58
:100680005D5E5F616264656668696B6C6D6F7072F8
:10069000737577787A7B7D7E8082838587888A8C64
:1006A0008E8F91939596989A9C9EA0A2A3A5A7A998
:1006B000ABADAFB1B3B5B7BABCBEC0C2C4C6C9CB8F
:1006C000CDCFD1D4D6D8DBDDDFE2E4E7E9EBEEF045
:1006D000F3F5F8FAFDFF0E034A0065006C007300A5
:1006E0003800380000000A034A0065006C007300FF
:1006F00000000403090409025B00030100A0FA09D9
:100700000400000103010100092111010001224040
:10071000000705810308000A090401000203000024
:100720000009211101000122220007058203200097
:100730000107050303200001090402000103000072
:100740000009211101000122B600070584032000E1
:100750000A12011001000000086A0088000100016F
:100760000200010660FF0961A1010962150026FF70
:10077000009520750881020963150026FF00952069
:1007800075089102C005010902A10185020901A1B4
:100790000005091901290815002501950875018131
:1007A000020501093009311581257F9502750881FF
:1007B0000609381581257F950175088106050C0A03
:1007C00038021581257F950175088106C0C0050195
:1007D0000980A101850319012AB700150126B70078
:1007E000950175108100C0050C0901A1018504194E
:1007F000012AA002150126A002950175108100C0F2
:1008000005010906A1018505050719E029E715007D
:1008100025019508750181020507190029EF1500CA
:10082000250195F075018102050819012905950535
:1008300075019102950175039101C005010906A199
:1008400001050719E029E7150025019508750181C3
:10085000029501750881010507190029FF15002679
:10086000FF00950675088100050819012905950501
:1008700075019102950175039101C00011241FBEFD
:10088000CFEFDAE0DEBFCDBF04B603FE27C0809114
:10089000E1039091E203A091E303B091E403873078
:1008A000904BA740B04BD1F41092E1031092E203B9
:1008B0001092E3031092E40314BE84B7877F84BFD1
:1008C0000FB6F894A89580916000886180936000CD
:1008D000109260000FBEE0E0F8E3099511E0A0E09F
:1008E000B1E0E2E4F1E602C005900D92AE3DB10741
:1008F000D9F723E0AEEDB1E001C01D92A13EB207F1
:10090000E1F70E9416290C9450300C940000559A7F
:10091000549A0C940D1ACF93C82F0E948B068823EB
:1009200031F0C1FF06C05D9AC2FF05C05C9ACF914D
:1009300008955D98F9CF5C98FACF81E0089581E041
:1009400008950C949F0408950C94A3041F93CF93CF
:10095000DF9300D000D00F92CDB7DEB749835A8322
:100960006B8330918D0289819A8131111DC066237C
:10097000B9F02223A9F00E948723182F682F8981BC
:100980009A810E94332369817A81812F0F900F9081
:100990000F900F900F90DF91CF911F910C94BA168A
:1009A0000E945F23182FEFCF0E94872369817A81ED
:1009B000EDCFFC01262F40815181628173818481BA
:1009C0000C94A604CF93DF93EC0160E00E94D9045D
:1009D000BE01DF91CF910C94A4048F929F92AF92AD
:1009E000BF92CF92DF92EF92FF920F931F936B0112
:1009F0007C0181E090E0A0E0B0E04C015D0104C02A
:100A0000880C991CAA1CBB1C4A95D2F7B501A401FD
:100A10004C015D0104C0880C991CAA1CBB1C2A95C2
:100A2000D2F7482959296A297B2904C0880F991FC0
:100A3000AA1FBB1F0A95D2F78A019B010C211D2119
:100A40002E213F21041715072607370789F48C2923
:100A50009D29AE29BF29BC01CD011F910F91FF90A7
:100A6000EF90DF90CF90BF90AF909F908F900895C0
:100A700080959095A095B0958C219D21AE21BF21A8
:100A8000EACF0F93382F262F60910C0370910D033E
:100A900080910E0390910F03042F432F0E94ED04C9
:100AA0000F910C9471220E9437270E94D324811148
:100AB00002C00E9477250C9491080C949408089524
:100AC0000E949D1E0E945F052FEF84E39CE0215051
:100AD00080409040E1F700C000000C940C270F9379
:100AE0001F93CF93DF93EC0161E00E94D9048C0146
:100AF000BE010E94A114882389F1BE01C8010E9491
:100B0000A104882359F1BE01C8010E94EF17882370
:100B100029F1BE01C8010E9441188823F9F0BE01E5
:100B2000C8010E9464198823C9F0BE01C8010E944F
:100B3000AE13882399F08A81882339F001158CE55A
:100B4000180751F00E3D1C4579F0CE01DF91CF9191
:100B50001F910F910C949D040E94600580E0DF912D
:100B6000CF911F910F9108950E947725F7CFDF92C3
:100B7000EF92FF920F931F93CF93DF93E82FF0E054
:100B8000E45FFB4FD490282F26952695269530E0DC
:100B9000F901E455FB4F0491877010E0082E02C064
:100BA000159507950A94E2F701701127F901E456AB
:100BB000FB4FE490F12C082E02C0F594E7940A94C0
:100BC000E2F791E0E922FF24F901E457FB4FC491D9
:100BD000D0E002C0D595C7958A95E2F7C170DD27B0
:100BE0000115110519F081EE0E941D1BE114F1049D
:100BF00019F086EE0E941D1B8D2D0E941C1CEF28F3
:100C000019F086EE0E94AF1B012B19F081EE0E94B5
:100C1000AF1BCD2B51F08CE2DF91CF911F910F9143
:100C2000FF90EF90DF900C941C1CDF91CF911F91EF
:100C30000F91FF90EF90DF900895EF92FF920F9346
:100C40001F93CF93DF93EC01162F0AE0888188234E
:100C500009F454C0813009F04EC08981813099F483
:100C60007E0122E0E20EF11C8A810E941C1CE70139
:100C70002196812F815050F3EFE9FFE03197F1F792
:100C800000C00000F7CF823041F47E0182E0E80E20
:100C9000F11C8A810E941D1BEACF833041F47E0142
:100CA000E2E0EE0EF11C8A810E94AF1BE0CF84309F
:100CB00011F02196DDCF2A81229690E080E0AE01EE
:100CC0004F5F5F4F2053330B2A30310548F00197B7
:100CD00078F2EFE9FFE03197F1F700C00000F7CFBD
:100CE000089FB001099F700D1124C901860F971F3D
:100CF0002981EA01E4CF0E94B705BACFDF91CF91F5
:100D00001F910F91FF90EF90089560E00C941D06E5
:100D100008950C94880681E00895CF93C82F0E940F
:100D200089068C2FCF910C948B0490E080E008957D
:100D30000895FC01EE0FFF1FE454FB4F8591949141
:100D40000895CF93DF930E94BA160E94B607EC0174
:100D5000811520E5920708F042C0811530E4930721
:100D600008F0BDC0883E910528F5803E910508F049
:100D70009DC0883A910588F4853A910508F08FC0A6
:100D80008130910509F492C0009709F48FC004974F
:100D900008F08CC0D0E0C0E089C08F3B910508F41A
:100DA00089C0805C9109C03CD105A0F30E949906DE
:100DB000EC017CC08115904250F4C11581E0D80748
:100DC00008F074C0C03FD10528F3D0656FC0C115CD
:100DD00090E3D90708F079C0CE019F70E7CF811565
:100DE00025E5920758F5811534E5930708F0A6C06C
:100DF000811542E5940750F4C11581E5D80708F440
:100E000071C0DC2FCC27C16FD06A50C0982F969547
:100E100096959E0123703327C115D34508F07FC0F6
:100E2000C1E0D0E002C0CC0FDD1F2A95E2F720E23E
:100E3000929FC0011124C82BD92B6FC0C11589E521
:100E4000D807A8F4C11598E5D90708F07CC0C115EA
:100E500026E5D20708F09ECF8C2F0E944D08C82FA0
:100E6000D0E0DC2FCC27CC27DF71D0621FC0C115AA
:100E70003AE5D30708F46CC0CE0190568115904234
:100E800008F088CF8D2F8F710E944D0890E0982F29
:100E9000882788279F719C012C2BE901E6CFC55A32
:100EA000D0E0C65ADE4FC881D0E0D064CE01DF91D9
:100EB000CF910895C85AD0E0CC0FDD1FC45DDE4F3E
:100EC0000990D881C02DD464F1CFCE019927D3FFEA
:100ED00003C0EC01D86CEACFEC01D06CE7CFDF7037
:100EE000D06AE4CFCE01E4E096958795EA95E1F7E4
:100EF00083702C2F26952695237090E2299F9001D0
:100F00001124382B8C2F8370C1E0D0E002C0CC0FAD
:100F1000DD1F8A95E2F7C22BD32BDC68C7CFC1E077
:100F2000D0E002C0CC0FDD1F2A95E2F730E2939F9C
:100F3000C0011124C82BD92BDA68B8CFD82FCC2701
:100F4000C46FD06AB3CFDC2FCC27C06FD06AAECFCE
:100F50008C2F8F700E944D0834E0D695C7953A9536
:100F6000E1F7CF709C2FEC01D069A0CF82389105BA
:100F7000B1F1B0F48133910509F475C048F48932B8
:100F8000910509F469C08A32910509F473C0089586
:100F90008533910509F459C08933910501F108950C
:100FA000833E9105A9F138F4803E9105F9F0823E27
:100FB000910549F10895863E9105A9F1873E910575
:100FC000C9F1843E910519F52091D30321FF1FC07B
:100FD0008091D20384FD14C087EE90E008952091A3
:100FE000D2032370A1F080EE90E008952091D20307
:100FF00020FD47C03091D30330FF09C024FF44C017
:1010000090E080E004C02091D20322FDF7CF089544
:101010002091D20322FD3BC03091D30330FDE3CFBA
:1010200024FFF5CFEDCF2091D20323FFF0CF24FD95
:10103000E7CFD2CF2091D20323FD2CC03091D30330
:1010400031FFEECF84EE90E008952091D20325FF8A
:10105000DECF89E290E008952091D20325FFD7CF1B
:1010600085E390E008952091D20326FFD0CF8AE255
:1010700090E008952091D20326FFC9CF81E390E04C
:10108000089589E390E0089583EE90E0089582EE5C
:1010900090E0089586EE90E008959091D20392FF3B
:1010A00006C0282F28712830F9F4877F846093FFC9
:1010B00006C0282F28712831F1F4877E84612091A1
:1010C000D30320FF06C0382F38713830D9F4877F1A
:1010D000816021FF06C0282F28712831D1F4877E36
:1010E000816194FD877E0895282F24712430F9F6BC
:1010F0008B7F8860DCCF282F2471243101F78B7E11
:101100008861DDCF382F3171313019F78E7F8860DB
:10111000E0CF282F2171213121F78E7E8861E1CF28
:1011200008950C94900808950C949308E82FF0E02B
:10113000EE0FFF1FEB58FC4F8081918108950895B9
:1011400080EA8A95F1F7089500C008950C94A008EC
:10115000F894E82FE295EF70F0E031A1282F2F707E
:1011600081E090E001C0880F2A95EAF7982F9095CA
:10117000932391A392A1892B82A378940895CF936E
:10118000DF93C6E6D1E089910E94A80881E0C237CA
:10119000D807C9F7CDE5D1E089910E94A80881E080
:1011A000C636D807C9F7EDE5F3E0A5E7B3E011923D
:1011B00011921D921D9283E0E537F807C1F78CE08C
:1011C0000E946A09DF91CF910C945305AF92BF92B0
:1011D000CF92DF92EF92FF920F931F93CF93DF9303
:1011E00006E611E0CDE5D3E0C12CD12CEE24E3944A
:1011F000F12CF80181918F01F894E82FE295EF70BE
:10120000F0E021A18F70A70102C0440F551F8A95FD
:10121000E2F7CA01922F982B91A392A1809589237E
:1012200082A378940E94A408EDE5F1E030E020E08C
:10123000B12CA12C4191A42FA295AF70B0E0909653
:101240008C9190E04F7002C0959587954A95E2F792
:1012500080FD3BC0C701022E02C0880F991F0A946F
:10126000E2F7A82AB92A2F5F3F4F2930310511F73D
:10127000F801319780810E94A8085BE0C5120E94A6
:10128000A60888819981A816B90611F1B982A882A9
:1012900081E0D82AC39422968CE0C812AACF2D2DC3
:1012A0004CE065E773E08DE593E00E946B090E94D6
:1012B0005D058D2DDF91CF911F910F91FF90EF90E4
:1012C000DF90CF90BF90AF90089590E080E0C9CFBD
:1012D00080E0DFCF0895FF920F931F93CF93DF93AA
:1012E000F82E092F162FD72FC42F222349F081E083
:1012F0008093E2010E94C1269093E1018093E00176
:101300008091E2018823A1F08091E0019091E101B8
:101310000E94D926069760F0EF2DF02FA12FBD2F48
:1013200090E080E0D0E08C179D0744F01092E2013D
:10133000DF91CF911F910F91FF90089521913191ED
:101340002D933D930196EFCF8091E90180FF12C06C
:101350006091090185E0689FB0011124759567953A
:101360007595679560387105A8F561157105A1F14E
:10137000862F089581FF09C06091090185E0689F6B
:10138000B001112475956795EDCF6091090182FD3B
:101390000AC08091E8018823D1F090910801609102
:1013A0000901891728F085E0689FB0011124DACF80
:1013B000869FB001112485E0869F9001879F300DA4
:1013C0001124692F70E0C9010E940C2FCBCF65E07A
:1013D00070E0CECF8FE7089581E008958091E90114
:1013E00080FF0CC06091050170E07595679575955B
:1013F00067956115710549F1862F089581FF06C033
:101400006091050170E075956795F3CF60910501D6
:1014100082FD0BC09091E7019923A1F06091040136
:1014200080910501961738F0682F70E060387105DB
:1014300000F38FE70895899FC001112470E00E9496
:101440000C2FF4CF61E070E0D7CF81E00895803FAA
:1014500031F40E94A40981958093ED010895813FA4
:1014600019F40E94A409F8CF823F31F40E94A40924
:1014700081958093EC010895833F19F40E94A4099B
:10148000F8CF893F29F40E94EE098093EE01089578
:101490008A3F21F40E94EE098195F7CF8B3F31F40A
:1014A0000E94EE0981958093EF0108958C3F19F415
:1014B0000E94EE09F8CF9CE0980F953070F4845F9D
:1014C000990B21E030E001C0220F8A95EAF7809164
:1014D000EB01822B8093EB0108958D3F31F48091D5
:1014E000E90181608093E90108958E3F21F48091A4
:1014F000E9018260F7CF8F3FB9F78091E9018460FD
:10150000F1CF4091EC01803F59F48091ED0187FFCC
:101510000DC01092ED0141110BC01092E80108C0FE
:10152000813F81F48091ED0118169CF3442381F0F2
:101530008091EE019091EF01892B09F05AC0109231
:10154000E7010895823F49F447FFF0CF1092EC0184
:101550008091ED018111ECCFE0CF833F19F4141697
:10156000ACF3E4CF9091EE01893F29F41916F4F61B
:101570001092EE01DBCF8A3F19F497FFD7CFF8CF57
:101580009091EF018B3F29F497FFD0CF1092EF019C
:10159000CDCF8C3F19F41916CCF3C8CF9CE0980F2F
:1015A000953090F4845F990B21E030E0B90102C0DE
:1015B000660F771F8A95E2F7CB0180959091EB013A
:1015C00089238093EB01B2CF8D3F31F48091E90103
:1015D0008E7F8093E901AACF8E3F21F48091E901AB
:1015E0008D7FF7CF8F3F09F0A1CF8091E9018B7FED
:1015F000F0CF08950E94C1269C019091EC0180914A
:10160000ED01982B21F03093E6012093E5019091B4
:10161000EE018091EF01982B21F03093E4012093AB
:10162000E3018AEE91E00C94B919EF92FF920F93C7
:101630001F93CF93DF9300D000D000D0CDB7DEB79B
:1016400086E0EAEEF1E0DE01119601900D928A95B6
:10165000E1F7E090EC01F090ED010091EE011091C6
:10166000EF011092EC011092ED011092EE01109238
:10167000EF018E2D8F2991F08091E5019091E60187
:101680000E94D926AC019091E801992309F43FC04A
:1016900080910A018417150608F447C0802F812B1A
:1016A00091F08091E3019091E4010E94D926AC0170
:1016B0009091E701992309F477C08091060184177E
:1016C000150608F47FC08091EC019091ED01892B03
:1016D0009091EE01892B9091EF01892B11F00E94DE
:1016E000FA0A86E0FE013196AAEEB1E001900D9271
:1016F0008A95E1F726960FB6F894DEBF0FBECDBFF0
:10170000DF91CF911F910F91FF90EF90089520915D
:101710000B018AE0289F900111242417350708F057
:10172000BDCF9F5F9093E80102C09F3FD1F7EE20AD
:1017300059F00E94A4099FEF1E140CF491E0899FB8
:10174000802D11248093EC01FF2059F00E94A40900
:101750009FEF1F140CF491E0899F802D112480933A
:10176000ED013091EC01332309F498CF2091ED0184
:10177000222309F493CF45EB3403C00111249923AC
:1017800059F09093EC0145EB24039001112433238D
:1017900039F03093ED0182CF81E08093EC01F3CFFB
:1017A00081E08093ED017ACF209107018AE0289FA4
:1017B000900111242417350708F085CF9F5F90937F
:1017C000E70102C09F3FD1F7002359F00E94EE09C4
:1017D0009FEF10160CF491E0899F802D11248093C7
:1017E000EE01112359F00E94EE099FEF11160CF43F
:1017F00091E0899F802D11248093EF013091EE01BB
:10180000332309F460CF2091EF01222309F45BCF49
:1018100045EB3403C0011124992359F09093EE0154
:1018200045EB240390011124332339F03093EF0169
:101830004ACF81E08093EE01F3CF81E08093EF0106
:1018400042CF86E0EAEEF1E0DF011D928A95E9F7EA
:101850001092E8011092E7011092E9010895EF92C9
:10186000FF920F931F93CF93DF93EB01E82FD111DA
:1018700010C0442321F0F0E0EA52FA4FE4916E2FB9
:101880007E2F8E2FDF91CF911F910F91FF90EF90C0
:1018900008950D2F10E0282F30E0442329F02A521C
:1018A0003A4FF901249130E0F6E0CF9FC0011124B6
:1018B000EFEFF0E0BF010E94F82EAB018C2F90E01B
:1018C000880F991FA5E5A49FB001A59F700D112455
:1018D000861B970B982F990F980FBF01601B710BF8
:1018E000629FD001639FB00D729FB00D11248B2FAA
:1018F0009D9FB0011124672F7727EF01C61BD70BDF
:10190000BE01629FE001639FD00D729FD00D112434
:101910007F01E91AF108E09EB001E19E700DF09E92
:10192000700D1124672F7727E61BF70BE29F8001CC
:10193000E39F100DF29F100D1124E12F722F423002
:10194000510599F048F44115510569F041305105B0
:1019500081F0EB2F8D2F07C04430510569F080F0E6
:1019600046305105B1F76E2F8DCFE22F7B2F812F9F
:10197000FACFE22F7D2FF7CFEB2F822F712FF3CFEE
:101980007B2F822FED2FEFCF41E00C942F0C089589
:101990000C94C40CCF93DF93762FE901682F842F2A
:1019A0000E94C80C798368838A83DF91CF91089560
:1019B000423E08F041EE0C94CA0C80918D03982FA2
:1019C0009E7F61F48170826080938D03809190038B
:1019D000823E18F081EE8093900308958635B0F32F
:1019E00081708465F1CF88E090E00C94F12FCF9264
:1019F000DF92EF92FF926B017C010E94DD0CB70138
:101A0000A60188E090E0FF90EF90DF90CF900C94DB
:101A10000F3060918D0370918E0380918F039091B0
:101A200090030C94F70CEDE8F3E083E080831182DF
:101A30008FEF82831382148260817181828193810E
:101A40000C94F70C80918D0380FF02C08695089559
:101A500080E0089590919103933018F49F5F9093E4
:101A60009103882351F060918D0370918E038091D2
:101A70008F03909190030C94F70C089581E00C94DF
:101A80002A0D90919103992319F09150909391030D
:101A9000882351F060918D0370918E0380918F03A4
:101AA000909190030C94F70C089581E00C94410DF3
:101AB00080919103089580939103662351F0609182
:101AC0008D0370918E0380918F03909190030C94FD
:101AD000F70C089560E00C945B0D80918E030895DF
:101AE00080918F03089580919003089570E00C9485
:101AF0001E146091100180918D0380FF0AC08091B7
:101B00000F0123E0829FC00111248E569C4F0C943C
:101B1000760D809111019091120123E0829FF001D6
:101B20001124EE56FC4F891750F711821082128251
:101B30008F5F3396F8CF90918D0390FF14C09091F2
:101B400011012091120133E0939FF0011124EE5610
:101B5000FC4F921710F00C94790D818360834283BF
:101B60009F5F3396F6CF0895CF93DF9300D00F9207
:101B7000CDB7DEB790918D0390FF0AC09E012F5F15
:101B80003F4F0E94D80C4B8169818A810E949B0D36
:101B90000F900F900F90DF91CF910895CF93DF9327
:101BA000EC01EC81F0E0EF52FB4F4491EDE8F3E003
:101BB000628181810E94B40D8C818F5F8C83DF9163
:101BC000CF910895CF93DF93EC01EDE8F3E04381EB
:101BD00062818C810E94B40D8C818F5F8C83DF9138
:101BE000CF9108950F931F93CF93DF9300D00F925F
:101BF000CDB7DEB78C018091F00181110AC09E0142
:101C00002F5F3F4F41EE6FEF0E94D80C8A81809387
:101C1000F001F8016481613069F08091F00140E0E9
:101C2000662361F040E0623011F44091F00180E001
:101C300060E004C06091F00140E080E00E949B0DF4
:101C4000F801848190E0019663E070E00E940C2F1F
:101C500084830F900F900F90DF91CF911F910F9180
:101C60000895AF92BF92CF92DF92EF92FF920F93BF
:101C70001F93CF93DF9300D00F92CDB7DEB7182F0D
:101C8000F62E042FE22E90918D0390FF29C0E92FAC
:101C9000E695AE2FB0E0AE58BE4F8C9180936002B7
:101CA0009E7F923059F59E012F5F3F4F812F0E94FA
:101CB000D80C4B8169818A810E949B0D10938E0301
:101CC000F0928F0300939003EE2051F060918D030A
:101CD00070918E0380918F03909190030E94F70C76
:101CE0000F900F900F90DF91CF911F910F91FF9068
:101CF000EF90DF90CF90BF90AF900895823019F4AD
:101D000000919003DBCF863019F410918E03D6CF6B
:101D10008930D9F3893191F6E9518E2F8170D82E0F
:101D2000E695F0E0EF52FA4FA590B490C12CBB2499
:101D300060911301C61618F00E94790DBFCF2C2DAB
:101D400030E0A29EC001A39E900DB29E900D112482
:101D500070E00E94F82E812FD11013C0860F4091A1
:101D60001101420F532F511D9A01220F331F240FCF
:101D7000351F2E563C4F402F6F2D0E94D80CC39418
:101D8000D7CF861BECCFEDE8F3E09181282F43817C
:101D9000628188E0890F0C94310E81E00C94C30EAF
:101DA000EDE8F3E09181282F4381628188EF890F6C
:101DB0000C94310E81E00C94D00EEDE8F3E06281DA
:101DC00021E1620F08F46FEF282F438181810C9489
:101DD000310E81E00C94DD0EEDE8F3E0628121E14B
:101DE000621B08F460E0282F438181810C94310E3E
:101DF00081E00C94EC0EEDE8F3E0438121E1420F29
:101E000008F44FEF282F628181810C94310E81E01C
:101E10000C94FB0EEDE8F3E0438121E1421B08F452
:101E200040E0282F628181810C94310E81E00C9476
:101E30000A0F20E00C94310EEF92FF921F93CF9384
:101E4000DF93EC0110E0EE24EA94F12C6091130191
:101E5000161770F00E94790D9A818C8190FF27C02F
:101E60008F5F8C83DF91CF911F91FF90EF9008954A
:101E700020911101422F410F5527551FCA019A0188
:101E8000220F331F280F391F2E563C4F70E0C70119
:101E90000E940C2F962F8C814091900360918F03AC
:101EA000199F800D11240E94D80C1F5FCFCF815045
:101EB000D8CFAF92BF92CF92DF92EF92FF920F9363
:101EC0001F93CF93DF93FC0182810FEF80FF01E02E
:101ED00010E044E1A42E809113011817C8F00E946D
:101EE000790D8091F201013009F055C0811102C0D5
:101EF0008091130181508093F201DF91CF911F9166
:101F00000F91FF90EF90DF90CF90BF90AF9008952A
:101F1000C0911101C12ED12CCC0DDD2DD11DCE01D2
:101F2000880F991FC80FD91FCE56DC4F198218820F
:101F30001A8234E0E32EF12CB12C8091F2018B0D4A
:101F400085311CF16A2D0E94EA2E892F082E000C83
:101F5000990BC816D90691F4809190038E9DA0012B
:101F60008F9D500D112455954795559547959E0188
:101F700060918F0380918E030E94D80CB00EF1E027
:101F8000EF1AF108D1F61F5FA6CF87FFDFCF909140
:101F90001301890FDBCF90E001966091130170E08F
:101FA0000E940C2FA8CF0F931F93CF93DF938091A4
:101FB00011019091120123E0829FF0011124EE564D
:101FC000FC4F891740F1C0E0D3E060911301C617C0
:101FD00040F10E94790D20910D018091F101820F55
:101FE0008093F10190910E01920F90930E011916BA
:101FF00054F4082E000C990B409113014150550BDD
:10200000841795071CF0219520930D01DF91CF9146
:102010001F910F9108951182108212828F5F339663
:10202000D0CF0C2F10E070E0C8010E940C2F20913F
:102030001101820F482F50E02091F101022E000C77
:10204000330B02171307BCF020910E01022E000C77
:10205000330B201731077CF08D9F900111242E56F1
:102060003C4F4091900360918F0380918E030E94BA
:10207000D80CCF5FAACFFA01EE0FFF1FE40FF51FB8
:10208000EE56FC4F118210821282F3CF8F929F92F4
:10209000AF92BF92CF92DF92EF92FF920F931F9376
:1020A000CF93DF93EC014C81042F10E09801D8010D
:1020B0000E94572F9B01AC010E946D2F4B015C01C8
:1020C000E0E2F0E0E01BF10BA5E5B0E0AC019B0124
:1020D0000E946D2F6B017C019F01DF010E944F2F39
:1020E0009B01AC010E94782F9B01AC01280D391D8A
:1020F0004A1D5B1DC701B6010E94202FF22E822FC0
:1021000090E039E23F1560F143E0249F90011124F3
:1021100035952795122F109500E085E5E82EEF18EC
:1021200080911301081758F10E94790D9C8181E07C
:10213000992319F0903219F48FEF80930C0180915C
:102140000C01890F8C83DF91CF911F910F91FF902C
:10215000EF90DF90CF90BF90AF909F908F900895B9
:1021600025E530E0B901681B790B9B01220F331F75
:10217000260F371F37FFCCCF2F5F3F4FC9CF8E2D94
:1021800001FD8F2D20911101622F600F7727771F9E
:102190009B01220F331F260F371F2E563C4F412F16
:1021A00060918F030E94D80C0F5FBACF0F931F93DB
:1021B000CF93DF93EC0110E000E0909113019017B2
:1021C000110609F06CF40E94790D8C8190E0019663
:1021D000817099278C83DF91CF911F910F91089582
:1021E00020911101A801420F511D9A01220F331FA6
:1021F000240F351F2E563C4F4C8160918F038091E8
:102200008E0396959017110651F04CF0442349F037
:10221000409190030E94D80C0F5F1F4FCECF4423F4
:10222000B9F340E0F7CF4F925F926F927F928F9217
:102230009F92AF92BF92CF92DF92EF92FF920F9355
:102240001F93CF93DF93FC016280448081E08483FD
:10225000E1EDF4E07490E0E5F5E0E491812C75E0C7
:10226000972EF2E0CF2EDD24D394AA24AA94B12C89
:1022700055245A94E7190E2F10E080911301881607
:1022800090F0DF91CF911F910F91FF90EF90DF9031
:10229000CF90BF90AF909F908F907F906F905F9006
:1022A0004F900C94790DE82CF12C82E0861568F0A3
:1022B0009E9CF0019F9CF00D1124ED50FE4F8091EB
:1022C0008E03808380918F038183411023C09E9C65
:1022D000F0019F9CF00D1124ED50FE4F13821282ED
:1022E00020911101C701820F911D9C01220F331F04
:1022F000280F391F2E563C4F9E9CF0019F9CF00DDD
:102300001124ED50FE4F4281618180810E94D80CE2
:102310008394B3CF9E9CE0019F9CD00D1124CD509F
:10232000DE4F8B818823E9F081508B83859DC0012E
:1023300011246C8170E00E94F82EFB01FF27EF5200
:10234000FB4F8491E82FE719E59DC0011124B801E6
:102350000E94F82E80919003689FB00111247A8327
:10236000BFCF0E94CC2F20919003269521582C9D01
:10237000A0012D9D500D1124452F55278417950739
:102380000CF0AECF82E0861588F40E94CC2FB50108
:102390000E940C2F88830E94CC2F20918F032695BA
:1023A000622F70E00E940C2F280F29839E9CF00161
:1023B0009F9CF00D1124ED50FE4F128280919003EE
:1023C000893C58F088EC9E9CF0019F9CF00D1124F4
:1023D000ED50FE4F8483838383CF8431A0F784E163
:1023E000F2CFEDE8F3E080818E7F808360817181A0
:1023F000828193810E94F70C109261022FEF80E797
:1024000092E0215080409040E1F700C000000C9421
:10241000790DEDE8F3E080818E7F80831092610278
:102420002FEF80E792E0215080409040E1F700C01C
:1024300000000C94790D1092610280915E0281116E
:102440000AC081E080935E0280918D038170809349
:102450005D020C940912089560918D03669570E0F9
:102460004BE050E084E191E00E94DC2F892B19F4CD
:1024700081E0809361020E94C1269093580280936C
:102480005702089590918D0390FF35C0917081118E
:1024900028C0926090938D03662351F060918D0364
:1024A00070918E0380918F03909190030E94F70C9E
:1024B00060918D03669570E04BE050E084E191E01F
:1024C0000E94DC2F892BA1F01092610281E08093A1
:1024D0005A024091900360918F0380918E030C9477
:1024E000190F8B3210F09465D5CF880F982BD2CF6F
:1024F0000E942C12EBCF0895682F90918D03969532
:1025000081E0890F8B3208F081E00C94421281E067
:102510000C947C12682F90918D0396958FEF890F04
:1025200009F48AE20C94421281E00C948A1261E070
:102530000C944212EDE8F3E08081816080838695FF
:102540000C94971280918D0380FD0C94F1110C94E2
:102550009A1260E00C94421280915F0281112EC0A9
:102560000E94D324811104C00E9477250E94130D7C
:102570000E94F30C60938D0370938E0380938F03FE
:10258000909390036E7F61F40E94130D0E94F30CF0
:1025900060938D0370938E0380938F0390939003C9
:1025A0000E94DD0C1092610280918D0380FF03C0B8
:1025B00086950E94A91281E080935F020895EDE85C
:1025C000F3E080818160808386950C94A91210923B
:1025D0005E0280915D0281110E94DF120C942C1228
:1025E0000F931F93CF93DF9380916102882309F4A7
:1025F00096C080916002E0918D03E695E81BE09320
:102600005902823091F5F0E0E353FB4FE491CE2F75
:10261000D0E00EEC1DE080915A02882361F0109208
:102620005A020E94C126909358028093570210923A
:102630005C0210925B020E94C126E0915702F09169
:1026400058028E1B9F0B8F3F9F4708F068C0EC0F0E
:10265000FD1FF0935802E093570287E592E0F801DE
:10266000DF91CF911F910F910994863049F4F0E0EA
:10267000E653FB4FE491CE2FD0E002EE1DE0CBCF2E
:10268000893051F4E695F0E0E953FB4FE491CE2F09
:10269000D0E00CE11FE0BFCF8F3051F4E695F0E0C1
:1026A000EC53FB4FE491CE2FD0E009E51FE0B3CF10
:1026B000853149F4F0E0EF53FB4FE491CE2FD0E0A9
:1026C00003ED1FE0A8CFC8E2D0E006E410E18831B6
:1026D00009F4A1CF833239F4EFEBF4E0C591D49142
:1026E00002EF1DE098CFC4EFD1E006ED10E1843297
:1026F00009F491CFC0EDD7E007EC1CE0853209F07A
:102700008ACF8E2F63E00E94DE2EE92FF0E0E454A2
:10271000FB4FE491CE2FD0E003E111E17CCFDF91BC
:10272000CF911F910F910895FA01811101C0FB0112
:102730000994CF93DF93C82FD62F0E94220D8C17B8
:1027400040F00E94220D8D1720F4DF91CF910C9460
:1027500087128C2FDF91CF910C9497120F931F93B8
:10276000CF938C01FB01C281CC2309F465C00E9488
:102770001C248272F801E25CFC45E431F10538F476
:10278000EE5AFF4C0C94422F0E94A212C0E08C2FF4
:10279000CF911F910F91089544E952E167E872E1EA
:1027A0000E949413F3CF47E852E164E972E1F8CF55
:1027B0004AED5EE06DEC7EE0F3CF4DEC5EE06AED5D
:1027C0007EE0EECF48EF5EE069EE7EE0E9CF49EED5
:1027D0005EE068EF7EE0E4CF46E15FE067E07FE047
:1027E000DFCF47E05FE066E17FE0DACF45E55DE01F
:1027F0006EE37DE0D5CF4EE35DE065E57DE0D0CFD3
:1028000081E00E949712C2CF65E082E00E94991396
:10281000BDCF68E086E0FACF6EE089E0F7CF64E1F3
:102820008FE0F4CF67E185E1F1CF88E1EACF62E2A2
:1028300089E1ECCF83E2E5CFC1E0A9CF269A45B18B
:102840004F7B55B15064EFB7F8949B01220F331FB3
:10285000260F371F280F391F2817390741F4EFBFFC
:102860008FE594E00197F1F700C000000895DC01C6
:102870006D91CD0178E055B9000000C067FF45B902
:10288000660F000000C000C000C045B900C07A95C6
:1028900091F7E2CF82E290E00E94E92F813289F441
:1028A00083E290E00E94E92F803159F484E290E0C5
:1028B0000E94E92F91E0833009F090E0892F817028
:1028C000089580E0FCCFCF93C82F6FEF811161E2B4
:1028D00082E290E00E94FD2F6FEFC11160E183E280
:1028E00090E00E94FD2F6FEFC11163E084E290E061
:1028F000CF910C94FD2F80E00E9463140C94CD24A2
:10290000089585E290E00E94E92F682F70E090E042
:1029100080E0089585E290E00C94FD2F0E948014E1
:102920000E944A1481110CC060E070E0CB010E944B
:102930008A140E9432160E941C1781E00C946314C2
:102940000895CF93FB01C281CC2309F19C01225150
:102950003F452031310520F582510E942C17C0E0FF
:102960008C2FCF91089581E00E94972243E062E08E
:1029700081E00E944105F3CF81E00E94B82243E04C
:1029800062E081E00E944105EBCF82E0F6CF80312A
:10299000FFE59F0789F381319F45B9F3C1E0E0CF9F
:1029A0008031EFE59E07F9F281319F45C9F682E05B
:1029B000DBCF2FEFFC0120830895CF93DF93EC0151
:1029C00088818138A9F028F4803871F0DF91CF91A7
:1029D0000895823881F08338C9F70E946D0D89838C
:1029E0000E94700D8A83F2CF0E94730D8983EECF0F
:1029F0000E94220DFBCF0E94580DF8CFCF93DF939A
:102A0000EC0188818138E1F028F4803869F0DF91A9
:102A1000CF910895823811F18338C9F70E94730D60
:102A2000482F6A81898108C0D9810E94700DC82F02
:102A30000E946D0D4D2F6C2FDF91CF910C94190FCB
:102A400089810E94A9128981811104C0DF91CF91EF
:102A50000C940912DF91CF910C94DF128981DF91E0
:102A6000CF910C946A0DEF92FF920F931F93CF9327
:102A7000DF93EC01062FDC01ED91CD01E150E33154
:102A800008F0ADC0F0E0EA59FF4C0C94422F1982D7
:102A900089E08A83602FCE01DF91CF911F910F9142
:102AA000FF90EF900C940B288981823069F083307D
:102AB00071F08130D9F40E94CD260E94482F6A839C
:102AC0007B838C839D83E6CF0E948114F6CF7E01A9
:102AD00010E0812F0E949608F701928383831F5F85
:102AE000F2E0EF0EF11C1C30A1F7D4CF602FCE0125
:102AF0000E94D914CFCF89818230C1F76A817B814E
:102B00008C819D810E94482F0E948A14C3CF4B81E3
:102B10006A8189810E9404169827892798279D83B6
:102B20008C83B8CF2C813D813227232732274B81DC
:102B30006A8189810E941D16ADCF0E943216AACFEC
:102B40000E94FE14A7CF0E94DD14A4CF0E94090D9D
:102B5000A1CF0E94C71689839DCF0E94C9169827CE
:102B6000892798279A83898395CF6B8170E0898123
:102B70009A81AE014C5F5F4F9827892798270E9462
:102B8000CC1688CF6B8170E089819A81AE014C5F51
:102B90005F4F9827892798270E94F2167BCF0E94C3
:102BA0001C1778CF0E94F215D6CF6B8170E0898117
:102BB0009A81AE014C5F5F4F9827892798270E9422
:102BC0006A1668CF6B8170E089819A81AE014C5F93
:102BD0005F4F9827892798270E9490165BCF8FEF29
:102BE000888358CF84E0089550E0440F551F92E148
:102BF000699F400D511D112498ED899F400D511D75
:102C00001124CA01869608950F931F93CF93DF93E3
:102C10000E94F4158C010E94E92FC82FD0E0DC2F10
:102C2000CC27C80101960E94E92F9E01282BC901DB
:102C3000DF91CF911F910F9108950F931F93CF9321
:102C4000DF93122F032F0E94F415EC01602F0E94D6
:102C5000FD2F612FCE010196DF91CF911F910F9132
:102C60000C94FD2FAF92BF92CF92DF92EF92FF9222
:102C70001F93CF93DF938CEAC82E80E0D82ED0E04C
:102C80007601C0E014C0F50125913491412F6C2FDD
:102C90008D2F0E941D1682E0A80EB11C1F5F1930F7
:102CA00091F782E1E80EF11CCF5FCC3019F05701AB
:102CB00010E0E9CFDF5F88EDC80ED11CD43001F7FA
:102CC000DF91CF911F91FF90EF90DF90CF90BF9059
:102CD000AF900895EF92FF920F931F93CF93DF93DE
:102CE000EC018A017C01E60EF71ECE018696CE1518
:102CF000DF0539F4DF91CF911F910F91FF90EF9095
:102D00000895C03623E0D20740F40E94E92FF8016D
:102D100080830F5F1F4F2196E8CFF8011082F9CF13
:102D2000CF92DF92EF92FF920F931F93CF93DF9397
:102D30007C016A018C01060F171FEC01CE018696FB
:102D4000C017D10749F4DF91CF911F910F91FF90E8
:102D5000EF90DF90CF900895C03623E0D20740F483
:102D6000FE01EE19FF09EC0DFD1D60810E94FD2F93
:102D70002196E4CF462F843038F47C3028F4693033
:102D800018F4672F0C94041690E080E0089580E119
:102D900008958AE790E00895EF92FF920F931F93B2
:102DA000CF93DF93EC018A017C01E60EF71ECE0182
:102DB0008A579C4FCE15DF0539F4DF91CF911F91D3
:102DC0000F91FF90EF900895CA37D10540F40E940B
:102DD000E92FF80180830F5F1F4F2196E8CFF8019C
:102DE0001082F9CFCF92DF92EF92FF920F931F9351
:102DF000CF93DF937C016A018C01060F171FEC0152
:102E0000CE018A579C4FC017D10749F4DF91CF916B
:102E10001F910F91FF90EF90DF90CF900895CA37E8
:102E2000D10540F4FE01EE19FF09EC0DFD1D608196
:102E30000E94FD2F2196E4CFCF93DF93C6E8D3E025
:102E400060E0CE010E94FD2F2196C11584E0D807D5
:102E5000B9F7DF91CF910895DF92EF92FF920F9330
:102E60001F93CF93DF9300D000D0CDB7DEB7F82EFD
:102E70008FE08F1540F08FEF93E00E94E92F06E876
:102E800013E08823C1F00F900F900F900F90DF9107
:102E9000CF911F910F91FF90EF90DF900895011552
:102EA00084E0180781F3C8010E94E92F811101C055
:102EB000FA940F5F1F4FF110F2CF19821A821B8212
:102EC0001C82DD24D39478018FEFE81AF80AC80138
:102ED0000E94E92F89831A828823A9F29FEF980F15
:102EE000933078F48A83D9820E5F1F4FC7010E9406
:102EF000E92F8B83882339F2CE0101960E94850643
:102F0000E2CF8701F9CF0F931F93CF93DF93C42FA5
:102F1000D22FFC0182818823C9F0409364020E9471
:102F2000C126909363028093620280E28C0F883006
:102F300008F050C0C77081E001C0880FCA95EAF759
:102F4000DF91CF911F910F910C94241C109164027A
:102F5000141335C080916202909163020E94D926B9
:102F6000883C910560F5C0E2CD0F1D17B9F080E2F5
:102F7000810F883040F4177081E001C0880F1A95E6
:102F8000EAF70E942B1CC83048F481E09D2F97700F
:102F900001C0880F9A95EAF70E94241C802F0E9496
:102FA0001C1CC830B8F4D77081E001C0880FDA95D6
:102FB000EAF7DF91CF911F910F910C942B1C80E2C7
:102FC0008C0F883038F4C77081E001C0880FCA9533
:102FD000EAF7EFCFDF91CF911F910F9108950F93F3
:102FE0009C01CB01233F4CE5340759F1A8F4283D5F
:102FF000FCE53F0701F1293D4CE53407D1F1273DC0
:103000003C4591F406E221EE41EE67ED7CE50E943D
:10301000831780E00F910895253FFCE53F07E9F015
:10302000B0F0263F3C45F9F0FC018281882339F15C
:1030300010926402EFCF07E225EE45EE68ED7CE5E5
:10304000E6CF06E221EE40EE63EF7CE5E0CF07E25B
:1030500025EE44EE64EF7CE5DACF06E221EE42EEA7
:1030600065EF7CE5D4CF07E225EE46EE66EF7CE522
:10307000CECF08E221E045EE69ED7CE5C8CF81E0E6
:10308000C9CFCF93DF93EC01FB018281882309F440
:1030900019C1C230FCE5DF07C0F1C6319CE5D90794
:1030A00030F09E012A5F3C452930310570F50E94C1
:1030B000E6249093D3038093D203C031ECE5DE077E
:1030C00009F4CFC008F05BC0C8308CE5D80709F41C
:1030D000B6C088F5C430ECE5DE0709F4A8C0C0F43A
:1030E000C2308CE5D80709F49CC08091D20382607D
:1030F000C330DC4509F498C08091D2039091D3038A
:103100000E94F4240E949D1E80E0DF91CF910895DB
:103110008091D2038061C630ECE5DE0709F484C0FB
:103120008091D2038860C730DC4508F47DC080916F
:10313000D203806279C0CC308CE5D80709F489C00D
:1031400070F48091D2038C60CA30ECE5DE0709F49C
:103150006BC008F478C08091D2038E7F65C0CE30FA
:103160008CE5D80709F479C08091D2038B7FCF30EA
:10317000DC4508F459C08091D2038F7E55C0CB3F07
:10318000ECE5DE0709F457C030F5C3318CE5D8070C
:1031900009F46FC078F4C131ECE5DE0709F465C0CD
:1031A000C231DC4509F0A8CF0E949D1E8091D20358
:1031B0008F773AC0C5318CE5D80709F462C008F4AE
:1031C00076C08091D3038160CA3FDC4509F094CF7B
:1031D0008093D30391CFCF3FFCE5DF0709F44DC0C7
:1031E00088F48091D3038D7FCD3F9CE5D90781F38F
:1031F0008091D3038E7FCE3FDC4550F38091D30383
:103200008360E6CFC130FDE5DF0709F459C008F45B
:1032100044C080E0C230DD4509F06ECF0E947925C0
:103220006BCF8091D20381608093D20365CF809170
:10323000D2038460F9CF8091D3038260C9CF80919B
:10324000D2038064F1CF0E949D1E8091D2038068DA
:10325000EBCF8091D2038D7FE7CF8091D203877F20
:10326000E3CF8091D2038F7DDFCF8091D2038F7B1C
:10327000DBCF8091D203837FD7CF8091D3038C7F24
:10328000A7CF8091D20382FB992790F921E0922762
:1032900090FB82F990FB83F9C7CF8091D303982FDD
:1032A000909591708E7F892B90FB81F991CF0E9430
:1032B0009D1E9091D203892F97FB87F98058B4CF38
:1032C00081E0ACCF81E021CFCF93DF93EB0186315A
:1032D0009C4511F50E941C249A81992399F08A7AC1
:1032E00091E009F490E090936502811109C089E2B0
:1032F0000E94F7230E94682480E0DF91CF91089517
:1033000085E3F6CF80916502811104C089E20E94B5
:10331000FE23F0CF85E3FBCF81E0EFCF90936B02EC
:1033200080936A020895E0916A02F0916B023097EF
:1033300021F00190F081E02D099480E00895E09162
:103340006A02F0916B02309799F020912B012223B1
:1033500059F02091D20327FF07C0DC012C91119670
:103360002C93119725E02C930280F381E02D099492
:103370000895E0916A02F0916B02309739F022E0F3
:10338000DC012C930480F581E02D099408952091AF
:103390006802309169022817390771F09093690229
:1033A00080936802E0916A02F0916B02309721F0FD
:1033B0000680F781E02D09940895209166023091EE
:1033C00067022817390771F09093670280936602AD
:1033D000E0916A02F0916B02309721F00084F18550
:1033E000E02D099408950E94CD2660938902709380
:1033F0008A0280938B0290938C0260938502709373
:1034000086028093870290938802089585B780682A
:1034100085BF85B7806885BF08950895089508958C
:103420000C940F1A0E94061A8BEC94E20E9430272B
:103430000E940E1A0C94870481E008950C941C1AC3
:10344000089508950E94B8260E94BF080E948E1415
:103450000E944B270E94AC120C94101A8F929F92DC
:10346000AF92BF92CF92DF92EF92FF920F931F9392
:10347000CF93DF93CDB7DEB72A970FB6F894DEBFB0
:103480000FBECDBF0E94201A0E94211A0E94E6089A
:1034900081110E94F3195DE6852E52E0952E10E011
:1034A00000E0A02E802F0E9496086C01F401E190AC
:1034B000F1904F01E816F90609F45EC080913903D6
:1034C00081FD0E949F08C7018C259D25B12CEE240B
:1034D000E394F12C9C012E213F21232B09F446C0BB
:1034E0000E941E1A8823A9F0BE82AF82CE20DF2060
:1034F00081E0CD2809F480E088870E94C1268160A0
:10350000782F9A8789874E815F8168858A850E9496
:10351000E61A000F111FF801E359FD4F80819181D8
:10352000E826F926F182E0820E94F0120E94150B33
:103530000E94931990916C028917A9F10E94931926
:1035400080936C022A960FB6F894DEBF0FBECDBFF3
:10355000DF91CF911F910F91FF90EF90DF90CF906F
:10356000BF90AF909F908F900C948D06B394EE0C0B
:10357000FF1CF9E0BF12AECF0F5F1F4F0C301105DB
:1035800009F08FCF8FEF89838A831B820E94C12627
:103590008160782F9D838C8349815A816B818D81D5
:1035A0000E94E61AC1CF2A960FB6F894DEBF0FBE6E
:1035B000CDBFDF91CF911F910F91FF90EF90DF90E2
:1035C000CF90BF90AF909F908F900895DF92EF9231
:1035D000FF920F931F93CF93DF93CDB7DEB72B9757
:1035E0000FB6F894DEBF0FBECDBF7A878B87F42E5F
:1035F000052F162FE72ED82E61110E943C241E8223
:103600001D827E2DEC82DD824F2D502F612F8D2D5E
:103610009E812B960FB6F894DEBF0FBECDBFDF9113
:10362000CF911F910F91FF90EF90DF900C94132199
:10363000FC01808191810C94C923CF93C82F8823EA
:1036400009F48BC08238C1F40E94931981FD85C0B2
:1036500089E30E94F7230E9468242FEF81EE94E013
:10366000215080409040E1F700C0000089E30E94B3
:10367000FE23CF910C9468248338A1F40E949319FF
:1036800080FD6BC083E50E94F7230E9468242FEF22
:1036900081EE94E0215080409040E1F700C00000AE
:1036A00083E5E5CF8438A1F40E94931982FD55C0CB
:1036B00087E40E94F7230E9468242FEF81EE94E0B4
:1036C000215080409040E1F700C0000087E4CFCF58
:1036D0008CEF8C0F813A90F46C2F80911F019091A8
:1036E00020010E949225882329F08C2F0E94FE231E
:1036F0000E9468248C2F0E94F723BBCF80E28C0F9E
:10370000883048F4C77081E001C0880FCA95EAF795
:103710000E941F24AECFEBE5EC0FE33040F4F0E065
:10372000E553FE4F808190E0CF910C94C719E8E5F6
:10373000EC0FE73150F4F0E0EE0FFF1FE356FE4FC1
:1037400080819181CF910C94DD19C03F30F08C2F96
:103750000E94270ACF910C94FA0ACF9108958823EA
:1037600009F452C0823871F40E94931981FF4CC051
:1037700089E30E94F7230E94682489E30E94FE23C4
:103780000C946824833859F40E94931980FF3CC03C
:1037900083E50E94F7230E94682483E5EFCF8438F5
:1037A00059F40E94931982FF2FC087E40E94F723E7
:1037B0000E94682487E4E2CF9CEF980F913AF0F2E0
:1037C00090E2980F983050F4877091E001C0990F03
:1037D0008A95EAF7892F0E942524D2CF9BE5980F7E
:1037E000933020F490E080E00C94C71998E5980F8E
:1037F000973120F490E080E00C94DD19803F20F0B8
:103800000E94810A0C94FA0A08951F93CF93DF93C4
:10381000182FEB010E941D1B209731F4812FDF919F
:10382000CF911F910C94AF1B8FE99FE00197F1F7A7
:1038300000C000002197F0CF70E060E0893311F400
:1038400060E570E00C94051C882321F00E941F2481
:103850000C9468240895882321F00E9425240C9458
:1038600068240895BF92CF92DF92EF92FF920F9358
:103870001F93CF93DF936C01D62FC72FFC011281CA
:10388000058102950F700E941524E82E8823A1F06F
:10389000E12E112389F08C2F807F803429F080E283
:1038A0008D0FE12C883040F082E00E94B3240E940A
:1038B000152491E0E82EE926BC2EB2949FE0B922AF
:1038C000EB2DF0E0E758FF4C0C94422F0C2F0F70BB
:1038D000C07F11F00295007F1123A9F0002359F059
:1038E00080E28D0F883010F0D11109C0802F0E9426
:1038F0001F240E9468248D2F0E941D1B14C0802F3E
:103900000E942F24F6CF8D2F0E94AF1B002359F069
:1039100080E28D0F883010F0D1112CC0802F0E94D2
:1039200025240E9468242B2D2850330B2430310588
:1039300020F40E9493190E948D06EE2009F49EC186
:103940000E94112480FD9AC1F60112820E940B246C
:103950000E949722C6010E945F1E0E940B24DF91E5
:10396000CF911F910F91FF90EF90DF90CF90BF907C
:103970000C94B822802F0E943524D3CFFC2FFF70E7
:10398000FF2EC07FC03219F0F29480EFF822DD23C1
:1039900069F0D13049F1112391F1002351F1F60181
:1039A000858180FFA8CF8F70858323C0112381F08C
:1039B000011106C00E944F248F290E94241CB3CFFE
:1039C0000130C1F70E944F248F290E945524ABCFAC
:1039D000011106C00E945E248F2D0E942B1CA3CFD4
:1039E000013009F4A0CFF6CF112329F0063008F0FA
:1039F0009ACF8F2DE2CF053008F095CFEDCF002381
:103A000059F3D93349F4FFEF27EE33E0F15020406A
:103A10003040E1F700C000008D2F0E94AF1B83CF24
:103A20008C2F86958695837069F0813009F07BCF65
:103A30008D2F9C2F9370111102C090E080E00E94A6
:103A4000DD1971CF8D2F9C2F9370111102C090E062
:103A500080E00E94C71967CF8D2F112329F00E94A3
:103A6000270A0E94FA0A5FCF0E94810AFACF8C2FA0
:103A7000837009F041C0111156CF4D2F42954695E4
:103A80004770440F440F0D2F0F7010E030E020E01E
:103A9000042E04C0000F111F221F331F0A94D2F7F7
:103AA00060E070E0CB01D4FF0FC06FE070E080E019
:103AB00090E004C0660F771F881F991F4A95D2F7C0
:103AC0006095709580959095C695C695C370602B4E
:103AD000712B822B932BC23049F058F4C13019F06E
:103AE0000E94492220CF0E9437221DCF0E945B22D4
:103AF0001ACF0E94352217CF8695112311F08C2FF3
:103B00008170882309F40FCF4D2F42954695477059
:103B1000440F440F0D2F0F7010E030E020E0042E12
:103B200004C0000F111F221F331F0A94D2F760E058
:103B300070E0CB01D4FF0FC06FE070E080E090E058
:103B400004C0660F771F881F991F4A95D2F76095AA
:103B5000709580959095C695C695C370602B712B16
:103B6000822B932BC23049F058F4C13019F00E94D7
:103B70000E23D9CE0E94FC22D6CE0E942023D3CE83
:103B80000E947122D0CECF70112329F08C2F0E9479
:103B900097228D2F12CF8D2F0E942B1C8C2F0E94CD
:103BA000B822C1CED23F89F160F4D03FC9F0D13FF5
:103BB00029F1112309F442C001119DCE8C2F8F7180
:103BC00021C0D33F39F1D43FA1F7112369F1CF715F
:103BD0008C2F0E94972263E08C2F0E949E24A3CEFC
:103BE000112341F0053008F09ECE8C2F8F710E947A
:103BF000DB2299CE063008F096CEF7CF8C2F8F714E
:103C0000112369F20E9497228ECE8C2F8F7111237F
:103C1000C9F3C5CF112329F08C2F8F710E94822206
:103C200082CE0E947D227FCE81E00E94B3240230AA
:103C300008F479CE82E00E94B32475CE002359F0B7
:103C4000D93309F0E9CE8FEF97EEE3E08150904051
:103C5000E040E1F7DFCE8C2F8F71A1CF4C2F4F705A
:103C60006D2FC6010E9495060E94AD215CCE4C2F9F
:103C70004F706D2FC6010E94980655CEDF91CF91EF
:103C80001F910F91FF90EF90DF90CF90BF9008951C
:103C90000F931F93CF93DF93EC01688179818A8121
:103CA0000E94D3238C010E9432230E943422B80147
:103CB000CE01DF91CF911F910F910C94321CCF93C5
:103CC000DF93EC018B819C81892B29F0888199817C
:103CD00089238F3F59F4DF91CF910895CE010E943F
:103CE000481ECE01DF91CF910C94E204CE010E94D8
:103CF0006F058111F3CF0E941524882361F38A8117
:103D0000882349F382E0DF91CF910C94B32490E0B3
:103D100080E00E94C71990E080E00E94DD190E94B7
:103D20003C240E944C240E9468240E94210C0C9484
:103D3000FA0A0E9405240C94871E0E942C240C94DD
:103D4000991EE92FE295EF70E250EE3070F4F0E04A
:103D5000E757FF4C0C94422F803F19F020F4883E27
:103D600020F481E00895843FE1F380E00895883EE7
:103D7000C0F3813FD1F7F5CF93FB882780F90895F1
:103D80000E94C9230C94A11ECF93DF9300D000D0D2
:103D90000F92CDB7DEB70F900F900F900F900F904E
:103DA000DF91CF910895CF93DF9300D000D000D062
:103DB000CDB7DEB726960FB6F894DEBF0FBECDBFE7
:103DC000DF91CF9108951F93CF93DF93C0918E021F
:103DD00016E080918F028C1304C0DF91CF911F9168
:103DE0000895D0E01C9FF0011D9FF00D1124E057B5
:103DF000FD4F4081518162817381848195810E9450
:103E0000D31E2196C770E5CF4091C0025091C102E8
:103E10006091C2027091C3028091C4029091C50268
:103E20000C94D31E1F93CF93DF938091C502807FA4
:103E3000A9F48091C202882389F080918E02C091FA
:103E40008F026091C0027091C102A091C302B09133
:103E5000C402D62FD72316E0C81304C0DF91CF9138
:103E60001F91089590E0109711F0DF3F19F401962B
:103E70008770F2CF189F9001199F300D1124F9011E
:103E8000E057FD4F41814713F2CF40814613EFCFFA
:103E900042814111ECCF438154814A1B5B0B483C6A
:103EA000510528F78091C5028F7080618093C5020B
:103EB000F901EB56FD4F80818F708061808380EC2B
:103EC00092E00E945F1EDF91CF911F910C94E31E40
:103ED000AF92BF92CF92DF92EF92FF920F931F9318
:103EE000CF93DF93CDB7DEB761970FB6F894DEBFFF
:103EF0000FBECDBF8C0185E0F801DE011D9601905B
:103F00000D928A95E1F7F80140815181E28080ECC1
:103F1000C82E82E0D82E6091C3027091C402611550
:103F2000710509F461C19091C0022091C102892FED
:103F300082238F3F09F458C1A380B480F090C2025D
:103F4000F501E61BF70BFF2009F4FCC08091C502C8
:103F5000382F307FE83CF10508F0B2C0311179C04C
:103F6000FE2C251323C0941321C0E1101FC08F70B5
:103F700080618093C5020E94041FC6010E945F1EDB
:103F80008091C502F80185838F2D61960FB6F89454
:103F9000DEBF0FBECDBFDF91CF911F910F91FF907C
:103FA000EF90DF90CF90BF90AF900895AB2829F0AD
:103FB000842F85238F3F09F033C180E0F82FF17003
:103FC000DF2E80FF3CC080918E0220918F0236E070
:103FD000821315C04D875E878D859E850E94C923FB
:103FE000292F22952F702230F0F0243018F59F7081
:103FF000F1F0F8019581907FD1F4D12C1EC090E0B2
:10400000389FF001399FF00D1124E057FD4F618179
:10401000651306C06081641303C062816E110FC016
:1040200001968770D5CF9F7011F0882331F3805EA1
:10403000883018F3C8010E945F1EFD2CA5CFEE202A
:1040400009F4A2CF8091C50281608093C502F12C52
:104050009BCF251306C0941304C0F801EE2009F489
:104060008DC04D875E878D859E850E94C01E8823EA
:1040700019F1EE2009F18091C502803270F0209193
:10408000C0023091C10238872F831986BB86AA8669
:104090008C87CE0107960E945F1E86E0F801A0EC97
:1040A000B2E001900D928A95E1F70E94121F0E94E2
:1040B000041FFF24F39468CFC8010E945F1EF9CF4C
:1040C000311113C07A2DB98AA88A6E2D89890E9470
:1040D000C41E80EC92E00E945F1E86E0F601119201
:1040E0008A95E9F70E94041FB2CF25130FC09413DD
:1040F0000DC0E1100BC0F8018583C8010E945F1E4E
:1041000086E0F60111928A95E9F73ECF4D875E87EA
:104110008D859E850E94C01E882371F2EE2061F27B
:104120008091C502803208F4B8CF2091C00230914E
:10413000C1023A8329831B82BD82AC828E83CE0169
:104140000196A9CFE83CF10508F041C0FE2CEE2015
:1041500009F4B2CF25132AC0941328C08091C50258
:1041600080FD1BC0982F907FC1F0F8018583903FA0
:1041700031F0982F907F905F8F70892B8583C801D5
:104180000E945F1E86E0F801A0ECB2E001900D9263
:104190008A95E1F70E94041FF7CE86E0F801A0ECB3
:1041A000B2E001900D928A95E1F7EECE4D875E87E1
:1041B0008D859E850E94C01E81116FCF8091C502A2
:1041C00081608093C502C8010E945F1EDDCE7A2DFA
:1041D000B98AA88A6E2D89890E94C41E86E0F601DC
:1041E00011928A95E9F7D6CFEE2009F465CF4D8775
:1041F0005E878D859E850E94C01EF82E882309F457
:104200005BCF86E0F801A0ECB2E001900D928A95B8
:10421000E1F780EC92E00E94181B0E94121FBACFB7
:1042200081E08E25CBCE1F93CF93DF93CDB7DEB742
:104230002C970FB6F894DEBF0FBECDBF4F835887C3
:1042400069877A878B879C87CE0107960E94681FB3
:10425000882369F08A859B85892B39F04F815885A1
:10426000842F85238F3F09F071C016E05FC086E080
:10427000FE013796DE01119601900D928A95E1F7C5
:104280008A859B85892B89F38F81988589238F3F28
:1042900061F320918F0230E0C90101968770992760
:1042A00040918E024817190671F40E949D1E1092CB
:1042B0008F0210928E0286E0E0ECF2E0DF011D92A8
:1042C0008A95E9F7D2CF96E0929FD001939FB00DE7
:1042D0001124A057BD4FFE01319601900D929A9581
:1042E000E1F780938F020E94E31EBFCF819FC00140
:1042F000112480579D4F0E94681F8823E9F0E091A8
:104300008E021E9FF0011124E057FD4F4081518124
:1043100062817381848195810E94D31E80918E0277
:1043200090E001968770992780938E0280918E028B
:1043300090918F028913DACF2C960FB6F894DEBFD6
:104340000FBECDBFDF91CF911F91089569857A850A
:104350008B859C850E94D31E88CFEF92FF920F938E
:104360001F93CF93DF938C01892B81F0F12CEE24E6
:10437000E394E8012196F8018491843770F4843045
:1043800008F05FC08130B1F08230A1F1DF91CF91B0
:104390001F910F91FF90EF900895853709F44CC05D
:1043A00008F43DC09CE7980F903780F78F770E9404
:1043B000AF1B49C00E5F1F4FFE01849190E2980F22
:1043C000983060F48770FE2D01C0FF0F8A95EAF7E0
:1043D0008F2F0E943F240E94682402C00E941D1B50
:1043E0008F2D815030F2EFE9FFE03197F1F700C0F7
:1043F0000000F7CF0E5F1F4FFE01849190E2980FEF
:10440000983050F48770FE2D01C0FF0F8A95EAF7AF
:104410008F2F0E944524DFCF0E94AF1BE1CF0E5F9C
:104420001F4FFE01C491C150D8F28FE99FE0019760
:10443000F1F700C00000F7CF0E5F1F4FFE01F490B0
:10444000CFCF0E941D1B8E01CBCF08950C94252247
:104450000E9426226093100370931103809312032D
:10446000909313030C94871E08950C9428220F93A5
:104470001F930091100310911103209112033091AA
:104480001303602B712B822B932B1F910F910C9494
:1044900028220F931F930091100310911103209174
:1044A00012033091130360237123822393231F91FE
:1044B0000F910C9428220F931F93009110031091D9
:1044C0001103209112033091130360277127822773
:1044D00093271F910F910C9428220C9425220C9461
:1044E0006D220E946F2260930C0370930D038093E2
:1044F0000E0390930F030C94871E60E070E0CB01D5
:104500000C9471220F931F9341E050E060E070E043
:104510008A019B0104C0000F111F221F331F8A95BF
:10452000D2F7C901B8011F910F910C9471220F931A
:104530001F9341E050E060E070E004C0440F551F5D
:10454000661F771F8A95D2F780910C0390910D0317
:10455000A0910E03B0910F038A019B01082B192B28
:104560002A2B3B2BC901B8011F910F910C9471228A
:104570000F931F9341E050E060E070E004C0440FEF
:10458000551F661F771F8A95D2F7CB01BA01609538
:1045900070958095909500910C0310910D032091DA
:1045A0000E0330910F0360237123822393231F9105
:1045B0000F910C9471220F931F9341E050E060E043
:1045C00070E004C0440F551F661F771F8A95D2F70D
:1045D00080910C0390910D03A0910E03B0910F03F5
:1045E0008A019B01082719272A273B27C901B801FF
:1045F0001F910F910C9471220F931F9300910C0344
:1046000010910D0320910E0330910F03602B712B3D
:10461000822B932B1F910F910C9471220F931F9358
:1046200000910C0310910D0320910E0330910F03A4
:1046300060237123822393231F910F910C94712285
:104640000F931F9300910C0310910D0320910E0303
:1046500030910F0360277127822793271F910F91B5
:104660000C947122089529E0929F800D1124982FB7
:10467000977041E001C0440F9A95EAF786958695B8
:10468000869595E0899FF0011124EA53FD4F90E053
:1046900080E070E05191DF0111979B01082E02C06C
:1046A000369527950A94E2F7217021952527242332
:1046B00025272C9301968530910561F7089529E00F
:1046C000929F800D1124982F9770869586958695D8
:1046D00025E0829FF0011124EA53FD4F50E040E0B5
:1046E00080E0219130E0092E02C0369527950A948A
:1046F000E2F721703327042E01C0220F0A94EAF753
:10470000822B4F5F5F4F4530510559F70895BF9297
:10471000CF92DF92EF92FF920F931F93CF93DF938D
:104720008C01C0900C03D0900D03E0900E03F0902C
:104730000F038091100390911103A0911203B09187
:104740001303C82AD92AEA2AFB2ACFE1D0E0BC2EDB
:10475000D701C6010C2E04C0B695A79597958795ED
:104760000A94D2F780FD0EC0219788F7B12C8B2DCB
:10477000DF91CF911F910F91FF90EF90DF90CF903D
:10478000BF900895B8018C2F0E94A106019761F394
:10479000EECFCF93DF93EC010E948723BE01DF9120
:1047A000CF910C94A1061F93CF93DF93EB019091CF
:1047B0008D02992331F0CB01DF91CF911F910C94A1
:1047C000C923882379F0CB010E948723182F682FF3
:1047D000CE010E943323BE01812FDF91CF911F9123
:1047E0000C94A106CB010E945F23182FF4CF682FF1
:1047F00080911F01909120010C941226682F8091C6
:104800001F01909120010C941D2680911F01909111
:1048100020010C9428268091140385958595859513
:1048200008958091140387700895909114039770F0
:1048300081E009F480E00895809138030895909113
:104840003803892B8093380308958095909138031D
:104850009823909338030895109238030895909107
:104860003703892B80933703089580959091370300
:1048700098239093370308951092370308959091E9
:104880003603892B809336030895809590913603E3
:1048900098239093360308951092360308958091DB
:1048A0001503089508950C945224909115039817B8
:1048B00021F0809315030C945324089580911503DF
:1048C000882329F01092150380E00C945324089556
:1048D000E0911F01F0912001809138038083E091E5
:1048E0001F01F0912001808190913703892B8083F3
:1048F000E0911F01F0912001808190913603892B76
:10490000808390911503992381F0E0911F01F0912C
:1049100020018081892B808380911F01909120014B
:104920000E947E2581110E945E2480911F0190913A
:1049300020010C949F1908950C949B2498E0899F62
:1049400090011124622B609314030E94972280919E
:1049500014038595859585950C949C2410921403D9
:1049600080E00C949C24909114038095892380937B
:104970001403282F277071F4282F082E000C330BF6
:104980009217130639F08595859585950E94B82272
:104990000C94AE24089580E008956FEF7FEF90E0CF
:1049A00080E00C941B3090E080E00E94F72F21E023
:1049B0008B3E9E4F09F020E0822F089582E090E028
:1049C0000C94E92F83E090E00C94E92FCF9384E0DE
:1049D00090E00E94E92FC82F81E290E00E94E92F29
:1049E000982F8C2FCF910895CF93C92F682F84E0F3
:1049F00090E00E94FD2F6C2F81E290E0CF910C940B
:104A0000FD2FAB01BC018FE090E00C940F30AB01A7
:104A1000BC0183E190E00C940F3060E070E0CB01CA
:104A20000C94072560E070E0CB010E9401250C94F6
:104A30000D256BEE7EEF90E080E00E941B3060E081
:104A400082E090E00E94FD2F60E083E090E00E9411
:104A5000FD2F109210031092110310921203109266
:104A6000130360E084E090E00E94FD2F60E081E2AB
:104A700090E00E94FD2F60E085E090E00E94FD2F15
:104A800060E086E090E00E94FD2F6FEF87E090E00D
:104A90000E94FD2F40E050E0BA0188E090E00E94C3
:104AA0000F3060E08DE090E00E94FD2F40E050E08C
:104AB000BA0188E190E00E940F3060E087E190E069
:104AC0000E94FD2F40E050E0BA018CE190E00E948E
:104AD0000F3060E080E290E00E94FD2F40E050E067
:104AE000BA0188E190E00E940F300C9412250C94DA
:104AF0001925682F8EE090E00C94FD2FFC01329672
:104B000080912B01882321F08091D2039EE187FFC1
:104B100096E080E0915008F4089521912223D1F38A
:104B20008F5FF8CF662301F120912B012223F1F052
:104B30002091D20327FF1AC0462F469546954695E9
:104B40004E3190F4677021E030E002C0220F331F35
:104B50006A95E2F7840F911DFC01828190E0282381
:104B6000392381E0232B69F480E00895FC0132961B
:104B700008962191261721F0E817F907D1F7F4CF0D
:104B800081E008959C01FC0132969FEF80E0419105
:104B9000461751F09F3F19F4411101C0982F8F5FC4
:104BA0008630A9F79F3F09F40895290F311D97FD1D
:104BB0003A95F90162830895FC0132960896219195
:104BC000261303C0DF0111971C92E817F907B9F704
:104BD0000895E62FE695E695E695EE3168F4E80F40
:104BE000F92FF11D677021E030E001C0220F6A95B6
:104BF000EAF78281822B82830895E62FE695E69577
:104C0000E695EE3170F4E80FF92FF11D677021E0A1
:104C100030E001C0220F6A95EAF7209582812823AF
:104C20002283089520912B01222329F02091D20381
:104C300027FD0C94E9250C94C22520912B012223F9
:104C400029F02091D20327FD0C94FD250C94DC253E
:104C5000FC01329680912B01882351F08091D20380
:104C600087FF06C08EE1DF011D928A95E9F708955E
:104C700086E0F9CF089508950C943B268091D803DF
:104C8000843059F10E943C2680E00E948D060E94EB
:104C90001B1210923A0388E190E020E40FB6F894DA
:104CA000A895809360000FBE2093600083B7817F3A
:104CB000846083BF83B7816083BF7894889583B70E
:104CC0008E7F83BF0FB6F894A895809160008861AD
:104CD00080936000109260000FBE08950895CF93F6
:104CE0000E943A260E94E6080E946E26C0E08C2FA1
:104CF0000E949608892B31F4CF5FCC30C1F780E059
:104D0000CF91089581E0FCCF08950C9484260E94F1
:104D10009D1E0E9493190E948D060E94E7120C941A
:104D200085261F921FB61F9211248F939F93AF93D6
:104D3000BF9380913A03811113C08091CE0390916B
:104D4000CF03A091D003B091D1034196A11DB11D15
:104D50008093CE039093CF03A093D003B093D1035D
:104D6000BF91AF919F918F911F901FBE1F9018957B
:104D700082E084BD93E095BD9AEF97BD80936E006D
:104D800008952FB7F8948091CE039091CF03A0910E
:104D9000D003B091D1032FBF08952FB7F89460913D
:104DA000CE037091CF038091D0039091D1032FBF98
:104DB00008959C014FB7F8948091CE039091CF0352
:104DC000A091D003B091D1034FBF821B930B0895E4
:104DD00078941F921FB61F9211248F939F93AF93C5
:104DE000BF938091CE039091CF03A091D003B09157
:104DF000D1030196A11DB11D8093CE039093CF03E3
:104E0000A093D003B093D103BF91AF919F918F91A5
:104E10001F901FBE1F90189581E08093E00080E2F4
:104E20008093D8001092C9008FE19EE40197F1F7BA
:104E300000C0000087E090EBDC018093E1039093D9
:104E4000E203A093E303B093E40388E19CE00FB690
:104E5000F894A895809360000FBE90936000FFCFF8
:104E60009093DF018093DE0108950C947B140E94DF
:104E7000E6088FE39CE90197F1F700C000000E946B
:104E8000E60881E00E94960880FF04C00E94352752
:104E90000C940C2708950E94D324811102C00E9413
:104EA00077250E94DE24809339030E94E6249093A4
:104EB000D3038093D2030E94E224682F70E090E035
:104EC00080E00E94352260910C0370910D03809167
:104ED0000E0390910F030C946F2280915B03089551
:104EE000CF93DF9300D00F92CDB7DEB79091D80368
:104EF000943011F589837B836A839093E9008FEF67
:104F00009091E800815095FD06C095ED9A95F1F7D6
:104F100000008111F5CF8091E80085FF0DC050E0C1
:104F200040E063E070E0CE0101960E94FE2980918E
:104F3000E8008E778093E8000F900F900F90DF913C
:104F4000CF910895BC0184E00C947027BC0183E0EC
:104F50000C9470279C0184E08093E9009FEF80917E
:104F6000E800915085FD06C085ED8A95F1F70000B7
:104F70009111F5CF8091E80085FF0CC050E040E032
:104F800066E070E0C9010E94FE298091E8008E77FA
:104F90008093E8000895CF93DF93EC0180912B017B
:104FA0008823B1F18091D20387FF32C060E284E0B0
:104FB0008093E9008FEF9091E800815095FD06C045
:104FC00095ED9A95F1F700008111F5CF8091E800F9
:104FD00085FF1BC080912B0170E050E040E0811103
:104FE00004C050E040E068E070E0CE010E94FE297D
:104FF0008091E8008E778093E80080E2FE01ABE3C9
:10500000B3E001900D928A95E1F7DF91CF91089579
:1050100068E081E0CDCFCF93FC01603221F5809133
:10502000D803843001F5C091E900CF702091EC00E5
:10503000922F917020FD90E8C92B82E08093E900C7
:105040008091E80080FF0CC050E040E060E270E03A
:10505000CF010E94FE298091E8008E778093E800BE
:10506000CF70C093E900CF9108958091D70381114B
:1050700009C00E94DD2B0E943A2C8091E2008460DE
:105080008093E20008951092D7030895089508953B
:10509000089542E061EC81E00E94592B42E261EC0C
:1050A00084E00E94592B42E261EC82E00E94592B7D
:1050B00042E260EC83E00C94592B8091DA03833058
:1050C00009F461C030F48130D1F1823009F49DC01F
:1050D00008958A3009F489C08B3009F46FC0893093
:1050E00009F050C08091D903813209F04BC0809102
:1050F000DD039091DE03009719F0029709F042C09A
:105100008091E800877F8093E8008091E80082FF2B
:1051100035C09091F3008091F200029729F48091BC
:10512000F1008B7F813021F48091F10080935B034B
:105130008091E8008B778093E8000C948D2B809110
:10514000D903813AF9F48091E800877F8093E800E1
:105150008091DD039091DE03892B61F460E28BE3A3
:1051600093E070E00E949C2A8091E8008B77809306
:10517000E800089560E090E080E0F3CF8091D803EC
:105180008111C3CF08958091D903813AD9F78091D5
:10519000DD039091DE03892BA9F78091E800877FDA
:1051A0008093E8008091E80080FFFCCF80912B0184
:1051B0008093F1008091E8008E77BDCF8091D90374
:1051C000813201F78091DD039091DE03892BD1F6C6
:1051D0008091E800877F8093E8000E948D2B80916A
:1051E000DB0380932B010C949D1E8091D9038132A7
:1051F00049F68091E800877F8093E8000E948D2B1C
:105200008091DC0380935C0308958091D903813AF7
:1052100009F0B8CF8091E800877F8093E800809103
:10522000E80080FFFCCF80915C03C2CFCDB7DEB732
:10523000A0970FB6F894DEBF0FBECDBF84B7877FAF
:1052400084BF0FB6F894A895809160008861809320
:105250006000109260000FBE80E890E00FB6F894F6
:1052600080936100909361000FBE0E94121A0E9409
:10527000DD2B0E943A2C8091E20084608093E20052
:1052800078940E94C32E0E94221A81E291E00E942B
:105290008E1913E08091D8038530C9F00E942E1A30
:1052A0008091D8038430D1F00E94201A0E94211AE4
:1052B000F1CF0E943E268091D603882341F00E94C0
:1052C0006F26882321F00E94E8290E949D1E80916C
:1052D000D803853071F30E948726E0CF1093E90050
:1052E0008091E80082FFE0CF8091E80090E085FFA8
:1052F00009C050E040E060E270E0CE0101960E94FB
:105300004D2A91E08091E8008B778093E800992303
:1053100059F260E2CE0101960E943315C5CF0C947C
:105320009129292F33272330310521F168F42130C9
:10533000310509F443C02230310509F444C090E03E
:1053400080E030E020E026C02132310551F12232E8
:105350003105A9F76330710590F7FB01EE0FFF1FD0
:10536000EF52FE4F2081318162537E4FFB018081DD
:1053700090E010C099278130910581F0009729F0C5
:105380000297E9F6E6EDF6E002C0E2EFF6E084917E
:1053900090E09F01FA01318320830895E6EEF6E064
:1053A000F6CF6330710558F6660F771FFB01E9529F
:1053B000FE4F2081318189E090E0ECCF82E190E0E6
:1053C00021E537E0E7CF8BE590E026EF36E0E2CF4E
:1053D00080E189BD82E189BD09B400FEFDCF8091E5
:1053E000D8008F7D8093D8008091E0008260809308
:1053F000E0008091E00081FDFCCF0895AF92BF9264
:10540000CF92DF92FF920F931F93CF93DF936C01A4
:10541000EB018A010E94AC2BF82E811123C00115EB
:10542000110539F0F80180819181C81BD90BC80E94
:10543000D91EB12CA12C2097A9F08091E80085FD00
:1054400022C08091E8008E778093E8000115110555
:10545000A1F0F80180819181A80EB91EB182A082CD
:1054600085E0F82E8F2DDF91CF911F910F91FF9046
:10547000DF90CF90BF90AF9008950E94AC2B88230F
:10548000D1F2F82EEFCFF60181916F018093F100F8
:105490002197FFEFAF1ABF0ACECFAF92BF92CF9244
:1054A000DF92FF920F931F93CF93DF936C01EB0179
:1054B0008A010E94AC2BF82E811123C00115110521
:1054C00039F0F80180819181C81BD90BC80ED91E13
:1054D000B12CA12C2097A9F08091E80085FD22C075
:1054E0008091E8008B778093E80001151105A1F009
:1054F000F80180819181A80EB91EB182A08285E059
:10550000F82E8F2DDF91CF911F910F91FF90DF909B
:10551000CF90BF90AF9008950E94AC2B8823D1F21A
:10552000F82EEFCF8091F100F60181936F01219762
:10553000FFEFAF1ABF0ACECFFC018091DF0390913D
:10554000E00386179707A0F06115710529F4909183
:10555000E8009E779093E80090E06115710551F4A2
:10556000911108C08091E80082FF34C080E0089566
:10557000BC01F2CF8091D8038823C1F18530C1F1FD
:105580008091E80083FD30C08091E80082FDEACF81
:105590008091E80080FFE1CF8091F3002091F2003C
:1055A000382F6115710519F02830310558F091E058
:1055B0002830310509F090E02091E8002E77209303
:1055C000E800CBCF81918093F100615071092F5F8A
:1055D0003F4FE7CF8091D803882341F0853041F0D9
:1055E0008091E80083FFBECF81E0089582E00895B6
:1055F00083E00895FC018091DF039091E00386171A
:105600009707A0F06115710529F48091E8008E7765
:105610008093E80090E06115710551F4911108C084
:105620008091E80082FF35C080E00895BC01F2CF90
:105630008091D8038823C9F18530C9F18091E800B1
:1056400083FD31C08091E80082FDEACF8091E800BF
:1056500080FFE1CF8091F3002091F200382F611597
:10566000710519F02830310558F091E028303105E6
:1056700009F090E08091E8008E778093E800CBCF2E
:1056800084918093F1003196615071092F5F3F4FF3
:10569000E6CF8091D803882341F0853041F0809196
:1056A000E80083FFBDCF81E0089582E0089583E0A4
:1056B0000895982F973028F08F708093E90081E04B
:1056C00008959093E900242F762F50E0981731F039
:1056D0007091EC002091ED005091F00021FD02C08E
:1056E0009F5FE8CF3091EB003E7F3093EB0030912D
:1056F000ED003D7F3093ED003091EB003160309351
:10570000EB007093EC002093ED005093F00020919B
:10571000EE0027FDE5CF80E008958091D90387FF53
:1057200013C08091E80082FF06C08091E8008B776B
:105730008093E80004C08091D8038111F2CF0895CE
:105740008091D8038823D9F38091E80080FFF8CFB7
:105750008091E8008E77ECCF2091E4003091E50055
:1057600095E6A9012091EC00822F817020FF06C0F0
:105770008091E80080FF06C080E008952091E80055
:1057800022FD1AC08091D803882389F0853089F0E2
:105790008091EB0085FD0FC02091E4003091E50081
:1057A00042175307F9F29150E1F684E0089582E040
:1057B000089583E0089581E008950E944B2C0E9493
:1057C000532CE0EEF0E0808181608083E8EDF0E032
:1057D00080818F77808319BCA7EDB0E08C918E7F9C
:1057E0008C9380818F7E80831092D70308950F93CE
:1057F0001F93CF93DF930E944B2C0E94532CC8ED34
:10580000D0E088818F7788838881806888838881C9
:105810008F7D888319BC1092D8031092D403109204
:10582000D6031092D50300EE10E0F80180818B7F43
:10583000808388818160888342E060E080E00E940C
:10584000592BE1EEF0E080818E7F8083E2EEF0E084
:10585000808181608083808188608083F80180817D
:105860008E7F8083888180618883DF91CF911F91B3
:105870000F910895E8EDF0E080818F7E8083E7ED61
:10588000F0E080818160808384E082BF81E080934A
:10589000D7030C94F72BE8EDF0E080818E7F8083B6
:1058A0001092E20008951092DA001092E10008953B
:1058B0001F920F920FB60F9211242F933F934F9385
:1058C0005F936F937F938F939F93AF93BF93EF9368
:1058D000FF938091E10082FF0BC08091E20082FF84
:1058E00007C08091E1008B7F8093E1000E94C22E6F
:1058F0008091DA0080FF19C08091D80080FF15C028
:105900008091DA008E7F8093DA008091D90080FF49
:1059100096C080E189BD82E189BD09B400FEFDCF5A
:1059200081E08093D8030E9435288091E10080FFB8
:1059300019C08091E20080FF15C08091E2008E7F47
:105940008093E2008091E20080618093E200809188
:10595000D80080628093D80019BC85E08093D8037A
:105960000E9447288091E10084FF2BC08091E200D3
:1059700084FF27C080E189BD82E189BD89B5982F68
:10598000917080FFFBCF8091D8008F7D8093D800ED
:105990008091E1008F7E8093E1008091E2008F7E14
:1059A0008093E2008091E20081608093E200809128
:1059B000D403882309F449C084E08093D8030E946B
:1059C00048288091E10083FF29C08091E20083FF95
:1059D00025C08091E100877F8093E10082E0809381
:1059E000D8031092D4038091E1008E7F8093E10070
:1059F0008091E2008E7F8093E2008091E2008061DE
:105A00008093E20042E060E080E00E94592B8091A8
:105A1000F00088608093F0000E944628FF91EF918B
:105A2000BF91AF919F918F917F916F915F914F91B6
:105A30003F912F910F900FBE0F901F90189519BC9A
:105A40001092D8030E94432870CF8091E30087FD15
:105A500093E09093D803B3CF1F920F920FB60F929B
:105A600011242F933F934F935F936F937F938F9363
:105A70009F93AF93BF93CF93DF93EF93FF93D09117
:105A8000E900DF708091EC00C82FC17080FDC0E894
:105A90001092E9008091F000877F8093F000789465
:105AA0000E94702D1092E9008091F0008860809330
:105AB000F000CD2BCF70C093E900FF91EF91DF9103
:105AC000CF91BF91AF919F918F917F916F915F9196
:105AD0004F913F912F910F900FBE0F901F901895EF
