:100000000C94AD020C94F4020C94F4020C94F402DF
:100010000C94F4020C94F4020C94F4020C94F40288
:100020000C94F4020C94F4020C9460220C9434238B
:100030000C94991C0C94F4020C94F4020C94F402A9
:100040000C94F4020C94F4020C94F4020C94F40258
:100050000C94F4020C94F01C0C94F4020C94F40232
:100060000C94F4020C94F4020C94F4020C94F40238
:100070000C94F4020C94F4020C94F4020C94F40228
:100080000C94F4020C94F4020C94F4020C94F40218
:100090000C94F4020C94F4020C94F4020C94F40208
:1000A0000C94F4020C94F4020C94F402165C1E00FE
:1000B0001F0020002100220023002400250026002C
:1000C00027002D002E002A0000002B0014001A002B
:1000D0000800150017001C0018000C001200130087
:1000E0002F00300035000000390004001600070022
:1000F00009000A000B000D000E000F003300340051
:10010000280031000000E10031001D001B00060046
:100110001900050011001000360037003800E50016
:1001200001510000E000E300E20000002C000000AC
:100130002C00000000002C00E600E600E700E400D0
:1001400000000100010001000100010001000100A8
:100150000100010001000100010001000100000098
:100160000100010001000100010001000100010087
:100170000100010001000100010001000000010078
:100180000100010001000100010001000100010067
:100190000100010001000100010000000100010058
:1001A0000100010001000100010001000100010047
:1001B0000100010001000100000001000100010038
:1001C000000001000000010000000000010001002B
:1001D0000100010001000000010001000100010018
:1001E0000100010001000100010001000100010007
:1001F00001000100000001000100010001000100F8
:1002000001000100010001000100010001000100E6
:1002100001000000010001000100010001000100D7
:1002200001000100010001000100010001000100C6
:1002300000000100010001000100010001000100B7
:1002400001000100010001000100010001000000A7
:100250000100010001000000010000000100000099
:100260000000010001000100010001000000010088
:100270000100010001000100010001000100010076
:100280000100010001000100010000000100010067
:100290000100010001000100010001000100010056
:1002A0000100010001000100000001000100010047
:1002B0000100010001000100010001000100010036
:1002C0000100010001000000010001000100010027
:1002D0000100010001000100010001000100010016
:1002E0000100010000000100010001000000010008
:1002F00000000100000000000100010001000100F9
:100300000100000000000000000000002A2B28006F
:1003100000000000000000000000000000000029B4
:10032000000000002C1E3420212224342627252EF4
:10033000362D3738271E1F2021222324252633332C
:10034000362E37381F0405060708090A0B0C0D0E58
:100350000F101112131415161718191A1B1C1D2F24
:100360003130232D350405060708090A0B0C0D0E44
:100370000F101112131415161718191A1B1C1D2F04
:100380003130354C0000000000000000000000008B
:10039000000000000000000000000000000000005D
:1003A00000000000000000007E0F00D4FFFFFFC728
:1003B000000000780E036A0065006C0073003600D0
:1003C000300000000A036A0065006C007300000042
:1003D0000403090409025B00030100A0FA090400F8
:1003E0000001030101000921110100012240000761
:1003F00005810308000A0904010002030000000946
:1004000021110100012222000705820320000107BB
:100410000503032000010904020001030000000994
:10042000211101000122B6000705840320000A12F1
:10043000011001000000086A0060000100010200D4
:10044000010660FF0961A1010962150026FF009500
:1004500020750881020963150026FF0095207508A4
:100460009102C005010902A10185020901A100054F
:100470000919012908150025019508750181020552
:1004800001093009311581257F950275088106091A
:10049000381581257F950175088106050C0A3802FB
:1004A0001581257F950175088106C0C00501098069
:1004B000A101850319012AB700150126B70095018E
:1004C00075108100C0050C0901A101850419012ADC
:1004D000A002150126A002950175108100C005013A
:1004E0000906A1018505050719E029E71500250181
:1004F0009508750181020507190029EF15002501EE
:1005000095F0750181020508190129059505750108
:100510009102950175039101C005010906A101052C
:100520000719E029E7150025019508750181029555
:1005300001750881010507190029FF150026FF0034
:1005400095067508810005081901290595057501AD
:100550009102950175039101C00011241FBECFEFD8
:10056000DAE0DEBFCDBF04B603FE27C08091AC0247
:100570009091AD02A091AE02B091AF028730904B46
:10058000A740B04BD1F41092AC021092AD02109281
:10059000AE021092AF0214BE84B7877F84BF0FB63D
:1005A000F894A89580916000886180936000109213
:1005B00060000FBEE0E0F8E3099511E0A0E0B1E0D3
:1005C000E4E3FBE402C005900D92AA39B107D9F724
:1005D00022E0AAE9B1E001C01D92AC3AB207E1F70E
:1005E0000E941E1F0C945D250C940000279A0C9409
:1005F0001D10CF93C82F0E94EE04882319F0C1FF6D
:1006000003C02F9ACF9108952F98FCCF81E00895D1
:1006100081E008950C94080308950C940C031F9333
:10062000CF93DF9300D000D00F92CDB7DEB74983D0
:100630005A836B833091C90189819A8131111DC020
:100640006623B9F02223A9F00E949319182F682F6E
:1006500089819A810E943F1969817A81812F0F9047
:100660000F900F900F900F90DF91CF911F910C94EE
:10067000C80C0E946B19182FEFCF0E949319698143
:100680007A81EDCFFC01262F4081518162817381F7
:1006900084810C940F03CF93DF93EC0160E00E9400
:1006A0004203BE01DF91CF910C940D038F929F9274
:1006B000AF92BF92CF92DF92EF92FF920F931F9370
:1006C0006B017C0181E090E0A0E0B0E04C015D01B5
:1006D00004C0880C991CAA1CBB1C4A95D2F7B50112
:1006E000A4014C015D0104C0880C991CAA1CBB1C10
:1006F0002A95D2F7482959296A297B2904C0880FED
:10070000991FAA1FBB1F0A95D2F78A019B010C21D2
:100710001D212E213F21041715072607370789F4CD
:100720008C299D29AE29BF29BC01CD011F910F91B4
:10073000FF90EF90DF90CF90BF90AF909F908F9001
:10074000089580959095A095B0958C219D21AE211E
:10075000BF21EACF0F93382F262F6091340270917A
:1007600035028091360290913702042F432F0E9468
:1007700056030F910C947D180E943F1D0E94DF1AB2
:10078000811102C00E94831B0C94F4060C94F7069E
:1007900008950E94A9140E94C8032FEF84E39CE0EF
:1007A000215080409040E1F700C000000C94141DDF
:1007B0000F931F93CF93DF93EC0161E00E944203FC
:1007C0008C01BE010E94100B882359F1BE01C801A3
:1007D0000E940A03882329F1BE01C8010E94FF0D6F
:1007E0008823F9F0BE01C8010E94510E8823C9F088
:1007F000BE01C8010E94740F882399F08A81882362
:1008000039F001158CE5180751F00E3D1C4579F0C3
:10081000CE01DF91CF911F910F910C9406030E949E
:10082000C90380E0DF91CF911F910F9108950E943D
:10083000831BF7CFDF92EF92FF920F931F93CF931B
:10084000DF93E82FF0E0EC5FFC4FD490282F269543
:100850002695269530E0F901EC55FC4F0491877000
:1008600010E0082E02C0159507950A94E2F7017072
:100870001127F901EC56FC4FE490F12C082E02C030
:10088000F594E7940A94E2F791E0E922FF24F90154
:10089000EC57FC4FC491D0E002C0D595C7958A951E
:1008A000E2F7C170DD270115110519F081EE0E94F4
:1008B0002911E114F10419F086EE0E9429118D2D01
:1008C0000E942812EF2819F086EE0E94BB11012B1E
:1008D00019F081EE0E94BB11CD2B51F08CE2DF911B
:1008E000CF911F910F91FF90EF90DF900C94281201
:1008F000DF91CF911F910F91FF90EF90DF900895BE
:10090000EF92FF920F931F93CF93DF93EC01162F7B
:100910000AE08881882309F454C0813009F04EC070
:100920008981813099F47E0122E0E20EF11C8A81F6
:100930000E942812E7012196812F815050F3EFE9A0
:10094000FFE03197F1F700C00000F7CF823041F4AB
:100950007E0182E0E80EF11C8A810E942911EACF13
:10096000833041F47E01E2E0EE0EF11C8A810E94A8
:10097000BB11E0CF843011F02196DDCF2A81229681
:1009800090E080E0AE014F5F5F4F2053330B2A3081
:10099000310548F0019778F2EFE9FFE03197F1F780
:1009A00000C00000F7CF089FB001099F700D11240F
:1009B000C901860F971F2981EA01E4CF0E941A041A
:1009C000BACFDF91CF911F910F91FF90EF900895D3
:1009D00060E00C94800408950C94EB0481E0089589
:1009E000CF93C82F0E94EC048C2FCF910C94F90266
:1009F00090E080E008950895FC01EE0FFF1FEC5495
:100A0000FC4F859194910895CF93DF930E94C80C79
:100A10000E941906EC01811520E5920708F042C0FA
:100A2000811530E4930708F0BDC0883E910528F594
:100A3000803E910508F09DC0883A910588F4853A7A
:100A4000910508F08FC08130910509F492C000979C
:100A500009F48FC0049708F08CC0D0E0C0E089C0D2
:100A60008F3B910508F489C0805C9109C03CD10599
:100A7000A0F30E94FC04EC017CC08115904250F46C
:100A8000C11581E0D80708F074C0C03FD10528F334
:100A9000D0656FC0C11590E3D90708F079C0CE01C9
:100AA0009F70E7CF811525E5920758F5811534E54C
:100AB000930708F0A6C0811542E5940750F4C115CC
:100AC00081E5D80708F471C0DC2FCC27C16FD06A4C
:100AD00050C0982F969596959E0123703327C11587
:100AE000D34508F07FC0C1E0D0E002C0CC0FDD1FCD
:100AF0002A95E2F720E2929FC0011124C82BD92B3E
:100B00006FC0C11589E5D807A8F4C11598E5D907C4
:100B100008F07CC0C11526E5D20708F09ECF8C2FC7
:100B20000E94B006C82FD0E0DC2FCC27CC27DF7185
:100B3000D0621FC0C1153AE5D30708F46CC0CE01DE
:100B400090568115904208F088CF8D2F8F710E94AA
:100B5000B00690E0982F882788279F719C012C2B46
:100B6000E901E6CFC55AD0E0CD5BDE4FC881D0E0C9
:100B7000D064CE01DF91CF910895C85AD0E0CC0F58
:100B8000DD1FCB5EDE4F0990D881C02DD464F1CF3C
:100B9000CE019927D3FF03C0EC01D86CEACFEC015A
:100BA000D06CE7CFDF70D06AE4CFCE01E4E0969559
:100BB0008795EA95E1F783702C2F2695269523706B
:100BC00090E2299F90011124382B8C2F8370C1E073
:100BD000D0E002C0CC0FDD1F8A95E2F7C22BD32BE9
:100BE000DC68C7CFC1E0D0E002C0CC0FDD1F2A9582
:100BF000E2F730E2939FC0011124C82BD92BDA68A9
:100C0000B8CFD82FCC27C46FD06AB3CFDC2FCC2776
:100C1000C06FD06AAECF8C2F8F700E94B00634E0C8
:100C2000D695C7953A95E1F7CF709C2FEC01D06926
:100C3000A0CF82389105B1F1B0F48133910509F468
:100C400075C048F48932910509F469C08A3291056A
:100C500009F473C008958533910509F459C08933A7
:100C6000910501F10895833E9105A9F138F4803E84
:100C70009105F9F0823E910549F10895863E91056E
:100C8000A9F1873E9105C9F1843E910519F520919E
:100C90009E0221FF1FC080919D0284FD14C087EE3B
:100CA00090E0089520919D022370A1F080EE90E0E5
:100CB000089520919D0220FD47C030919E0230FF93
:100CC00009C024FF44C090E080E004C020919D0250
:100CD00022FDF7CF089520919D0222FD3BC0309167
:100CE0009E0230FDE3CF24FFF5CFEDCF20919D0292
:100CF00023FFF0CF24FDE7CFD2CF20919D0223FD2B
:100D00002CC030919E0231FFEECF84EE90E008952A
:100D100020919D0225FFDECF89E290E00895209189
:100D20009D0225FFD7CF85E390E0089520919D0295
:100D300026FFD0CF8AE290E0089520919D0226FF01
:100D4000C9CF81E390E0089589E390E0089583EEB0
:100D500090E0089582EE90E0089586EE90E0089588
:100D600090919D0292FF06C0282F28712830F9F437
:100D7000877F846093FF06C0282F28712831F1F403
:100D8000877E846120919E0220FF06C0382F387133
:100D90003830D9F4877F816021FF06C0282F287161
:100DA0002831D1F4877E816194FD877E0895282FB4
:100DB00024712430F9F68B7F8860DCCF282F2471D2
:100DC000243101F78B7E8861DDCF382F31713130CE
:100DD00019F78E7F8860E0CF282F2171213121F70C
:100DE0008E7E8861E1CF08950C94F30608950C94EB
:100DF000F606E82FF0E0EE0FFF1FE157FD4F808170
:100E000091810895089580EA8A95F1F7089500C0C8
:100E100008950C940307F894E82FE295EF70F0E042
:100E200031A1282F2F7081E090E001C0880F2A9512
:100E3000EAF7982F9095932391A392A1892B82A3EF
:100E4000789408950F931F93CF93DF9383E30E94C9
:100E50000B0781E90E940B0780EF0E940B0784EFCC
:100E60000E940B0781EF0E940B07C6E4D1E005E565
:100E700011E089910E940B070C171D07D1F7109202
:100E80008602109285021092900210928F021092A8
:100E90008802109287021092920210929102109290
:100EA0008A02109289021092940210929302109278
:100EB0008C0210928B021092960210929502109260
:100EC0008E0210928D02109298021092970285E085
:100ED0000E94F407DF91CF911F910F910C94BC03F6
:100EE000AF92BF92CF92DF92EF92FF920F931F9338
:100EF000CF93DF9305E511E0C5E8D2E0C12CD12CFA
:100F0000EE24E394F12CF80181918F01F894E82FFD
:100F1000E295EF70F0E021A18F70A70102C0440FAD
:100F2000551F8A95E2F7CA01922F982B91A392A19F
:100F30008095892382A378940E940707E6E4F1E074
:100F400030E020E0B12CA12C4191A42FA295AF70EC
:100F5000B0E090968C9190E04F7002C09595879587
:100F60004A95E2F780FD3BC0C701022E02C0880F00
:100F7000991F0A94E2F7A82AB92A2F5F3F4F2F3012
:100F8000310511F7F801319780810E940B0754E079
:100F9000C5120E94090788819981A816B90611F126
:100FA000B982A88281E0D82AC394229685E0C8122B
:100FB000AACF2D2D45E06FE872E085E892E00E940F
:100FC000F5070E94C6038D2DDF91CF911F910F91E0
:100FD000FF90EF90DF90CF90BF90AF90089590E09A
:100FE00080E0C9CF80E0DFCF0895FF920F931F9379
:100FF000CF93DF93F82E092F162FD72FC42F22233C
:1010000049F081E080939E010E94C91C90939D014C
:1010100080939C0180919E018823A1F080919C0186
:1010200090919D010E94E11C069760F0EF2DF02F3A
:10103000A12FBD2F90E080E0D0E08C179D0744F0F9
:1010400010929E01DF91CF911F910F91FF90089513
:10105000219131912D933D930196EFCF8091A50180
:1010600080FF12C06091050185E0689FB0011124E6
:10107000759567957595679560387105A8F5611543
:101080007105A1F1862F089581FF09C060910501C6
:1010900085E0689FB001112475956795EDCF60914B
:1010A000050182FD0AC08091A4018823D1F09091AE
:1010B000040160910501891728F085E0689FB0015F
:1010C0001124DACF869FB001112485E0869F90011C
:1010D000879F300D1124692F70E0C9010E94E6241A
:1010E000CBCF65E070E0CECF8FE7089581E0089523
:1010F0008091A50180FF0CC06091010170E07595A1
:101100006795759567956115710549F1862F089565
:1011100081FF06C06091010170E075956795F3CF7E
:101120006091010182FD0BC09091A3019923A1F070
:101130006091000180910101961738F0682F70E0EE
:101140006038710500F38FE70895899FC00111246D
:1011500070E00E94E624F4CF61E070E0D7CF81E038
:101160000895803F31F40E942E0881958093A90153
:101170000895813F19F40E942E08F8CF823F31F480
:101180000E942E0881958093A8010895833F19F449
:101190000E942E08F8CF893F29F40E947808809396
:1011A000AA0108958A3F21F40E9478088195F7CF1B
:1011B0008B3F31F40E94780881958093AB010895AC
:1011C0008C3F19F40E947808F8CF9CE0980F953076
:1011D00070F4845F990B21E030E001C0220F8A9502
:1011E000EAF78091A701822B8093A70108958D3F94
:1011F00031F48091A50181608093A50108958E3F0F
:1012000021F48091A5018260F7CF8F3FB9F78091DB
:10121000A5018460F1CF4091A801803F59F48091ED
:10122000A90187FF0DC01092A90141110BC01092B6
:10123000A40108C0813F81F48091A90118169CF394
:10124000442381F08091AA019091AB01892B09F090
:101250005AC01092A3010895823F49F447FFF0CF8E
:101260001092A8018091A9018111ECCFE0CF833FBA
:1012700019F41416ACF3E4CF9091AA01893F29F434
:101280001916F4F61092AA01DBCF8A3F19F497FFE2
:10129000D7CFF8CF9091AB018B3F29F497FFD0CFF8
:1012A0001092AB01CDCF8C3F19F41916CCF3C8CFF7
:1012B0009CE0980F953090F4845F990B21E030E02A
:1012C000B90102C0660F771F8A95E2F7CB018095BE
:1012D0009091A70189238093A701B2CF8D3F31F46C
:1012E0008091A5018E7F8093A501AACF8E3F21F426
:1012F0008091A5018D7FF7CF8F3F09F0A1CF80911D
:10130000A5018B7FF0CF08950E94C91C9C0190918C
:10131000A8018091A901982B21F03093A20120937C
:10132000A1019091AA018091AB01982B21F03093FB
:10133000A00120939F0186EA91E00C94C90FEF92DF
:10134000FF920F931F93CF93DF9300D000D000D074
:10135000CDB7DEB786E0E6EAF1E0DE011196019056
:101360000D928A95E1F7E090A801F090A901009113
:10137000AA011091AB011092A8011092A90110923C
:10138000AA011092AB018E2D8F2991F08091A101BD
:101390009091A2010E94E11CAC019091A4019923BB
:1013A00009F43FC0809106018417150608F447C070
:1013B000802F812B91F080919F019091A0010E943C
:1013C000E11CAC019091A301992309F477C08091AD
:1013D00002018417150608F47FC08091A80190913E
:1013E000A901892B9091AA01892B9091AB01892B9E
:1013F00011F00E94840986E0FE013196A6EAB1E070
:1014000001900D928A95E1F726960FB6F894DEBF0B
:101410000FBECDBFDF91CF911F910F91FF90EF9045
:101420000895209107018AE0289F90011124241734
:10143000350708F0BDCF9F5F9093A40102C09F3F86
:10144000D1F7EE2059F00E942E089FEF1E140CF4E5
:1014500091E0899F802D11248093A801FF2059F0ED
:101460000E942E089FEF1F140CF491E0899F802D9D
:1014700011248093A9013091A801332309F498CF56
:101480002091A901222309F493CF45EB3403C00135
:101490001124992359F09093A80145EB240390015E
:1014A0001124332339F03093A90182CF81E0809356
:1014B000A801F3CF81E08093A9017ACF20910301A5
:1014C0008AE0289F900111242417350708F085CF62
:1014D0009F5F9093A30102C09F3FD1F7002359F073
:1014E0000E9478089FEF10160CF491E0899F802DE0
:1014F00011248093AA01112359F00E9478089FEFCC
:1015000011160CF491E0899F802D11248093AB017A
:101510003091AA01332309F460CF2091AB0122233B
:1015200009F45BCF45EB3403C0011124992359F032
:101530009093AA0145EB240390011124332339F041
:101540003093AB014ACF81E08093AA01F3CF81E0D1
:101550008093AB0142CF86E0E6EAF1E0DF011D9225
:101560008A95E9F71092A4011092A3011092A501A7
:10157000089582E290E00E941B25813289F483E283
:1015800090E00E941B25893059F484E290E00E948B
:101590001B2591E0803309F090E0892F8170089538
:1015A00080E0FCCFCF93C82F6FEF811161E282E220
:1015B00090E00E9429256FEFC11169E083E290E07D
:1015C0000E9429256FEFC11160E384E290E0CF9182
:1015D0000C94292580E00E94D20A0C94D91A08950F
:1015E00085E290E00E941B25682F70E090E080E08B
:1015F000089585E290E00C9429250E94EF0A0E944C
:10160000B90A81110CC060E070E0CB010E94F90AB8
:101610000E94400C0E942C0D81E00C94D20A089587
:10162000CF93FB01C281CC2309F19C0122513F459C
:101630002031310520F582510E943C0DC0E08C2FF5
:10164000CF91089581E00E94A31843E062E081E019
:101650000E94AA03F3CF81E00E94C41843E062E035
:1016600081E00E94AA03EBCF82E0F6CF8031FFE554
:101670009F0789F381319F45B9F3C1E0E0CF803105
:10168000EFE59E07F9F281319F45C9F682E0DBCF95
:101690002FEFFC0120830895EF92FF920F931F9389
:1016A000CF93DF93EC01062FE881E150E33108F09E
:1016B0005EC0F0E0E15AFA4D0C94FA24198289E0F8
:1016C0008A83602FCE01DF91CF911F910F91FF9000
:1016D000EF900C94131E8981823069F0833071F091
:1016E0008130D9F40E94D51C0E9400256A837B8337
:1016F0008C839D83E6CF0E94F00AF6CF7E0110E036
:10170000812F0E94F906F701928383831F5FF2E025
:10171000EF0EF11C1530A1F7D4CF602FCE010E943F
:10172000480BCFCF89818230C1F76A817B818C8160
:101730009D810E9400250E94F90AC3CF4B816A81D6
:1017400089810E94120C9827892798279D838C8372
:10175000B8CF2C813D813227232732274B816A81E4
:1017600089810E942B0CADCF0E94400CAACF8FEF35
:101770008883A7CF0E94D50C8983A3CF0E94D70C62
:101780009827892798279A8389839BCF6B8170E05C
:1017900089819A81AE014C5F5F4F982789279827EE
:1017A0000E94DA0C8ECF6B8170E089819A81AE0144
:1017B0004C5F5F4F9827892798270E94010D81CFA2
:1017C0000E942C0D7ECF0E94000CD6CF6B8170E062
:1017D00089819A81AE014C5F5F4F982789279827AE
:1017E0000E94780C6ECF6B8170E089819A81AE0186
:1017F0004C5F5F4F9827892798270E949E0C61CFE6
:1018000084E0089550E0440F551F9EE1699F400D0C
:10181000511D112496E9899F400D511D1124CA01C3
:10182000869608950F931F93CF93DF930E94020C27
:101830008C010E941B25C82FD0E0DC2FCC27C801CB
:1018400001960E941B259E01282BC901DF91CF9193
:101850001F910F9108950F931F93CF93DF93122F32
:10186000032F0E94020CEC01602F0E942925612F9A
:10187000CE010196DF91CF911F910F910C942925F4
:10188000AF92BF92CF92DF92EF92FF921F93CF93CE
:10189000DF938CEAC82E80E0D82ED0E07601C0E03D
:1018A00014C0F50125913491412F6C2F8D2F0E948A
:1018B0002B0C82E0A80EB11C1F5F1F3091F78EE148
:1018C000E80EF11CCF5FC53019F0570110E0E9CFE9
:1018D000DF5F86E9C80ED11CD43001F7DF91CF91CC
:1018E0001F91FF90EF90DF90CF90BF90AF90089541
:1018F000EF92FF920F931F93CF93DF93EC018A0136
:101900007C01E60EF71ECE018696CE15DF0539F472
:10191000DF91CF911F910F91FF90EF900895C835FF
:1019200022E0D20740F40E941B25F80180830F5F5C
:101930001F4F2196E8CFF8011082F9CFCF92DF92A6
:10194000EF92FF920F931F93CF93DF937C016A0175
:101950008C01060F171FEC01CE018696C017D10728
:1019600049F4DF91CF911F910F91FF90EF90DF909D
:10197000CF900895C83522E0D20740F4FE01EE1959
:10198000FF09EC0DFD1D60810E9429252196E4CF01
:10199000462F843038F4753028F46F3018F4672FF0
:1019A0000C94120C90E080E0089580E1089582E8A4
:1019B00091E00895EF92FF920F931F93CF93DF93DF
:1019C000EC018A017C01E60EF71ECE0182589D4F84
:1019D000CE15DF0539F4DF91CF911F910F91FF9064
:1019E000EF900895C23821E0D20740F40E941B25F1
:1019F000F80180830F5F1F4F2196E7CFF801108217
:101A0000F9CFCF92DF92EF92FF920F931F93CF9374
:101A1000DF937C016A018C01060F171FEC01CE01D8
:101A200082589D4FC017D10749F4DF91CF911F9184
:101A30000F91FF90EF90DF90CF900895C23821E092
:101A4000D20740F4FE01EE19FF09EC0DFD1D608187
:101A50000E9429252196E3CFCF93DF93CEE7D2E0F2
:101A600060E0CE010E9429252196C11584E0D807A7
:101A7000B9F7DF91CF910895DF92EF92FF920F9324
:101A80001F93CF93DF9300D000D0CDB7DEB7F82EF1
:101A90008FE08F1540F08FEF93E00E941B250EE73B
:101AA00012E08823C1F00F900F900F900F90DF91FC
:101AB000CF911F910F91FF90EF90DF900895011546
:101AC00084E0180781F3C8010E941B25811101C021
:101AD000FA940F5F1F4FF110F2CF19821A821B8206
:101AE0001C82DD24D39478018FEFE81AF80AC8012C
:101AF0000E941B2589831A828823A9F29FEF980FE1
:101B0000933078F48A83D9820E5F1F4FC7010E94F9
:101B10001B258B83882339F2CE0101960E94E804AD
:101B2000E2CF8701F9CF0F931F93CF93DF93C42F99
:101B3000D22FFC0182818823C9F04093AE010E941C
:101B4000C91C9093AD018093AC0180E28C0F88306A
:101B500008F050C0C77081E001C0880FCA95EAF74D
:101B6000DF91CF911F910F910C9430121091AE0123
:101B7000141335C08091AC019091AD010E94E11C1D
:101B8000883C910560F5C0E2CD0F1D17B9F080E2E9
:101B9000810F883040F4177081E001C0880F1A95DA
:101BA000EAF70E943712C83048F481E09D2F977001
:101BB00001C0880F9A95EAF70E943012802F0E9488
:101BC0002812C830B8F4D77081E001C0880FDA95C8
:101BD000EAF7DF91CF911F910F910C94371280E2B9
:101BE0008C0F883038F4C77081E001C0880FCA9527
:101BF000EAF7EFCFDF91CF911F910F9108950F93E7
:101C00009C01CB01233F4CE5340759F1A8F4283D52
:101C1000FCE53F0701F1293D4CE53407D1F1273DB3
:101C20003C4591F406E221EE41EE67ED7CE50E9431
:101C3000930D80E00F910895253FFCE53F07E9F003
:101C4000B0F0263F3C45F9F0FC018281882339F150
:101C50001092AE01EFCF07E225EE45EE68ED7CE590
:101C6000E6CF06E221EE40EE63EF7CE5E0CF07E24F
:101C700025EE44EE64EF7CE5DACF06E221EE42EE9B
:101C800065EF7CE5D4CF07E225EE46EE66EF7CE516
:101C9000CECF08E221E045EE69ED7CE5C8CF81E0DA
:101CA000C9CFCF93DF93EC01FB018281882309F434
:101CB00019C1C230FCE5DF07C0F1C6319CE5D90788
:101CC00030F09E012A5F3C452930310570F50E94B5
:101CD000F21A90939E0280939D02C031ECE5DE07DC
:101CE00009F4CFC008F05BC0C8308CE5D80709F410
:101CF000B6C088F5C430ECE5DE0709F4A8C0C0F42E
:101D0000C2308CE5D80709F49CC080919D028260A6
:101D1000C330DC4509F498C080919D0290919E02E9
:101D20000E94001B0E94A91480E0DF91CF910895CA
:101D300080919D028061C630ECE5DE0709F484C025
:101D400080919D028860C730DC4508F47DC0809199
:101D50009D02806279C0CC308CE5D80709F489C037
:101D600070F480919D028C60CA30ECE5DE0709F4C6
:101D70006BC008F478C080919D028E7F65C0CE3024
:101D80008CE5D80709F479C080919D028B7FCF3014
:101D9000DC4508F459C080919D028F7E55C0CB3F31
:101DA000ECE5DE0709F457C030F5C3318CE5D80700
:101DB00009F46FC078F4C131ECE5DE0709F465C0C1
:101DC000C231DC4509F0A8CF0E94A91480919D0280
:101DD0008F773AC0C5318CE5D80709F462C008F4A2
:101DE00076C080919E028160CA3FDC4509F094CFA5
:101DF00080939E0291CFCF3FFCE5DF0709F44DC0F1
:101E000088F480919E028D7FCD3F9CE5D90781F3B8
:101E100080919E028E7FCE3FDC4550F380919E02E2
:101E20008360E6CFC130FDE5DF0709F459C008F44F
:101E300044C080E0C230DD4509F06ECF0E94851BB2
:101E40006BCF80919D02816080939D0265CF8091D0
:101E50009D028460F9CF80919E028260C9CF8091FB
:101E60009D028064F1CF0E94A91480919D02806838
:101E7000EBCF80919D028D7FE7CF80919D02877F80
:101E8000E3CF80919D028F7DDFCF80919D028F7B7C
:101E9000DBCF80919D02837FD7CF80919E028C7F84
:101EA000A7CF80919D0282FB992790F921E092278C
:101EB00090FB82F990FB83F9C7CF80919E02982F07
:101EC000909591708E7F892B90FB81F991CF0E9424
:101ED000A91490919D02892F97FB87F98058B4CF60
:101EE00081E0ACCF81E021CFCF93DF93EB0186314E
:101EF0009C4511F50E94281A9A81992399F08A7AB3
:101F000091E009F490E09093AF01811109C089E25A
:101F10000E94031A0E94741A80E0DF91CF91089505
:101F200085E3F6CF8091AF01811104C089E20E9460
:101F30000A1AF0CF85E3FBCF81E0EFCF9093B50194
:101F40008093B4010895E091B401F091B501309708
:101F500021F00190F081E02D099480E00895E09156
:101F6000B401F091B501309799F02091140122232A
:101F700059F020919D0227FF07C0DC012C9111969A
:101F80002C93119725E02C930280F381E02D099486
:101F90000895E091B401F091B501309739F022E055
:101FA000DC012C930480F581E02D099408952091A3
:101FB000B2013091B3012817390771F09093B30142
:101FC0008093B201E091B401F091B501309721F016
:101FD0000680F781E02D099408952091B001309199
:101FE000B1012817390771F09093B1018093B001C6
:101FF000E091B401F091B501309721F00084F185B2
:10200000E02D099408950E94D51C6093C50170933A
:10201000C6018093C7019093C8016093C10170937A
:10202000C2018093C3019093C401089585B780686D
:1020300085BF85B7806885BF089508950895089580
:102040000C941F100E94161087ED9AE10E94381D13
:102050000E941E100C94F60281E008950C942C103E
:10206000089508950E94C01C0E9422070E94FD0A44
:102070000E94531D0C9420108F929F92AF92BF929A
:10208000CF92DF92EF92FF920F931F93CF93DF9344
:10209000CDB7DEB72A970FB6F894DEBF0FBECDBF1F
:1020A0000E9430100E9431100E94700781110E941E
:1020B000031057EB852E51E0952E10E000E0A02E86
:1020C000802F0E94F9066C01F401E190F1904F011C
:1020D000E816F90609F45CC08091610281FD0E9456
:1020E0000207C7018C259D25B12CEE24E394F12C29
:1020F0009C012E213F21232B09F444C00E942E1065
:102100008823A9F0BE82AF82CE20DF2081E0CD28D7
:1021100009F480E088870E94C91C8160782F9A8723
:1021200089874E815F8168858A850E94F210000F41
:10213000111FF801E954FE4F80819181E826F926AC
:10214000F182E0820E949F090E94A30F9091B60144
:102150008917A9F10E94A30F8093B6012A960FB6A2
:10216000F894DEBF0FBECDBFDF91CF911F910F91CD
:10217000FF90EF90DF90CF90BF90AF909F908F90A7
:102180000C94F004B394EE0CFF1CFFE0BF12B0CF30
:102190000F5F1F4F0530110509F091CF8FEF898335
:1021A0008A831B820E94C91C8160782F9D838C8347
:1021B00049815A816B818D810E94F210C3CF2A968A
:1021C0000FB6F894DEBF0FBECDBFDF91CF911F9148
:1021D0000F91FF90EF90DF90CF90BF90AF909F90C6
:1021E0008F900895DF92EF92FF920F931F93CF93FA
:1021F000DF93CDB7DEB72B970FB6F894DEBF0FBED7
:10220000CDBF7A878B87F42E052F162FE72ED82E79
:1022100061110E94481A1E821D827E2DEC82DD8291
:102220004F2D502F612F8D2D9E812B960FB6F89438
:10223000DEBF0FBECDBFDF91CF911F910F91FF90F9
:10224000EF90DF900C941F17FC01808191810C941A
:10225000D519CF93C82F882309F48BC08238C1F4D5
:102260000E94A30F81FD85C089E30E94031A0E948A
:10227000741A2FEF81EE94E0215080409040E1F7F6
:1022800000C0000089E30E940A1ACF910C94741ACE
:102290008338A1F40E94A30F80FD6BC083E50E94E8
:1022A000031A0E94741A2FEF81EE94E021508040AF
:1022B0009040E1F700C0000083E5E5CF8438A1F449
:1022C0000E94A30F82FD55C087E40E94031A0E945A
:1022D000741A2FEF81EE94E0215080409040E1F796
:1022E00000C0000087E4CFCF8CEF8C0F813A90F4D0
:1022F0006C2F80910801909109010E949E1B8823F8
:1023000029F08C2F0E940A1A0E94741A8C2F0E94A6
:10231000031ABBCF80E28C0F883048F4C77081E08D
:1023200001C0880FCA95EAF70E942B1AAECFEBE5E1
:10233000EC0FE33040F4F0E0E857FE4F808190E08E
:10234000CF910C94D70FE8E5EC0FE73150F4F0E0B3
:10235000EE0FFF1FE65AFE4F80819181CF910C94C2
:10236000ED0FC03F30F08C2F0E94B108CF910C943C
:102370008409CF910895882309F452C0823871F4FA
:102380000E94A30F81FF4CC089E30E94031A0E94A0
:10239000741A89E30E940A1A0C94741A833859F447
:1023A0000E94A30F80FF3CC083E50E94031A0E9495
:1023B000741A83E5EFCF843859F40E94A30F82FF8B
:1023C0002FC087E40E94031A0E94741A87E4E2CFA8
:1023D0009CEF980F913AF0F290E2980F983050F4F9
:1023E000877091E001C0990F8A95EAF7892F0E94C2
:1023F000311AD2CF9BE5980F933020F490E080E023
:102400000C94D70F98E5980F973120F490E080E076
:102410000C94ED0F803F20F00E940B090C9484096E
:1024200008951F93CF93DF93182FEB010E9429117A
:10243000209731F4812FDF91CF911F910C94BB1124
:102440008FE99FE00197F1F700C000002197F0CFDE
:1024500070E060E0893311F460E570E00C941112D3
:10246000882321F00E942B1A0C94741A0895882353
:1024700021F00E94311A0C94741A0895BF92CF92E1
:10248000DF92EF92FF920F931F93CF93DF936C0134
:10249000D62FC72FFC011281058102950F700E9473
:1024A000211AE82E8823A1F0E12E112389F08C2F28
:1024B000807F803429F080E28D0FE12C883040F05D
:1024C00082E00E94BF1A0E94211A91E0E82EE926BC
:1024D000BC2EB2949FE0B922EB2DF0E0EE58FA4DFD
:1024E0000C94FA240C2F0F70C07F11F00295007F1E
:1024F0001123A9F0002359F080E28D0F883010F0ED
:10250000D11109C0802F0E942B1A0E94741A8D2F9E
:102510000E94291114C0802F0E943B1AF6CF8D2FE4
:102520000E94BB11002359F080E28D0F883010F01B
:10253000D1112CC0802F0E94311A0E94741A2B2DA9
:102540002850330B2430310520F40E94A30F0E9441
:10255000F004EE2009F49EC10E941D1A80FD9AC16C
:10256000F60112820E94171A0E94A318C6010E9447
:102570006B140E94171ADF91CF911F910F91FF905A
:10258000EF90DF90CF90BF900C94C418802F0E94E2
:10259000411AD3CFFC2FFF70FF2EC07FC03219F03D
:1025A000F29480EFF822DD2369F0D13049F1112354
:1025B00091F1002351F1F601858180FFA8CF8F7042
:1025C000858323C0112381F0011106C00E945B1A8C
:1025D0008F290E943012B3CF0130C1F70E945B1ADD
:1025E0008F290E94611AABCF011106C00E946A1A9E
:1025F0008F2D0E943712A3CF013009F4A0CFF6CF60
:10260000112329F0063008F09ACF8F2DE2CF053044
:1026100008F095CFEDCF002359F3D93349F4FFEFFC
:1026200027EE33E0F15020403040E1F700C00000D9
:102630008D2F0E94BB1183CF8C2F8695869583703A
:1026400069F0813009F07BCF8D2F9C2F9370111191
:1026500002C090E080E00E94ED0F71CF8D2F9C2F83
:102660009370111102C090E080E00E94D70F67CFF5
:102670008D2F112329F00E94B1080E9484095FCF99
:102680000E940B09FACF8C2F837009F041C0111101
:1026900056CF4D2F429546954770440F440F0D2F4E
:1026A0000F7010E030E020E0042E04C0000F111F76
:1026B000221F331F0A94D2F760E070E0CB01D4FFF1
:1026C0000FC06FE070E080E090E004C0660F771FFD
:1026D000881F991F4A95D2F76095709580959095BF
:1026E000C695C695C370602B712B822B932BC2307D
:1026F00049F058F4C13019F00E94551820CF0E94BB
:1027000043181DCF0E9467181ACF0E94411817CF97
:102710008695112311F08C2F8170882309F40FCF37
:102720004D2F429546954770440F440F0D2F0F7063
:1027300010E030E020E0042E04C0000F111F221F23
:10274000331F0A94D2F760E070E0CB01D4FF0FC0D2
:102750006FE070E080E090E004C0660F771F881F94
:10276000991F4A95D2F76095709580959095C6957A
:10277000C695C370602B712B822B932BC23049F00E
:1027800058F4C13019F00E941A19D9CE0E940819C4
:10279000D6CE0E942C19D3CE0E947D18D0CECF70F9
:1027A000112329F08C2F0E94A3188D2F12CF8D2F6B
:1027B0000E9437128C2F0E94C418C1CED23F89F1DB
:1027C00060F4D03FC9F0D13F29F1112309F442C090
:1027D00001119DCE8C2F8F7121C0D33F39F1D43F91
:1027E000A1F7112369F1CF718C2F0E94A31863E028
:1027F0008C2F0E94AA1AA3CE112341F0053008F0B5
:102800009ECE8C2F8F710E94E71899CE063008F06B
:1028100096CEF7CF8C2F8F71112369F20E94A318E7
:102820008ECE8C2F8F711123C9F3C5CF112329F0C0
:102830008C2F8F710E948E1882CE0E9489187FCEB5
:1028400081E00E94BF1A023008F479CE82E00E9433
:10285000BF1A75CE002359F0D93309F0E9CE8FEFB6
:1028600097EEE3E081509040E040E1F7DFCE8C2F1F
:102870008F71A1CF4C2F4F706D2FC6010E94F804AD
:102880000E94B9175CCE4C2F4F706D2FC6010E946D
:10289000FB0455CEDF91CF911F910F91FF90EF90E8
:1028A000DF90CF90BF9008950F931F93CF93DF9346
:1028B000EC01688179818A810E94DF198C010E9474
:1028C0003E190E944018B801CE01DF91CF911F91AF
:1028D0000F910C943E12CF93DF93EC018B819C817E
:1028E000892B29F08881998189238F3F59F4DF91C1
:1028F000CF910895CE010E945414CE01DF91CF9163
:102900000C944B03CE010E94D8038111F3CF0E9497
:10291000211A882361F38A81882349F382E0DF91B9
:10292000CF910C94BF1A90E080E00E94D70F90E006
:1029300080E00E94ED0F0E94481A0E94581A0E94DF
:10294000741A0E94AB0A0C9484090E94111A0C9408
:1029500093140E94381A0C94A514E92FE295EF7095
:10296000E250EE3070F4F0E0EE57FA4D0C94FA2499
:10297000803F19F020F4883E20F481E00895843FE0
:10298000E1F380E00895883EC0F3813FD1F7F5CFB1
:1029900093FB882780F908950E94D5190C94AD14F3
:1029A000CF93DF9300D000D00F92CDB7DEB70F905A
:1029B0000F900F900F900F90DF91CF910895CF93CC
:1029C000DF9300D000D000D0CDB7DEB726960FB68B
:1029D000F894DEBF0FBECDBFDF91CF9108951F9356
:1029E000CF93DF93C091CA0116E08091CB018C1385
:1029F00004C0DF91CF911F910895D0E01C9FF0019A
:102A00001D9FF00D1124E453FE4F408151816281DE
:102A10007381848195810E94DF142196C770E5CF70
:102A20004091FC015091FD016091FE017091FF0108
:102A300080910002909101020C94DF141F93CF93B8
:102A4000DF9380910102807FA9F48091FE018823A9
:102A500089F08091CA01C091CB016091FC01709115
:102A6000FD01A091FF01B0910002D62FD72316E0FF
:102A7000C81304C0DF91CF911F91089590E0109783
:102A800011F0DF3F19F401968770F2CF189F900183
:102A9000199F300D1124F901E453FE4F4181471372
:102AA000F2CF40814613EFCF42814111ECCF4381F9
:102AB00054814A1B5B0B483C510528F78091010269
:102AC0008F70806180930102F901EF52FE4F808187
:102AD0008F70806180838CEF91E00E946B14DF9196
:102AE000CF911F910C94EF14AF92BF92CF92DF92CF
:102AF000EF92FF920F931F93CF93DF93CDB7DEB783
:102B000061970FB6F894DEBF0FBECDBF8C0185E094
:102B1000F801DE011D9601900D928A95E1F7F8010A
:102B200040815181E2808CEFC82E81E0D82E6091E7
:102B3000FF01709100026115710509F461C1909166
:102B4000FC012091FD01892F82238F3F09F458C198
:102B5000A380B480F090FE01F501E61BF70BFF2087
:102B600009F4FCC080910102382F307FE83CF10568
:102B700008F0B2C0311179C0FE2C251323C0941384
:102B800021C0E1101FC08F708061809301020E94FC
:102B90001015C6010E946B1480910102F801858313
:102BA0008F2D61960FB6F894DEBF0FBECDBFDF91BB
:102BB000CF911F910F91FF90EF90DF90CF90BF903A
:102BC000AF900895AB2829F0842F85238F3F09F01B
:102BD00033C180E0F82FF170DF2E80FF3CC0809180
:102BE000CA012091CB0136E0821315C04D875E8764
:102BF0008D859E850E94D519292F22952F70223010
:102C0000F0F0243018F59F70F1F0F8019581907F75
:102C1000D1F4D12C1EC090E0389FF001399FF00D07
:102C20001124E453FE4F6181651306C06081641373
:102C300003C062816E110FC001968770D5CF9F705F
:102C400011F0882331F3805E883018F3C8010E94A8
:102C50006B14FD2CA5CFEE2009F4A2CF80910102C8
:102C6000816080930102F12C9BCF251306C0941341
:102C700004C0F801EE2009F48DC04D875E878D8574
:102C80009E850E94CC14882319F1EE2009F18091D1
:102C90000102803270F02091FC013091FD013887F3
:102CA0002F831986BB86AA868C87CE0107960E9441
:102CB0006B1486E0F801ACEFB1E001900D928A95BB
:102CC000E1F70E941E150E941015FF24F39468CFAF
:102CD000C8010E946B14F9CF311113C07A2DB98A43
:102CE000A88A6E2D89890E94D0148CEF91E00E94F1
:102CF0006B1486E0F60111928A95E9F70E9410158F
:102D0000B2CF25130FC094130DC0E1100BC0F80112
:102D10008583C8010E946B1486E0F60111928A95A2
:102D2000E9F73ECF4D875E878D859E850E94CC1446
:102D3000882371F2EE2061F280910102803208F462
:102D4000B8CF2091FC013091FD013A8329831B8289
:102D5000BD82AC828E83CE010196A9CFE83CF105FD
:102D600008F041C0FE2CEE2009F4B2CF25132AC092
:102D7000941328C08091010280FD1BC0982F907F82
:102D8000C1F0F8018583903F31F0982F907F905FDC
:102D90008F70892B8583C8010E946B1486E0F8012F
:102DA000ACEFB1E001900D928A95E1F70E94101509
:102DB000F7CE86E0F801ACEFB1E001900D928A9574
:102DC000E1F7EECE4D875E878D859E850E94CC14FF
:102DD00081116FCF80910102816080930102C8014F
:102DE0000E946B14DDCE7A2DB98AA88A6E2D89894E
:102DF0000E94D01486E0F60111928A95E9F7D6CFA9
:102E0000EE2009F465CF4D875E878D859E850E94F3
:102E1000CC14F82E882309F45BCF86E0F801ACEFE0
:102E2000B1E001900D928A95E1F78CEF91E00E945C
:102E300024110E941E15BACF81E08E25CBCE1F93A0
:102E4000CF93DF93CDB7DEB72C970FB6F894DEBFE4
:102E50000FBECDBF4F83588769877A878B879C8742
:102E6000CE0107960E947415882369F08A859B8598
:102E7000892B39F04F815885842F85238F3F09F0A6
:102E800071C016E05FC086E0FE013796DE01119644
:102E900001900D928A95E1F78A859B85892B89F3AC
:102EA0008F81988589238F3F61F32091CB0130E09A
:102EB000C9010196877099274091CA0148171906E0
:102EC00071F40E94A9141092CB011092CA0186E0FD
:102ED000ECEFF1E0DF011D928A95E9F7D2CF96E0A1
:102EE000929FD001939FB00D1124A453BE4FFE01B9
:102EF000319601900D929A95E1F78093CB010E9453
:102F0000EF14BFCF819FC001112484539E4F0E94B4
:102F100074158823E9F0E091CA011E9FF001112485
:102F2000E453FE4F40815181628173818481958198
:102F30000E94DF148091CA0190E001968770992762
:102F40008093CA018091CA019091CB018913DACF95
:102F50002C960FB6F894DEBF0FBECDBFDF91CF9198
:102F60001F91089569857A858B859C850E94DF1461
:102F700088CFEF92FF920F931F93CF93DF938C0133
:102F8000892B81F0F12CEE24E394E8012196F801DD
:102F90008491843770F4843008F05FC08130B1F0E0
:102FA0008230A1F1DF91CF911F910F91FF90EF90AF
:102FB0000895853709F44CC008F43DC09CE7980F8C
:102FC000903780F78F770E94BB1149C00E5F1F4F6B
:102FD000FE01849190E2980F983060F48770FE2D86
:102FE00001C0FF0F8A95EAF78F2F0E944B1A0E94AB
:102FF000741A02C00E9429118F2D815030F2EFE91E
:10300000FFE03197F1F700C00000F7CF0E5F1F4FD0
:10301000FE01849190E2980F983050F48770FE2D55
:1030200001C0FF0F8A95EAF78F2F0E94511ADFCF58
:103030000E94BB11E1CF0E5F1F4FFE01C491C15032
:10304000D8F28FE99FE00197F1F700C00000F7CFB9
:103050000E5F1F4FFE01F490CFCF0E9429118E0109
:10306000CBCF08950C9431180E9432186093380227
:103070007093390280933A0290933B020C9493141C
:1030800008950C9434180F931F93009138021091F7
:10309000390220913A0230913B02602B712B822B36
:1030A000932B1F910F910C9434180F931F93009141
:1030B00038021091390220913A0230913B0260238C
:1030C0007123822393231F910F910C9434180F9333
:1030D0001F93009138021091390220913A023091E9
:1030E0003B0260277127822793271F910F910C9431
:1030F00034180C9431180C9479180E947B18609342
:1031000034027093350280933602909337020C9408
:10311000931460E070E0CB010C947D180F931F9323
:1031200041E050E060E070E08A019B0104C0000FC4
:10313000111F221F331F8A95D2F7C901B8011F91B1
:103140000F910C947D180F931F9341E050E060E0C5
:1031500070E004C0440F551F661F771F8A95D2F791
:103160008091340290913502A0913602B0913702DD
:103170008A019B01082B192B2A2B3B2BC901B80173
:103180001F910F910C947D180F931F9341E050E015
:1031900060E070E004C0440F551F661F771F8A95DA
:1031A000D2F7CB01BA01609570958095909500910A
:1031B000340210913502209136023091370260239B
:1031C0007123822393231F910F910C947D180F93E9
:1031D0001F9341E050E060E070E004C0440F551FD1
:1031E000661F771F8A95D2F780913402909135023D
:1031F000A0913602B09137028A019B010827192756
:103200002A273B27C901B8011F910F910C947D1803
:103210000F931F93009134021091350220913602D2
:1032200030913702602B712B822B932B1F910F91C2
:103230000C947D180F931F93009134021091350266
:103240002091360230913702602371238223932329
:103250001F910F910C947D180F931F9300913402CE
:103260001091350220913602309137026027712784
:10327000822793271F910F910C947D1808952FE0BA
:10328000929F800D1124982F977041E001C0440F48
:103290009A95EAF786958695869595E0899FF0013F
:1032A0001124EE5FFD4F90E080E070E05191DF016E
:1032B00011979B01082E02C0369527950A94E2F7D4
:1032C000217021952527242325272C9301968530CD
:1032D000910561F708952FE0929F800D1124982F9A
:1032E000977086958695869525E0829FF00111243A
:1032F000EE5FFD4F50E040E080E0219130E0092E8C
:1033000002C0369527950A94E2F721703327042EE0
:1033100001C0220F0A94EAF7822B4F5F5F4F4530BE
:10332000510559F70895BF92CF92DF92EF92FF9225
:103330000F931F93CF93DF938C01C0903402D090F2
:103340003502E0903602F090370280913802909179
:103350003902A0913A02B0913B02C82AD92AEA2A3E
:10336000FB2ACFE1D0E0BC2ED701C6010C2E04C051
:10337000B695A795979587950A94D2F780FD0EC0CC
:10338000219788F7B12C8B2DDF91CF911F910F9151
:10339000FF90EF90DF90CF90BF900895B8018C2FF1
:1033A0000E940405019761F3EECFCF93DF93EC0108
:1033B0000E949319BE01DF91CF910C9404051F93D5
:1033C000CF93DF93EB019091C901992331F0CB01A9
:1033D000DF91CF911F910C94D519882379F0CB01FF
:1033E0000E949319182F682FCE010E943F19BE0129
:1033F000812FDF91CF911F910C940405CB010E9486
:103400006B19182FF4CF682F809108019091090152
:103410000C941E1C682F80910801909109010C9456
:10342000291C80910801909109010C94341C809111
:103430003C02859585958595089580913C0287701D
:10344000089590913C02977081E009F480E008951E
:1034500080916002089590916002892B80936002B0
:10346000089580959091600298239093600208954A
:1034700010926002089590915F02892B80935F0201
:103480000895809590915F02982390935F0208952C
:1034900010925F02089590915E02892B80935E02E4
:1034A0000895809590915E02982390935E0208950E
:1034B00010925E02089580913D02089508950C9443
:1034C0005E1A90913D02981721F080933D020C9472
:1034D0005F1A089580913D02882329F010923D02E1
:1034E00080E00C945F1A0895E0910801F0910901C1
:1034F000809160028083E0910801F0910901808150
:1035000090915F02892B8083E0910801F09109017D
:10351000808190915E02892B808390913D02992356
:1035200081F0E0910801F09109018081892B80836D
:1035300080910801909109010E948A1B81110E94CB
:103540006A1A80910801909109010C94AF0F0895B7
:103550000C94A71A98E0899F90011124622B609324
:103560003C020E94A31880913C0285958595859523
:103570000C94A81A10923C0280E00C94A81A909126
:103580003C028095892380933C02282F277071F498
:10359000282F082E000C330B9217130639F085954F
:1035A000859585950E94C4180C94BA1A089580E0F8
:1035B00008956FEF7FEF90E080E00C94472590E056
:1035C00080E00E94232521E08B3E9E4F09F020E001
:1035D000822F089582E090E00C941B2583E090E018
:1035E0000C941B25CF9384E090E00E941B25C82FEC
:1035F00081E290E00E941B25982F8C2FCF91089597
:10360000CF93C92F682F84E090E00E9429256C2F6A
:1036100081E290E0CF910C942925AB01BC018FE0B1
:1036200090E00C943B25AB01BC0183E190E00C944D
:103630003B2560E070E0CB010C94131B60E070E070
:10364000CB010E940D1B0C94191B6BEE7EEF90E0DA
:1036500080E00E94472560E082E090E00E942925FA
:1036600060E083E090E00E942925109238021092D9
:10367000390210923A0210923B0260E084E090E03E
:103680000E94292560E081E290E00E94292560E007
:1036900085E090E00E94292560E086E090E00E94AD
:1036A00029256FEF87E090E00E94292540E050E057
:1036B000BA0188E090E00E943B2560E08DE090E058
:1036C0000E94292540E050E0BA0188E190E00E9484
:1036D0003B2560E087E190E00E94292540E050E032
:1036E000BA018CE190E00E943B2560E080E290E02E
:1036F0000E94292540E050E0BA0188E190E00E9454
:103700003B250C941E1B0C94251B682F8EE090E02B
:103710000C942925FC01329680911401882321F014
:1037200080919D029EE187FF96E080E0915008F431
:10373000089521912223D1F38F5FF8CF662301F101
:10374000209114012223F1F020919D0227FF1AC03D
:10375000462F4695469546954E3190F4677021E088
:1037600030E002C0220F331F6A95E2F7840F911DEB
:10377000FC01828190E02823392381E0232B69F426
:1037800080E00895FC01329608962191261721F0D9
:10379000E817F907D1F7F4CF81E008959C01FC0107
:1037A00032969FEF80E04191461751F09F3F19F408
:1037B000411101C0982F8F5F8630A9F79F3F09F410
:1037C0000895290F311D97FD3A95F90162830895F7
:1037D000FC01329608962191261303C0DF01119750
:1037E0001C92E817F907B9F70895E62FE695E695D4
:1037F000E695EE3168F4E80FF92FF11D677021E0CE
:1038000030E001C0220F6A95EAF78281822B828321
:103810000895E62FE695E695E695EE3170F4E80F0B
:10382000F92FF11D677021E030E001C0220F6A9589
:10383000EAF720958281282322830895209114019C
:10384000222329F020919D0227FD0C94F51B0C9456
:10385000CE1B20911401222329F020919D0227FDE7
:103860000C94091C0C94E81BFC0132968091140105
:10387000882351F080919D0287FF06C08EE1DF0111
:103880001D928A95E9F7089586E0F9CF0895089585
:103890000C94471C8091A302843049F10E94481C7B
:1038A00080E00E94F0041092620288E190E020E43F
:1038B0000FB6F894A895809360000FBE2093600027
:1038C00083B7817F846083BF83B7816083BF78942F
:1038D000889583B78E7F83BF0FB6F894A8958091A3
:1038E0006000886180936000109260000FBE0895B0
:1038F0000895CF930E94461C0E9470070E94781C76
:10390000C0E08C2F0E94F906892B31F4CF5FC530BF
:10391000C1F780E0CF91089581E0FCCF08950C9429
:103920008E1C0E94A9140E94A30F0E94F0040C9404
:103930008F1C1F921FB61F9211248F939F93AF93DA
:10394000BF9380916202811113C08091990290917E
:103950009A02A0919B02B0919C024196A11DB11DBB
:103960008093990290939A02A0939B02B0939C0239
:10397000BF91AF919F918F911F901FBE1F9018957F
:1039800082E084BD93E095BD9AEF97BD80936E0071
:1039900008952FB7F8948091990290919A02A0917E
:1039A0009B02B0919C022FBF08952FB7F8946091AD
:1039B000990270919A0280919B0290919C022FBF74
:1039C00008959C014FB7F8948091990290919A02C2
:1039D000A0919B02B0919C024FBF821B930B089554
:1039E00078941F921FB61F9211248F939F93AF93C9
:1039F000BF938091990290919A02A0919B02B091FD
:103A00009C020196A11DB11D8093990290939A0288
:103A1000A0939B02B0939C02BF91AF919F918F9115
:103A20001F901FBE1F90189581E08093E00080E2F8
:103A30008093D8001092C9008FE19EE40197F1F7BE
:103A400000C0000087E090EBDC018093AC02909313
:103A5000AD02A093AE02B093AF0288E19CE00FB636
:103A6000F894A895809360000FBE90936000FFCFFC
:103A700090939B0180939A0108950C94EA0A0E9406
:103A800070078FE39CE90197F1F700C000000E94E6
:103A9000700780E00E94F90680FF04C00E943D1D6F
:103AA0000C94141D08950E94DF1A811102C00E9417
:103AB000831B0E94EA1A809361020E94F21A90937B
:103AC0009E0280939D020E94EE1A682F70E090E0A3
:103AD00080E00E944118609134027091350280911B
:103AE0003602909137020C947B18809183020895DE
:103AF000CF93DF9300D00F92CDB7DEB79091A302A2
:103B0000943011F589837B836A839093E9008FEF6A
:103B10009091E800815095FD06C095ED9A95F1F7DA
:103B200000008111F5CF8091E80085FF0DC050E0C5
:103B300040E063E070E0CE0101960E940620809193
:103B4000E8008E778093E8000F900F900F90DF9140
:103B5000CF910895BC0184E00C94781DBC0183E0F2
:103B60000C94781D9C0184E08093E9009FEF809184
:103B7000E800915085FD06C085ED8A95F1F70000BB
:103B80009111F5CF8091E80085FF0CC050E040E036
:103B900066E070E0C9010E9406208091E8008E77FF
:103BA0008093E8000895CF93DF93EC018091140196
:103BB0008823B1F180919D0287FF32C060E284E0EA
:103BC0008093E9008FEF9091E800815095FD06C049
:103BD00095ED9A95F1F700008111F5CF8091E800FD
:103BE00085FF1BC08091140170E050E040E081111E
:103BF00004C050E040E068E070E0CE010E94062082
:103C00008091E8008E778093E80080E2FE01A3E6D1
:103C1000B2E001900D928A95E1F7DF91CF9108957E
:103C200068E081E0CDCFCF93FC01603221F5809137
:103C3000A302843001F5C091E900CF702091EC001F
:103C4000922F917020FD90E8C92B82E08093E900CB
:103C50008091E80080FF0CC050E040E060E270E03E
:103C6000CF010E9406208091E8008E778093E800C3
:103C7000CF70C093E900CF9108958091A202811185
:103C800009C00E94E5210E9442228091E2008460E6
:103C90008093E20008951092A20208950895089575
:103CA000089542E061EC81E00E94612142E261EC12
:103CB00084E00E94612142E261EC82E00E94612185
:103CC00042E260EC83E00C9461218091A502833094
:103CD00009F461C030F48130D1F1823009F49DC023
:103CE00008958A3009F489C08B3009F46FC0893097
:103CF00009F050C08091A402813209F04BC080913C
:103D0000A8029091A902009719F0029709F042C009
:103D10008091E800877F8093E8008091E80082FF2F
:103D200035C09091F3008091F200029729F48091C0
:103D3000F1008B7F813021F48091F1008093830228
:103D40008091E8008B778093E8000C949521809116
:103D5000A402813AF9F48091E800877F8093E8001B
:103D60008091A8029091A902892B61F460E283E618
:103D700092E070E00E94A4208091E8008B7780930D
:103D8000E800089560E090E080E0F3CF8091A30226
:103D90008111C3CF08958091A402813AD9F780910F
:103DA000A8029091A902892BA9F78091E800877F4A
:103DB0008093E8008091E80080FFFCCF809114019F
:103DC0008093F1008091E8008E77BDCF8091A402AE
:103DD000813201F78091A8029091A902892BD1F636
:103DE0008091E800877F8093E8000E949521809170
:103DF000A602809314010C94A9148091A40281322C
:103E000049F68091E800877F8093E8000E94952121
:103E10008091A7028093840208958091A402813A40
:103E200009F0B8CF8091E800877F8093E800809107
:103E3000E80080FFFCCF80918402C2CFCDB7DEB70F
:103E4000A0970FB6F894DEBF0FBECDBF84B7877FB3
:103E500084BF0FB6F894A895809160008861809324
:103E60006000109260000FBE80E890E00FB6F894FA
:103E700080936100909361000FBE0E9422100E9407
:103E8000E5210E9442228091E20084608093E2005A
:103E900078940E94CB240E9432108AE091E00E9424
:103EA0009E0F13E08091A3028530C9F00E943C1060
:103EB0008091A3028430D1F00E9430100E94311012
:103EC000F1CF0E944A1C8091A102882341F00E94F8
:103ED000791C882321F00E94F01F0E94A914809170
:103EE000A302853071F30E94911CE0CF1093E9008A
:103EF0008091E80082FFE0CF8091E80090E085FFAC
:103F000009C050E040E060E270E0CE0101960E94FE
:103F1000552091E08091E8008B778093E800992309
:103F200059F260E2CE0101960E944C0BC5CF0C9471
:103F3000991F292F33272330310521F168F42130CF
:103F4000310509F443C02230310509F444C090E042
:103F500080E030E020E026C02132310551F12232EC
:103F60003105A9F76330710590F7FB01EE0FFF1FD4
:103F7000E257FE4F2081318165577E4FFB018081E2
:103F800090E010C099278130910581F0009729F0C9
:103F90000297E9F6E4EBF3E002C0E0EDF3E0849190
:103FA00090E09F01FA01318320830895E4ECF3E06F
:103FB000F6CF6330710558F6660F771FFB01EC569C
:103FC000FE4F2081318189E090E0ECCF82E190E0EA
:103FD0002FE234E0E7CF8BE590E024ED33E0E2CF51
:103FE00080E189BD82E189BD09B400FEFDCF8091E9
:103FF000D8008F7D8093D8008091E000826080930C
:10400000E0008091E00081FDFCCF0895AF92BF9267
:10401000CF92DF92FF920F931F93CF93DF936C01A8
:10402000EB018A010E94B421F82E811123C00115F1
:10403000110539F0F80180819181C81BD90BC80E98
:10404000D91EB12CA12C2097A9F08091E80085FD04
:1040500022C08091E8008E778093E8000115110559
:10406000A1F0F80180819181A80EB91EB182A082D1
:1040700085E0F82E8F2DDF91CF911F910F91FF904A
:10408000DF90CF90BF90AF9008950E94B421882315
:10409000D1F2F82EEFCFF60181916F018093F100FC
:1040A0002197FFEFAF1ABF0ACECFAF92BF92CF9248
:1040B000DF92FF920F931F93CF93DF936C01EB017D
:1040C0008A010E94B421F82E811123C00115110527
:1040D00039F0F80180819181C81BD90BC80ED91E17
:1040E000B12CA12C2097A9F08091E80085FD22C079
:1040F0008091E8008B778093E80001151105A1F00D
:10410000F80180819181A80EB91EB182A08285E05C
:10411000F82E8F2DDF91CF911F910F91FF90DF909F
:10412000CF90BF90AF9008950E94B4218823D1F220
:10413000F82EEFCF8091F100F60181936F01219766
:10414000FFEFAF1ABF0ACECFFC018091AA02909177
:10415000AB0286179707A0F06115710529F49091BD
:10416000E8009E779093E80090E06115710551F4A6
:10417000911108C08091E80082FF34C080E008956A
:10418000BC01F2CF8091A3028823C1F18530C1F137
:104190008091E80083FD30C08091E80082FDEACF85
:1041A0008091E80080FFE1CF8091F3002091F20040
:1041B000382F6115710519F02830310558F091E05C
:1041C0002830310509F090E02091E8002E77209307
:1041D000E800CBCF81918093F100615071092F5F8E
:1041E0003F4FE7CF8091A302882341F0853041F013
:1041F0008091E80083FFBECF81E0089582E00895BA
:1042000083E00895FC018091AA029091AB02861789
:104210009707A0F06115710529F48091E8008E7769
:104220008093E80090E06115710551F4911108C088
:104230008091E80082FF35C080E00895BC01F2CF94
:104240008091A3028823C9F18530C9F18091E800EB
:1042500083FD31C08091E80082FDEACF8091E800C3
:1042600080FFE1CF8091F3002091F200382F61159B
:10427000710519F02830310558F091E028303105EA
:1042800009F090E08091E8008E778093E800CBCF32
:1042900084918093F1003196615071092F5F3F4FF7
:1042A000E6CF8091A302882341F0853041F08091D0
:1042B000E80083FFBDCF81E0089582E0089583E0A8
:1042C0000895982F973028F08F708093E90081E04F
:1042D00008959093E900242F762F50E0981731F03D
:1042E0007091EC002091ED005091F00021FD02C092
:1042F0009F5FE8CF3091EB003E7F3093EB00309131
:10430000ED003D7F3093ED003091EB003160309354
:10431000EB007093EC002093ED005093F00020919F
:10432000EE0027FDE5CF80E008958091A40287FF8D
:1043300013C08091E80082FF06C08091E8008B776F
:104340008093E80004C08091A3028111F2CF089508
:104350008091A3028823D9F38091E80080FFF8CFF1
:104360008091E8008E77ECCF2091E4003091E50059
:1043700095E6A9012091EC00822F817020FF06C0F4
:104380008091E80080FF06C080E008952091E80059
:1043900022FD1AC08091A302882389F0853089F01C
:1043A0008091EB0085FD0FC02091E4003091E50085
:1043B00042175307F9F29150E1F684E0089582E044
:1043C000089583E0089581E008950E9453220E9499
:1043D0005B22E0EEF0E0808181608083E8EDF0E038
:1043E00080818F77808319BCA7EDB0E08C918E7FA0
:1043F0008C9380818F7E80831092A20208950F9308
:104400001F93CF93DF930E9453220E945B22C8ED3B
:10441000D0E088818F7788838881806888838881CD
:104420008F7D888319BC1092A30210929F02109274
:10443000A1021092A00200EE10E0F80180818B7FB3
:10444000808388818160888342E060E080E00E9410
:104450006121E1EEF0E080818E7F8083E2EEF0E08A
:10446000808181608083808188608083F801808181
:104470008E7F8083888180618883DF91CF911F91B7
:104480000F910895E8EDF0E080818F7E8083E7ED65
:10449000F0E080818160808384E082BF81E080934E
:1044A000A2020C94FF21E8EDF0E080818E7F8083F2
:1044B0001092E20008951092DA001092E10008953F
:1044C0001F920F920FB60F9211242F933F934F9389
:1044D0005F936F937F938F939F93AF93BF93EF936C
:1044E000FF938091E10082FF0BC08091E20082FF88
:1044F00007C08091E1008B7F8093E1000E94CA2475
:104500008091DA0080FF19C08091D80080FF15C02B
:104510008091DA008E7F8093DA008091D90080FF4D
:1045200096C080E189BD82E189BD09B400FEFDCF5E
:1045300081E08093A3020E943D1E8091E10080FFF4
:1045400019C08091E20080FF15C08091E2008E7F4B
:104550008093E2008091E20080618093E20080918C
:10456000D80080628093D80019BC85E08093A302B4
:104570000E944F1E8091E10084FF2BC08091E200D9
:1045800084FF27C080E189BD82E189BD89B5982F6C
:10459000917080FFFBCF8091D8008F7D8093D800F1
:1045A0008091E1008F7E8093E1008091E2008F7E18
:1045B0008093E2008091E20081608093E20080912C
:1045C0009F02882309F449C084E08093A3020E94DB
:1045D000501E8091E10083FF29C08091E20083FF9B
:1045E00025C08091E100877F8093E10082E0809385
:1045F000A30210929F028091E1008E7F8093E100E0
:104600008091E2008E7F8093E2008091E2008061E1
:104610008093E20042E060E080E00E9461218091AE
:10462000F00088608093F0000E944E1EFF91EF9191
:10463000BF91AF919F918F917F916F915F914F91BA
:104640003F912F910F900FBE0F901F90189519BC9E
:104650001092A3020E944B1E70CF8091E30087FD51
:1046600093E09093A302B3CF1F920F920FB60F92D5
:1046700011242F933F934F935F936F937F938F9367
:104680009F93AF93BF93CF93DF93EF93FF93D0911B
:10469000E900DF708091EC00C82FC17080FDC0E898
:1046A0001092E9008091F000877F8093F000789469
:1046B0000E9478231092E9008091F0008860809336
:1046C000F000CD2BCF70C093E900FF91EF91DF9107
:1046D000CF91BF91AF919F918F917F916F915F919A
:1046E0004F913F912F910F900FBE0F901F901895F3
:1046F0001F93CF93DF93CDB7DEB7AA970FB6F89489
:10470000DEBF0FBECDBF84EA92E02091F100FC0134
:104710002193CF01F2E08C3A9F07B9F70E94651E02
:104720008091E80083FF1EC18091A4029091A502B0
:104730009A3008F017C1E92FF0E0E057FA4D0C94D9
:10474000FA24803899F0823809F00CC18091A802CF
:104750008F70873008F006C18093E9008091EB00EC
:1047600085FB882780F91092E90006C08091A0029D
:104770009091A102911182609091E800977F9093AF
:10478000E8008093F1001092F1008091E8008E77AC
:10479000E5C0882309F4D3C0823009F0E3C08091DA
:1047A000A6028111D6C08091A8028F702FEF280F2A
:1047B000263008F0D7C08093E9002091EB0020FF5D
:1047C000C8C0933031F48091EB0080628093EB009D
:1047D000C0C09091EB0090619093EB0021E030E03D
:1047E00001C0220F8A95EAF72093EA001092EA00AE
:1047F0008091EB008860EACF8111B4C01091A602CD
:104800001F778091E3008078812B8093E300809173
:10481000E800877F8093E8000E9495218091E8005E
:1048200080FFFCCF8091E30080688093E30082E00A
:10483000111183E08093A30295C08058823008F064
:1048400091C08091A6029091A7028C3D23E092072F
:10485000A1F583E08A838AE289834FB7F894DE0169
:10486000139620E03EE051E2E32FF0E05093570032
:10487000E49120FF03C0E295EF703F5FEF708E2F51
:1048800090E0EA30C0F0C7968D939D932F5F24315E
:1048900059F74FBF8091E800877F8093E8006AE274
:1048A00070E0CE0101960E94A4208091E8008B77F1
:1048B0008093E80057C0C096E7CF6091A80270913E
:1048C000A902AE014F5F5F4F0E94971FBC01892B69
:1048D00009F448C09091E800977F9093E80089819F
:1048E0009A810E940221E1CF8038E1F58091E800B1
:1048F000877F8093E80080919F028093F10045CFED
:10490000811130C09091A602923060F58091E8004C
:10491000877F8093E80090939F020E949521809169
:104920009F02882311F084E005C08091E30087FD99
:10493000FACF81E08093A3020E94511E13C08091A0
:10494000A602813079F481E0933009F080E0809311
:10495000A1021092E9008091E800877F8093E8002F
:104960000E9495218091E80083FF0AC08091E800B1
:10497000877F8093E8008091EB0080628093EB005A
:10498000AA960FB6F894DEBF0FBECDBFDF91CF91D0
:104990001F9108950895CF938091A3028823A1F0D9
:1049A000C091E900CF709091EC00892F817090FD4B
:1049B00080E8C82B1092E9008091E80083FD0E94F6
:1049C0007823CF70C093E900CF91089597FB072E0D
:1049D00016F4009407D077FD09D00E94072507FC44
:1049E00005D03EF4909581959F4F089570956195FF
:1049F0007F4F0895EE0FFF1F0590F491E02D09946D
:104A00006927962769277827872778270895AA1B7B
:104A1000BB1B51E107C0AA1FBB1FA617B70710F0A9
:104A2000A61BB70B881F991F5A95A9F780959095DB
:104A3000BC01CD010895F999FECF92BD81BDF89AD0
:104A4000992780B50895A8E1B0E042E050E00C94C9
:104A50004F25262FF999FECF92BD81BDF89A019777
:104A600000B4021639F01FBA20BD0FB6F894FA9AB6
:104A7000F99A0FBE08950396272F0E942A250E94B7
:104A80002925252F0E942A25242F0C942A250196BA
:104A9000272F0E942A250C942925DC01CB01FC013B
:104AA000F999FECF06C0F2BDE1BDF89A319600B487
:104AB0000D9241505040B8F70895F894FFCF5E0B27
:104AC0006B0B920B9E0BA90BB40BB70BB70BB70B71
:104AD000B70BB70BBA0BBE0BC60BD30BE00BE30B3C
:104AE000E60BF30B72127212CA12CA121C1338139D
:104AF0009F129F124313CF13DE13DE133A149F123B
:104B00009F124314B814B814C114C114C314C114AF
:104B1000C114C114B814B814C814C114C114C814F1
:104B2000A123C923B224C923B224FC231D24B22407
:044B30007424802445
:104B34002808641E140A321E3E02751DD31DB21DC0
:104B4400AE1DAA1D01E200E900EA00B500B600B7F7
:104B540000CD008301CC008A01920194012102233B
:104B64000224022502260227022A02B300B4006F9F
:104B7400007000818283C66734979694959392F669
:104B8400F7663635F53391F0F4F1E200E900EA0016
:104B9400B500B600B700CD008301CC008A019201B4
:104BA40094012102230224022502260227022A025A
:104BB400B300B4006F0070008182834022B61905EF
:0A4BC40041046304E603FF031F042D
:00000001FF
